{"abi":[{"type":"constructor","inputs":[{"name":"_happy_svg","type":"string","internalType":"string"},{"name":"_sad_svg","type":"string","internalType":"string"}],"stateMutability":"nonpayable"},{"type":"function","name":"approve","inputs":[{"name":"to","type":"address","internalType":"address"},{"name":"tokenId","type":"uint256","internalType":"uint256"}],"outputs":[],"stateMutability":"nonpayable"},{"type":"function","name":"balanceOf","inputs":[{"name":"owner","type":"address","internalType":"address"}],"outputs":[{"name":"","type":"uint256","internalType":"uint256"}],"stateMutability":"view"},{"type":"function","name":"flipMood","inputs":[{"name":"tokenId","type":"uint256","internalType":"uint256"}],"outputs":[],"stateMutability":"nonpayable"},{"type":"function","name":"getApproved","inputs":[{"name":"tokenId","type":"uint256","internalType":"uint256"}],"outputs":[{"name":"","type":"address","internalType":"address"}],"stateMutability":"view"},{"type":"function","name":"getTokenCounts","inputs":[],"outputs":[{"name":"","type":"uint256","internalType":"uint256"}],"stateMutability":"view"},{"type":"function","name":"getTokenIdToMood","inputs":[{"name":"tokenId","type":"uint256","internalType":"uint256"}],"outputs":[{"name":"","type":"uint8","internalType":"enum DynamicNFT.Mood"}],"stateMutability":"view"},{"type":"function","name":"getTokenIdToOwner","inputs":[{"name":"tokenId","type":"uint256","internalType":"uint256"}],"outputs":[{"name":"","type":"address","internalType":"address"}],"stateMutability":"view"},{"type":"function","name":"getURLs","inputs":[],"outputs":[{"name":"","type":"string","internalType":"string"},{"name":"","type":"string","internalType":"string"}],"stateMutability":"view"},{"type":"function","name":"isApprovedForAll","inputs":[{"name":"owner","type":"address","internalType":"address"},{"name":"operator","type":"address","internalType":"address"}],"outputs":[{"name":"","type":"bool","internalType":"bool"}],"stateMutability":"view"},{"type":"function","name":"mintNft","inputs":[],"outputs":[],"stateMutability":"nonpayable"},{"type":"function","name":"name","inputs":[],"outputs":[{"name":"","type":"string","internalType":"string"}],"stateMutability":"view"},{"type":"function","name":"ownerOf","inputs":[{"name":"tokenId","type":"uint256","internalType":"uint256"}],"outputs":[{"name":"","type":"address","internalType":"address"}],"stateMutability":"view"},{"type":"function","name":"safeTransferFrom","inputs":[{"name":"from","type":"address","internalType":"address"},{"name":"to","type":"address","internalType":"address"},{"name":"tokenId","type":"uint256","internalType":"uint256"}],"outputs":[],"stateMutability":"nonpayable"},{"type":"function","name":"safeTransferFrom","inputs":[{"name":"from","type":"address","internalType":"address"},{"name":"to","type":"address","internalType":"address"},{"name":"tokenId","type":"uint256","internalType":"uint256"},{"name":"data","type":"bytes","internalType":"bytes"}],"outputs":[],"stateMutability":"nonpayable"},{"type":"function","name":"setApprovalForAll","inputs":[{"name":"operator","type":"address","internalType":"address"},{"name":"approved","type":"bool","internalType":"bool"}],"outputs":[],"stateMutability":"nonpayable"},{"type":"function","name":"supportsInterface","inputs":[{"name":"interfaceId","type":"bytes4","internalType":"bytes4"}],"outputs":[{"name":"","type":"bool","internalType":"bool"}],"stateMutability":"view"},{"type":"function","name":"symbol","inputs":[],"outputs":[{"name":"","type":"string","internalType":"string"}],"stateMutability":"view"},{"type":"function","name":"tokenURI","inputs":[{"name":"tokenId","type":"uint256","internalType":"uint256"}],"outputs":[{"name":"","type":"string","internalType":"string"}],"stateMutability":"view"},{"type":"function","name":"transferFrom","inputs":[{"name":"from","type":"address","internalType":"address"},{"name":"to","type":"address","internalType":"address"},{"name":"tokenId","type":"uint256","internalType":"uint256"}],"outputs":[],"stateMutability":"nonpayable"},{"type":"event","name":"Approval","inputs":[{"name":"owner","type":"address","indexed":true,"internalType":"address"},{"name":"approved","type":"address","indexed":true,"internalType":"address"},{"name":"tokenId","type":"uint256","indexed":true,"internalType":"uint256"}],"anonymous":false},{"type":"event","name":"ApprovalForAll","inputs":[{"name":"owner","type":"address","indexed":true,"internalType":"address"},{"name":"operator","type":"address","indexed":true,"internalType":"address"},{"name":"approved","type":"bool","indexed":false,"internalType":"bool"}],"anonymous":false},{"type":"event","name":"Transfer","inputs":[{"name":"from","type":"address","indexed":true,"internalType":"address"},{"name":"to","type":"address","indexed":true,"internalType":"address"},{"name":"tokenId","type":"uint256","indexed":true,"internalType":"uint256"}],"anonymous":false},{"type":"error","name":"DynamicNFT__flipperNotOwnerOfTheNFT","inputs":[]},{"type":"error","name":"ERC721IncorrectOwner","inputs":[{"name":"sender","type":"address","internalType":"address"},{"name":"tokenId","type":"uint256","internalType":"uint256"},{"name":"owner","type":"address","internalType":"address"}]},{"type":"error","name":"ERC721InsufficientApproval","inputs":[{"name":"operator","type":"address","internalType":"address"},{"name":"tokenId","type":"uint256","internalType":"uint256"}]},{"type":"error","name":"ERC721InvalidApprover","inputs":[{"name":"approver","type":"address","internalType":"address"}]},{"type":"error","name":"ERC721InvalidOperator","inputs":[{"name":"operator","type":"address","internalType":"address"}]},{"type":"error","name":"ERC721InvalidOwner","inputs":[{"name":"owner","type":"address","internalType":"address"}]},{"type":"error","name":"ERC721InvalidReceiver","inputs":[{"name":"receiver","type":"address","internalType":"address"}]},{"type":"error","name":"ERC721InvalidSender","inputs":[{"name":"sender","type":"address","internalType":"address"}]},{"type":"error","name":"ERC721NonexistentToken","inputs":[{"name":"tokenId","type":"uint256","internalType":"uint256"}]}],"bytecode":{"object":"0x608060405234801561001057600080fd5b506040516119b83803806119b883398101604081905261002f91610168565b6040518060400160405280600a815260200169111e5b985b5a58d3919560b21b81525060405180604001604052806002815260200161222760f11b815250816000908161007c919061025a565b506001610089828261025a565b506006915061009a9050838261025a565b5060076100a7828261025a565b505050610318565b634e487b7160e01b600052604160045260246000fd5b600082601f8301126100d657600080fd5b81516001600160401b038111156100ef576100ef6100af565b604051601f8201601f19908116603f011681016001600160401b038111828210171561011d5761011d6100af565b60405281815283820160200185101561013557600080fd5b60005b8281101561015457602081860181015183830182015201610138565b506000918101602001919091529392505050565b6000806040838503121561017b57600080fd5b82516001600160401b0381111561019157600080fd5b61019d858286016100c5565b602085015190935090506001600160401b038111156101bb57600080fd5b6101c7858286016100c5565b9150509250929050565b600181811c908216806101e557607f821691505b60208210810361020557634e487b7160e01b600052602260045260246000fd5b50919050565b601f82111561025557806000526020600020601f840160051c810160208510156102325750805b601f840160051c820191505b81811015610252576000815560010161023e565b50505b505050565b81516001600160401b03811115610273576102736100af565b6102878161028184546101d1565b8461020b565b6020601f8211600181146102bb57600083156102a35750848201515b600019600385901b1c1916600184901b178455610252565b600084815260208120601f198516915b828110156102eb57878501518255602094850194600190920191016102cb565b50848210156103095786840151600019600387901b60f8161c191681555b50505050600190811b01905550565b611691806103276000396000f3fe608060405234801561001057600080fd5b50600436106101215760003560e01c806370a08231116100ad578063c1a147a011610071578063c1a147a01461029a578063c2229fea146102ad578063c87b56dd146102b5578063cee19474146102c8578063e985e9c5146102d057600080fd5b806370a082311461021b57806395d89b411461023c578063a22cb46514610244578063a789237c14610257578063b88d4fde1461028757600080fd5b8063206110db116100f4578063206110db146101a357806323b872dd146101b957806342842e0e146101cc5780636352211e146101df5780636a4fc74b146101f257600080fd5b806301ffc9a71461012657806306fdde031461014e578063081812fc14610163578063095ea7b31461018e575b600080fd5b6101396101343660046110d1565b6102e3565b60405190151581526020015b60405180910390f35b610156610335565b604051610145919061113e565b610176610171366004611151565b6103c7565b6040516001600160a01b039091168152602001610145565b6101a161019c366004611186565b6103f0565b005b6101ab6103ff565b6040516101459291906111b0565b6101a16101c73660046111de565b610526565b6101a16101da3660046111de565b6105b6565b6101766101ed366004611151565b6105d6565b610176610200366004611151565b6000908152600960205260409020546001600160a01b031690565b61022e61022936600461121b565b6105e1565b604051908152602001610145565b610156610629565b6101a1610252366004611236565b610638565b61027a610265366004611151565b6000908152600a602052604090205460ff1690565b6040516101459190611288565b6101a16102953660046112c6565b610643565b6101a16102a8366004611151565b61065a565b6101a16106de565b6101566102c3366004611151565b610736565b60085461022e565b6101396102de3660046113aa565b610922565b60006001600160e01b031982166380ac58cd60e01b148061031457506001600160e01b03198216635b5e139f60e01b145b8061032f57506301ffc9a760e01b6001600160e01b03198316145b92915050565b606060008054610344906113dd565b80601f0160208091040260200160405190810160405280929190818152602001828054610370906113dd565b80156103bd5780601f10610392576101008083540402835291602001916103bd565b820191906000526020600020905b8154815290600101906020018083116103a057829003601f168201915b5050505050905090565b60006103d282610950565b506000828152600460205260409020546001600160a01b031661032f565b6103fb828233610989565b5050565b60608060066007818054610412906113dd565b80601f016020809104026020016040519081016040528092919081815260200182805461043e906113dd565b801561048b5780601f106104605761010080835404028352916020019161048b565b820191906000526020600020905b81548152906001019060200180831161046e57829003601f168201915b5050505050915080805461049e906113dd565b80601f01602080910402602001604051908101604052809291908181526020018280546104ca906113dd565b80156105175780601f106104ec57610100808354040283529160200191610517565b820191906000526020600020905b8154815290600101906020018083116104fa57829003601f168201915b50505050509050915091509091565b6001600160a01b03821661055557604051633250574960e11b8152600060048201526024015b60405180910390fd5b6000610562838333610996565b9050836001600160a01b0316816001600160a01b0316146105b0576040516364283d7b60e01b81526001600160a01b038086166004830152602482018490528216604482015260640161054c565b50505050565b6105d183838360405180602001604052806000815250610643565b505050565b600061032f82610950565b60006001600160a01b03821661060d576040516322718ad960e21b81526000600482015260240161054c565b506001600160a01b031660009081526003602052604090205490565b606060018054610344906113dd565b6103fb338383610a8f565b61064e848484610526565b6105b084848484610b2e565b6106643382610c57565b61068157604051638a4c040f60e01b815260040160405180910390fd5b6000818152600a602052604081205460ff1660018111156106a4576106a4611272565b036106c4576000908152600a60205260409020805460ff19166001179055565b6000818152600a60205260409020805460ff191690555b50565b6106ea33600854610c88565b600880546000908152600a60209081526040808320805460ff19169055835483526009909152812080546001600160a01b031916331790558154919061072f8361142d565b9190505550565b60608060016000848152600a602052604090205460ff16600181111561075e5761075e611272565b036107f55760078054610770906113dd565b80601f016020809104026020016040519081016040528092919081815260200182805461079c906113dd565b80156107e95780601f106107be576101008083540402835291602001916107e9565b820191906000526020600020905b8154815290600101906020018083116107cc57829003601f168201915b50505050509050610883565b60068054610802906113dd565b80601f016020809104026020016040519081016040528092919081815260200182805461082e906113dd565b801561087b5780601f106108505761010080835404028352916020019161087b565b820191906000526020600020905b81548152906001019060200180831161085e57829003601f168201915b505050505090505b60006108bf60408051808201909152601d81527f646174613a6170706c69636174696f6e2f6a736f6e3b6261736536342c000000602082015290565b6108f06108ca610335565b846040516020016108dc929190611446565b604051602081830303815290604052610ca2565b604051602001610901929190611546565b604051602081830303815290604052905061091b81610e02565b9392505050565b6001600160a01b03918216600090815260056020908152604080832093909416825291909152205460ff1690565b6000818152600260205260408120546001600160a01b03168061032f57604051637e27328960e01b81526004810184905260240161054c565b6105d18383836001610e45565b6000828152600260205260408120546001600160a01b03908116908316156109c3576109c3818486610f4b565b6001600160a01b03811615610a01576109e0600085600080610e45565b6001600160a01b038116600090815260036020526040902080546000190190555b6001600160a01b03851615610a30576001600160a01b0385166000908152600360205260409020805460010190555b60008481526002602052604080822080546001600160a01b0319166001600160a01b0389811691821790925591518793918516917fddf252ad1be2c89b69c2b068fc378daa952ba7f163c4a11628f55a4df523b3ef91a4949350505050565b6001600160a01b038216610ac157604051630b61174360e31b81526001600160a01b038316600482015260240161054c565b6001600160a01b03838116600081815260056020908152604080832094871680845294825291829020805460ff191686151590811790915591519182527f17307eab39ab6107e8899845ad3d59bd9653f200f220920489ca2b5937696c31910160405180910390a3505050565b6001600160a01b0383163b156105b057604051630a85bd0160e11b81526001600160a01b0384169063150b7a0290610b70903390889087908790600401611575565b6020604051808303816000875af1925050508015610bab575060408051601f3d908101601f19168201909252610ba8918101906115b2565b60015b610c14573d808015610bd9576040519150601f19603f3d011682016040523d82523d6000602084013e610bde565b606091505b508051600003610c0c57604051633250574960e11b81526001600160a01b038516600482015260240161054c565b805181602001fd5b6001600160e01b03198116630a85bd0160e11b14610c5057604051633250574960e11b81526001600160a01b038516600482015260240161054c565b5050505050565b6000818152600960205260408120546001600160a01b03848116911614610c805750600061032f565b50600161032f565b6103fb828260405180602001604052806000815250610faf565b60608151600003610cc157505060408051602081019091526000815290565b600060405180606001604052806040815260200161161c6040913990506000600384516002610cf091906115cf565b610cfa91906115e2565b610d05906004611604565b67ffffffffffffffff811115610d1d57610d1d6112b0565b6040519080825280601f01601f191660200182016040528015610d47576020820181803683370190505b50905060018201602082018586518701602081018051600082525b82841015610dbd576003840193508351603f8160121c168701518653600186019550603f81600c1c168701518653600186019550603f8160061c168701518653600186019550603f8116870151865350600185019450610d62565b9052505085516003900660018114610ddc5760028114610def57610df7565b603d6001830353603d6002830353610df7565b603d60018303535b509195945050505050565b6106db81604051602401610e16919061113e565b60408051601f198184030181529190526020810180516001600160e01b031663104c13eb60e21b179052610fc6565b8080610e5957506001600160a01b03821615155b15610f1b576000610e6984610950565b90506001600160a01b03831615801590610e955750826001600160a01b0316816001600160a01b031614155b8015610ea85750610ea68184610922565b155b15610ed15760405163a9fbf51f60e01b81526001600160a01b038416600482015260240161054c565b8115610f195783856001600160a01b0316826001600160a01b03167f8c5be1e5ebec7d5bd14f71427d1e84f3dd0314c0f7b2291e5b200ac8c7c3b92560405160405180910390a45b505b5050600090815260046020526040902080546001600160a01b0319166001600160a01b0392909216919091179055565b610f56838383610fcf565b6105d1576001600160a01b038316610f8457604051637e27328960e01b81526004810182905260240161054c565b60405163177e802f60e01b81526001600160a01b03831660048201526024810182905260440161054c565b610fb98383611035565b6105d16000848484610b2e565b6106db8161109a565b60006001600160a01b0383161580159061102d5750826001600160a01b0316846001600160a01b0316148061100957506110098484610922565b8061102d57506000828152600460205260409020546001600160a01b038481169116145b949350505050565b6001600160a01b03821661105f57604051633250574960e11b81526000600482015260240161054c565b600061106d83836000610996565b90506001600160a01b038116156105d1576040516339e3563760e11b81526000600482015260240161054c565b80516a636f6e736f6c652e6c6f67602083016000808483855afa5050505050565b6001600160e01b0319811681146106db57600080fd5b6000602082840312156110e357600080fd5b813561091b816110bb565b60005b838110156111095781810151838201526020016110f1565b50506000910152565b6000815180845261112a8160208601602086016110ee565b601f01601f19169290920160200192915050565b60208152600061091b6020830184611112565b60006020828403121561116357600080fd5b5035919050565b80356001600160a01b038116811461118157600080fd5b919050565b6000806040838503121561119957600080fd5b6111a28361116a565b946020939093013593505050565b6040815260006111c36040830185611112565b82810360208401526111d58185611112565b95945050505050565b6000806000606084860312156111f357600080fd5b6111fc8461116a565b925061120a6020850161116a565b929592945050506040919091013590565b60006020828403121561122d57600080fd5b61091b8261116a565b6000806040838503121561124957600080fd5b6112528361116a565b91506020830135801515811461126757600080fd5b809150509250929050565b634e487b7160e01b600052602160045260246000fd5b60208101600283106112aa57634e487b7160e01b600052602160045260246000fd5b91905290565b634e487b7160e01b600052604160045260246000fd5b600080600080608085870312156112dc57600080fd5b6112e58561116a565b93506112f36020860161116a565b925060408501359150606085013567ffffffffffffffff81111561131657600080fd5b8501601f8101871361132757600080fd5b803567ffffffffffffffff811115611341576113416112b0565b604051601f8201601f19908116603f0116810167ffffffffffffffff81118282101715611370576113706112b0565b60405281815282820160200189101561138857600080fd5b8160208401602083013760006020838301015280935050505092959194509250565b600080604083850312156113bd57600080fd5b6113c68361116a565b91506113d46020840161116a565b90509250929050565b600181811c908216806113f157607f821691505b60208210810361141157634e487b7160e01b600052602260045260246000fd5b50919050565b634e487b7160e01b600052601160045260246000fd5b60006001820161143f5761143f611417565b5060010190565b6803d913730b6b2911d160bd1b8152825160009061146b8160098501602088016110ee565b7f226465736372697074696f6e223a202254686973204e465420646573637269626009918401918201527f657320796f7572206d6f6f642061742061207370656369666963206d6f6d656e60298201527f74222c202261747472696275746573223a205b7b2274726169745f747970652260498201527f3a20226d6f6f64696e657373222c202276616c7565223a203130307d5d2c2022606982015267034b6b0b3b2911d160c51b6089820152835161152b8160918401602088016110ee565b61227d60f01b60919290910191820152609301949350505050565b600083516115588184602088016110ee565b83519083019061156c8183602088016110ee565b01949350505050565b6001600160a01b03858116825284166020820152604081018390526080606082018190526000906115a890830184611112565b9695505050505050565b6000602082840312156115c457600080fd5b815161091b816110bb565b8082018082111561032f5761032f611417565b6000826115ff57634e487b7160e01b600052601260045260246000fd5b500490565b808202811582820484141761032f5761032f61141756fe4142434445464748494a4b4c4d4e4f505152535455565758595a6162636465666768696a6b6c6d6e6f707172737475767778797a303132333435363738392b2fa26469706673582212200d59a3ca9587b4ac7bd7e11a8d1434761e82d44f7b59d2b1ea5a0af2a96e50a364736f6c634300081a0033","linkReferences":{}},"methodIdentifiers":{"approve(address,uint256)":"095ea7b3","balanceOf(address)":"70a08231","flipMood(uint256)":"c1a147a0","getApproved(uint256)":"081812fc","getTokenCounts()":"cee19474","getTokenIdToMood(uint256)":"a789237c","getTokenIdToOwner(uint256)":"6a4fc74b","getURLs()":"206110db","isApprovedForAll(address,address)":"e985e9c5","mintNft()":"c2229fea","name()":"06fdde03","ownerOf(uint256)":"6352211e","safeTransferFrom(address,address,uint256)":"42842e0e","safeTransferFrom(address,address,uint256,bytes)":"b88d4fde","setApprovalForAll(address,bool)":"a22cb465","supportsInterface(bytes4)":"01ffc9a7","symbol()":"95d89b41","tokenURI(uint256)":"c87b56dd","transferFrom(address,address,uint256)":"23b872dd"},"id":41}