{"abi":[{"type":"constructor","inputs":[],"stateMutability":"nonpayable"},{"type":"function","name":"approve","inputs":[{"name":"to","type":"address","internalType":"address"},{"name":"tokenId","type":"uint256","internalType":"uint256"}],"outputs":[],"stateMutability":"nonpayable"},{"type":"function","name":"balanceOf","inputs":[{"name":"owner","type":"address","internalType":"address"}],"outputs":[{"name":"","type":"uint256","internalType":"uint256"}],"stateMutability":"view"},{"type":"function","name":"getApproved","inputs":[{"name":"tokenId","type":"uint256","internalType":"uint256"}],"outputs":[{"name":"","type":"address","internalType":"address"}],"stateMutability":"view"},{"type":"function","name":"isApprovedForAll","inputs":[{"name":"owner","type":"address","internalType":"address"},{"name":"operator","type":"address","internalType":"address"}],"outputs":[{"name":"","type":"bool","internalType":"bool"}],"stateMutability":"view"},{"type":"function","name":"mintNFT","inputs":[{"name":"tokenUri","type":"string","internalType":"string"}],"outputs":[],"stateMutability":"nonpayable"},{"type":"function","name":"name","inputs":[],"outputs":[{"name":"","type":"string","internalType":"string"}],"stateMutability":"view"},{"type":"function","name":"ownerOf","inputs":[{"name":"tokenId","type":"uint256","internalType":"uint256"}],"outputs":[{"name":"","type":"address","internalType":"address"}],"stateMutability":"view"},{"type":"function","name":"safeTransferFrom","inputs":[{"name":"from","type":"address","internalType":"address"},{"name":"to","type":"address","internalType":"address"},{"name":"tokenId","type":"uint256","internalType":"uint256"}],"outputs":[],"stateMutability":"nonpayable"},{"type":"function","name":"safeTransferFrom","inputs":[{"name":"from","type":"address","internalType":"address"},{"name":"to","type":"address","internalType":"address"},{"name":"tokenId","type":"uint256","internalType":"uint256"},{"name":"data","type":"bytes","internalType":"bytes"}],"outputs":[],"stateMutability":"nonpayable"},{"type":"function","name":"setApprovalForAll","inputs":[{"name":"operator","type":"address","internalType":"address"},{"name":"approved","type":"bool","internalType":"bool"}],"outputs":[],"stateMutability":"nonpayable"},{"type":"function","name":"supportsInterface","inputs":[{"name":"interfaceId","type":"bytes4","internalType":"bytes4"}],"outputs":[{"name":"","type":"bool","internalType":"bool"}],"stateMutability":"view"},{"type":"function","name":"symbol","inputs":[],"outputs":[{"name":"","type":"string","internalType":"string"}],"stateMutability":"view"},{"type":"function","name":"tokenURI","inputs":[{"name":"tokenId","type":"uint256","internalType":"uint256"}],"outputs":[{"name":"","type":"string","internalType":"string"}],"stateMutability":"view"},{"type":"function","name":"transferFrom","inputs":[{"name":"from","type":"address","internalType":"address"},{"name":"to","type":"address","internalType":"address"},{"name":"tokenId","type":"uint256","internalType":"uint256"}],"outputs":[],"stateMutability":"nonpayable"},{"type":"event","name":"Approval","inputs":[{"name":"owner","type":"address","indexed":true,"internalType":"address"},{"name":"approved","type":"address","indexed":true,"internalType":"address"},{"name":"tokenId","type":"uint256","indexed":true,"internalType":"uint256"}],"anonymous":false},{"type":"event","name":"ApprovalForAll","inputs":[{"name":"owner","type":"address","indexed":true,"internalType":"address"},{"name":"operator","type":"address","indexed":true,"internalType":"address"},{"name":"approved","type":"bool","indexed":false,"internalType":"bool"}],"anonymous":false},{"type":"event","name":"Transfer","inputs":[{"name":"from","type":"address","indexed":true,"internalType":"address"},{"name":"to","type":"address","indexed":true,"internalType":"address"},{"name":"tokenId","type":"uint256","indexed":true,"internalType":"uint256"}],"anonymous":false},{"type":"error","name":"ERC721IncorrectOwner","inputs":[{"name":"sender","type":"address","internalType":"address"},{"name":"tokenId","type":"uint256","internalType":"uint256"},{"name":"owner","type":"address","internalType":"address"}]},{"type":"error","name":"ERC721InsufficientApproval","inputs":[{"name":"operator","type":"address","internalType":"address"},{"name":"tokenId","type":"uint256","internalType":"uint256"}]},{"type":"error","name":"ERC721InvalidApprover","inputs":[{"name":"approver","type":"address","internalType":"address"}]},{"type":"error","name":"ERC721InvalidOperator","inputs":[{"name":"operator","type":"address","internalType":"address"}]},{"type":"error","name":"ERC721InvalidOwner","inputs":[{"name":"owner","type":"address","internalType":"address"}]},{"type":"error","name":"ERC721InvalidReceiver","inputs":[{"name":"receiver","type":"address","internalType":"address"}]},{"type":"error","name":"ERC721InvalidSender","inputs":[{"name":"sender","type":"address","internalType":"address"}]},{"type":"error","name":"ERC721NonexistentToken","inputs":[{"name":"tokenId","type":"uint256","internalType":"uint256"}]}],"bytecode":{"object":"0x608060405234801561001057600080fd5b5060405180604001604052806003815260200162446f6760e81b81525060405180604001604052806002815260200161444760f01b81525081600090816100579190610110565b5060016100648282610110565b50506000600655506101ce565b634e487b7160e01b600052604160045260246000fd5b600181811c9082168061009b57607f821691505b6020821081036100bb57634e487b7160e01b600052602260045260246000fd5b50919050565b601f82111561010b57806000526020600020601f840160051c810160208510156100e85750805b601f840160051c820191505b8181101561010857600081556001016100f4565b50505b505050565b81516001600160401b0381111561012957610129610071565b61013d816101378454610087565b846100c1565b6020601f82116001811461017157600083156101595750848201515b600019600385901b1c1916600184901b178455610108565b600084815260208120601f198516915b828110156101a15787850151825560209485019460019092019101610181565b50848210156101bf5786840151600019600387901b60f8161c191681555b50505050600190811b01905550565b611002806101dd6000396000f3fe608060405234801561001057600080fd5b50600436106100ea5760003560e01c806370a082311161008c578063b88d4fde11610066578063b88d4fde146101e1578063c87b56dd146101f4578063e985e9c514610207578063fb37e8831461021a57600080fd5b806370a08231146101a557806395d89b41146101c6578063a22cb465146101ce57600080fd5b8063095ea7b3116100c8578063095ea7b31461015757806323b872dd1461016c57806342842e0e1461017f5780636352211e1461019257600080fd5b806301ffc9a7146100ef57806306fdde0314610117578063081812fc1461012c575b600080fd5b6101026100fd366004610b13565b61022d565b60405190151581526020015b60405180910390f35b61011f61027f565b60405161010e9190610b7d565b61013f61013a366004610b90565b610311565b6040516001600160a01b03909116815260200161010e565b61016a610165366004610bc5565b61033a565b005b61016a61017a366004610bef565b610349565b61016a61018d366004610bef565b6103d9565b61013f6101a0366004610b90565b6103f9565b6101b86101b3366004610c2c565b610404565b60405190815260200161010e565b61011f61044c565b61016a6101dc366004610c47565b61045b565b61016a6101ef366004610d13565b610466565b61011f610202366004610b90565b61047d565b610102610215366004610d8f565b61051f565b61016a610228366004610dc2565b61054d565b60006001600160e01b031982166380ac58cd60e01b148061025e57506001600160e01b03198216635b5e139f60e01b145b8061027957506301ffc9a760e01b6001600160e01b03198316145b92915050565b60606000805461028e90610e0b565b80601f01602080910402602001604051908101604052809291908181526020018280546102ba90610e0b565b80156103075780601f106102dc57610100808354040283529160200191610307565b820191906000526020600020905b8154815290600101906020018083116102ea57829003601f168201915b5050505050905090565b600061031c8261058d565b506000828152600460205260409020546001600160a01b0316610279565b6103458282336105c6565b5050565b6001600160a01b03821661037857604051633250574960e11b8152600060048201526024015b60405180910390fd5b60006103858383336105d3565b9050836001600160a01b0316816001600160a01b0316146103d3576040516364283d7b60e01b81526001600160a01b038086166004830152602482018490528216604482015260640161036f565b50505050565b6103f483838360405180602001604052806000815250610466565b505050565b60006102798261058d565b60006001600160a01b038216610430576040516322718ad960e21b81526000600482015260240161036f565b506001600160a01b031660009081526003602052604090205490565b60606001805461028e90610e0b565b6103453383836106cc565b610471848484610349565b6103d38484848461076b565b600081815260076020526040902080546060919061049a90610e0b565b80601f01602080910402602001604051908101604052809291908181526020018280546104c690610e0b565b80156105135780601f106104e857610100808354040283529160200191610513565b820191906000526020600020905b8154815290600101906020018083116104f657829003601f168201915b50505050509050919050565b6001600160a01b03918216600090815260056020908152604080832093909416825291909152205460ff1690565b60065460009081526007602052604090206105688282610e8c565b5061057533600654610894565b6006805490600061058583610f4b565b919050555050565b6000818152600260205260408120546001600160a01b03168061027957604051637e27328960e01b81526004810184905260240161036f565b6103f483838360016108ae565b6000828152600260205260408120546001600160a01b0390811690831615610600576106008184866109b4565b6001600160a01b0381161561063e5761061d6000856000806108ae565b6001600160a01b038116600090815260036020526040902080546000190190555b6001600160a01b0385161561066d576001600160a01b0385166000908152600360205260409020805460010190555b60008481526002602052604080822080546001600160a01b0319166001600160a01b0389811691821790925591518793918516917fddf252ad1be2c89b69c2b068fc378daa952ba7f163c4a11628f55a4df523b3ef91a4949350505050565b6001600160a01b0382166106fe57604051630b61174360e31b81526001600160a01b038316600482015260240161036f565b6001600160a01b03838116600081815260056020908152604080832094871680845294825291829020805460ff191686151590811790915591519182527f17307eab39ab6107e8899845ad3d59bd9653f200f220920489ca2b5937696c31910160405180910390a3505050565b6001600160a01b0383163b156103d357604051630a85bd0160e11b81526001600160a01b0384169063150b7a02906107ad903390889087908790600401610f72565b6020604051808303816000875af19250505080156107e8575060408051601f3d908101601f191682019092526107e591810190610faf565b60015b610851573d808015610816576040519150601f19603f3d011682016040523d82523d6000602084013e61081b565b606091505b50805160000361084957604051633250574960e11b81526001600160a01b038516600482015260240161036f565b805181602001fd5b6001600160e01b03198116630a85bd0160e11b1461088d57604051633250574960e11b81526001600160a01b038516600482015260240161036f565b5050505050565b610345828260405180602001604052806000815250610a18565b80806108c257506001600160a01b03821615155b156109845760006108d28461058d565b90506001600160a01b038316158015906108fe5750826001600160a01b0316816001600160a01b031614155b8015610911575061090f818461051f565b155b1561093a5760405163a9fbf51f60e01b81526001600160a01b038416600482015260240161036f565b81156109825783856001600160a01b0316826001600160a01b03167f8c5be1e5ebec7d5bd14f71427d1e84f3dd0314c0f7b2291e5b200ac8c7c3b92560405160405180910390a45b505b5050600090815260046020526040902080546001600160a01b0319166001600160a01b0392909216919091179055565b6109bf838383610a2f565b6103f4576001600160a01b0383166109ed57604051637e27328960e01b81526004810182905260240161036f565b60405163177e802f60e01b81526001600160a01b03831660048201526024810182905260440161036f565b610a228383610a95565b6103f4600084848461076b565b60006001600160a01b03831615801590610a8d5750826001600160a01b0316846001600160a01b03161480610a695750610a69848461051f565b80610a8d57506000828152600460205260409020546001600160a01b038481169116145b949350505050565b6001600160a01b038216610abf57604051633250574960e11b81526000600482015260240161036f565b6000610acd838360006105d3565b90506001600160a01b038116156103f4576040516339e3563760e11b81526000600482015260240161036f565b6001600160e01b031981168114610b1057600080fd5b50565b600060208284031215610b2557600080fd5b8135610b3081610afa565b9392505050565b6000815180845260005b81811015610b5d57602081850181015186830182015201610b41565b506000602082860101526020601f19601f83011685010191505092915050565b602081526000610b306020830184610b37565b600060208284031215610ba257600080fd5b5035919050565b80356001600160a01b0381168114610bc057600080fd5b919050565b60008060408385031215610bd857600080fd5b610be183610ba9565b946020939093013593505050565b600080600060608486031215610c0457600080fd5b610c0d84610ba9565b9250610c1b60208501610ba9565b929592945050506040919091013590565b600060208284031215610c3e57600080fd5b610b3082610ba9565b60008060408385031215610c5a57600080fd5b610c6383610ba9565b915060208301358015158114610c7857600080fd5b809150509250929050565b634e487b7160e01b600052604160045260246000fd5b60008067ffffffffffffffff841115610cb457610cb4610c83565b50604051601f19601f85018116603f0116810181811067ffffffffffffffff82111715610ce357610ce3610c83565b604052838152905080828401851015610cfb57600080fd5b83836020830137600060208583010152509392505050565b60008060008060808587031215610d2957600080fd5b610d3285610ba9565b9350610d4060208601610ba9565b925060408501359150606085013567ffffffffffffffff811115610d6357600080fd5b8501601f81018713610d7457600080fd5b610d8387823560208401610c99565b91505092959194509250565b60008060408385031215610da257600080fd5b610dab83610ba9565b9150610db960208401610ba9565b90509250929050565b600060208284031215610dd457600080fd5b813567ffffffffffffffff811115610deb57600080fd5b8201601f81018413610dfc57600080fd5b610a8d84823560208401610c99565b600181811c90821680610e1f57607f821691505b602082108103610e3f57634e487b7160e01b600052602260045260246000fd5b50919050565b601f8211156103f457806000526020600020601f840160051c81016020851015610e6c5750805b601f840160051c820191505b8181101561088d5760008155600101610e78565b815167ffffffffffffffff811115610ea657610ea6610c83565b610eba81610eb48454610e0b565b84610e45565b6020601f821160018114610eee5760008315610ed65750848201515b600019600385901b1c1916600184901b17845561088d565b600084815260208120601f198516915b82811015610f1e5787850151825560209485019460019092019101610efe565b5084821015610f3c5786840151600019600387901b60f8161c191681555b50505050600190811b01905550565b600060018201610f6b57634e487b7160e01b600052601160045260246000fd5b5060010190565b6001600160a01b0385811682528416602082015260408101839052608060608201819052600090610fa590830184610b37565b9695505050505050565b600060208284031215610fc157600080fd5b8151610b3081610afa56fea26469706673582212209befa16f7f6398cb415b73c0ac951fb4f3e18b461245a78744a94df619d643ed64736f6c634300081a0033","linkReferences":{}},"methodIdentifiers":{"approve(address,uint256)":"095ea7b3","balanceOf(address)":"70a08231","getApproved(uint256)":"081812fc","isApprovedForAll(address,address)":"e985e9c5","mintNFT(string)":"fb37e883","name()":"06fdde03","ownerOf(uint256)":"6352211e","safeTransferFrom(address,address,uint256)":"42842e0e","safeTransferFrom(address,address,uint256,bytes)":"b88d4fde","setApprovalForAll(address,bool)":"a22cb465","supportsInterface(bytes4)":"01ffc9a7","symbol()":"95d89b41","tokenURI(uint256)":"c87b56dd","transferFrom(address,address,uint256)":"23b872dd"},"id":42}