{"abi":[{"type":"constructor","inputs":[{"name":"_entranceFee","type":"uint256","internalType":"uint256"}],"stateMutability":"nonpayable"},{"type":"function","name":"enterRaffle","inputs":[],"outputs":[],"stateMutability":"payable"},{"type":"function","name":"prizeWinner","inputs":[],"outputs":[],"stateMutability":"nonpayable"}],"bytecode":{"object":"0x60a060405234801561001057600080fd5b506040516100d43803806100d483398101604081905261002f91610037565b608052610050565b60006020828403121561004957600080fd5b5051919050565b608051606e61006660003960005050606e6000f3fe60806040526004361060265760003560e01c806302c88fe814602b5780632cfcc539146036575b600080fd5b348015603657600080fd5b00fea264697066735822122012db1d835b2e39ace5f943ad5c66137ca0355282d83d348a0bb92e0ac1f1071664736f6c63430008130033","linkReferences":{}},"methodIdentifiers":{"enterRaffle()":"2cfcc539","prizeWinner()":"02c88fe8"},"id":0}