{"abi":[{"type":"constructor","inputs":[{"name":"_priceFeed","type":"address","internalType":"address"}],"stateMutability":"nonpayable"},{"type":"fallback","stateMutability":"payable"},{"type":"receive","stateMutability":"payable"},{"type":"function","name":"MINIMUM_USD","inputs":[],"outputs":[{"name":"","type":"uint256","internalType":"uint256"}],"stateMutability":"view"},{"type":"function","name":"fund","inputs":[],"outputs":[],"stateMutability":"payable"},{"type":"function","name":"getAddressToAmount","inputs":[{"name":"_address","type":"address","internalType":"address"}],"outputs":[{"name":"","type":"uint256","internalType":"uint256"}],"stateMutability":"view"},{"type":"function","name":"getVersion","inputs":[],"outputs":[{"name":"","type":"uint256","internalType":"uint256"}],"stateMutability":"view"},{"type":"function","name":"i_owner","inputs":[],"outputs":[{"name":"","type":"address","internalType":"address"}],"stateMutability":"view"},{"type":"function","name":"withdraw","inputs":[],"outputs":[],"stateMutability":"nonpayable"},{"type":"error","name":"NotOwner","inputs":[]}],"bytecode":{"object":"0x6080604052348015600f57600080fd5b50604051610718380380610718833981016040819052602c91605e565b60038054336001600160a01b031991821617909155600080549091166001600160a01b0392909216919091179055608c565b600060208284031215606f57600080fd5b81516001600160a01b0381168114608557600080fd5b9392505050565b61067d8061009b6000396000f3fe6080604052600436106100595760003560e01c80630d8e6e2c146100705780633ccfd60b146100985780636b69a592146100ad578063b60d428814610068578063c0f8cffc146100c9578063dba6335f146100ff57610068565b3661006857610066610137565b005b610066610137565b34801561007c57600080fd5b50610085610213565b6040519081526020015b60405180910390f35b3480156100a457600080fd5b50610066610290565b3480156100b957600080fd5b50610085674563918244f4000081565b3480156100d557600080fd5b506100856100e43660046104ec565b6001600160a01b031660009081526001602052604090205490565b34801561010b57600080fd5b5060035461011f906001600160a01b031681565b6040516001600160a01b03909116815260200161008f565b600054674563918244f40000906101589034906001600160a01b03166103b7565b10156101ab5760405162461bcd60e51b815260206004820152601b60248201527f596f75206e65656420746f207370656e64206d6f72652045544821000000000060448201526064015b60405180910390fd5b33600090815260016020526040812080543492906101ca90849061052b565b9091555050600280546001810182556000919091527f405787fa12a823e0f2b7631cc41b3ba8828b3321ca811111fa75cd3aa3bb5ace0180546001600160a01b03191633179055565b60008060009054906101000a90046001600160a01b03166001600160a01b03166354fd4d506040518163ffffffff1660e01b8152600401602060405180830381865afa158015610267573d6000803e3d6000fd5b505050506040513d601f19601f8201168201806040525081019061028b919061053e565b905090565b6003546001600160a01b031633146102bb576040516330cd747160e01b815260040160405180910390fd5b60005b60025481101561030f576000600282815481106102dd576102dd610557565b60009182526020808320909101546001600160a01b0316825260019081905260408220919091559190910190506102be565b50604080516000815260208101918290525161032d91600291610472565b50604051600090339047908381818185875af1925050503d8060008114610370576040519150601f19603f3d011682016040523d82523d6000602084013e610375565b606091505b50509050806103b45760405162461bcd60e51b815260206004820152600b60248201526a10d85b1b0819985a5b195960aa1b60448201526064016101a2565b50565b6000806103c3836103ef565b90506000670de0b6b3a76400006103da868461056d565b6103e49190610584565b925050505b92915050565b600080826001600160a01b031663feaf968c6040518163ffffffff1660e01b815260040160a060405180830381865afa158015610430573d6000803e3d6000fd5b505050506040513d601f19601f8201168201806040525081019061045491906105c5565b505050915050806402540be40061046b9190610617565b9392505050565b8280548282559060005260206000209081019282156104c7579160200282015b828111156104c757825182546001600160a01b0319166001600160a01b03909116178255602090920191600190910190610492565b506104d39291506104d7565b5090565b5b808211156104d357600081556001016104d8565b6000602082840312156104fe57600080fd5b81356001600160a01b038116811461046b57600080fd5b634e487b7160e01b600052601160045260246000fd5b808201808211156103e9576103e9610515565b60006020828403121561055057600080fd5b5051919050565b634e487b7160e01b600052603260045260246000fd5b80820281158282048414176103e9576103e9610515565b6000826105a157634e487b7160e01b600052601260045260246000fd5b500490565b805169ffffffffffffffffffff811681146105c057600080fd5b919050565b600080600080600060a086880312156105dd57600080fd5b6105e6866105a6565b6020870151604088015160608901519297509095509350915061060b608087016105a6565b90509295509295909350565b80820260008212600160ff1b8414161561063357610633610515565b81810583148215176103e9576103e961051556fea2646970667358221220c1394bc8c42025478f6fb4435c5577e89bf65c223289cbaa8541ac5f7c8f519d64736f6c634300081a0033","linkReferences":{}},"methodIdentifiers":{"MINIMUM_USD()":"6b69a592","fund()":"b60d4288","getAddressToAmount(address)":"c0f8cffc","getVersion()":"0d8e6e2c","i_owner()":"dba6335f","withdraw()":"3ccfd60b"},"id":28}