{"abi":[{"type":"constructor","inputs":[{"name":"_priceFeed","type":"address","internalType":"address"}],"stateMutability":"nonpayable"},{"type":"fallback","stateMutability":"payable"},{"type":"receive","stateMutability":"payable"},{"type":"function","name":"MINIMUM_USD","inputs":[],"outputs":[{"name":"","type":"uint256","internalType":"uint256"}],"stateMutability":"view"},{"type":"function","name":"fund","inputs":[],"outputs":[],"stateMutability":"payable"},{"type":"function","name":"getAddressToAmount","inputs":[{"name":"_address","type":"address","internalType":"address"}],"outputs":[{"name":"","type":"uint256","internalType":"uint256"}],"stateMutability":"view"},{"type":"function","name":"getFunder","inputs":[{"name":"_index","type":"uint256","internalType":"uint256"}],"outputs":[{"name":"","type":"address","internalType":"address"}],"stateMutability":"view"},{"type":"function","name":"getOwner","inputs":[],"outputs":[{"name":"","type":"address","internalType":"address"}],"stateMutability":"view"},{"type":"function","name":"getVersion","inputs":[],"outputs":[{"name":"","type":"uint256","internalType":"uint256"}],"stateMutability":"view"},{"type":"function","name":"withdraw","inputs":[],"outputs":[],"stateMutability":"nonpayable"},{"type":"error","name":"NotOwner","inputs":[]}],"bytecode":{"object":"0x608060405234801561001057600080fd5b50604051610f52380380610f528339818101604052810190610032919061011c565b33600360006101000a81548173ffffffffffffffffffffffffffffffffffffffff021916908373ffffffffffffffffffffffffffffffffffffffff160217905550806000806101000a81548173ffffffffffffffffffffffffffffffffffffffff021916908373ffffffffffffffffffffffffffffffffffffffff16021790555050610149565b600080fd5b600073ffffffffffffffffffffffffffffffffffffffff82169050919050565b60006100e9826100be565b9050919050565b6100f9816100de565b811461010457600080fd5b50565b600081519050610116816100f0565b92915050565b600060208284031215610132576101316100b9565b5b600061014084828501610107565b91505092915050565b610dfa806101586000396000f3fe6080604052600436106100745760003560e01c8063893d20e81161004e578063893d20e8146100fa578063b60d428814610125578063c0f8cffc1461012f578063d7b4750c1461016c57610083565b80630d8e6e2c1461008d5780633ccfd60b146100b85780636b69a592146100cf57610083565b36610083576100816101a9565b005b61008b6101a9565b005b34801561009957600080fd5b506100a26102e1565b6040516100af919061080f565b60405180910390f35b3480156100c457600080fd5b506100cd610378565b005b3480156100db57600080fd5b506100e46105bb565b6040516100f1919061080f565b60405180910390f35b34801561010657600080fd5b5061010f6105c7565b60405161011c919061086b565b60405180910390f35b61012d6101a9565b005b34801561013b57600080fd5b50610156600480360381019061015191906108b7565b6105f1565b604051610163919061080f565b60405180910390f35b34801561017857600080fd5b50610193600480360381019061018e9190610910565b61063a565b6040516101a0919061086b565b60405180910390f35b674563918244f400006101e560008054906101000a900473ffffffffffffffffffffffffffffffffffffffff163461068290919063ffffffff16565b1015610226576040517f08c379a000000000000000000000000000000000000000000000000000000000815260040161021d9061099a565b60405180910390fd5b34600160003373ffffffffffffffffffffffffffffffffffffffff1673ffffffffffffffffffffffffffffffffffffffff168152602001908152602001600020600082825461027591906109e9565b925050819055506002339080600181540180825580915050600190039060005260206000200160009091909190916101000a81548173ffffffffffffffffffffffffffffffffffffffff021916908373ffffffffffffffffffffffffffffffffffffffff160217905550565b60008060009054906101000a900473ffffffffffffffffffffffffffffffffffffffff1673ffffffffffffffffffffffffffffffffffffffff166354fd4d506040518163ffffffff1660e01b8152600401602060405180830381865afa15801561034f573d6000803e3d6000fd5b505050506040513d601f19601f820116820180604052508101906103739190610a32565b905090565b600360009054906101000a900473ffffffffffffffffffffffffffffffffffffffff1673ffffffffffffffffffffffffffffffffffffffff163373ffffffffffffffffffffffffffffffffffffffff16146103ff576040517f30cd747100000000000000000000000000000000000000000000000000000000815260040160405180910390fd5b60005b6002805490508110156104ab5760006002828154811061042557610424610a5f565b5b9060005260206000200160009054906101000a900473ffffffffffffffffffffffffffffffffffffffff1690506000600160008373ffffffffffffffffffffffffffffffffffffffff1673ffffffffffffffffffffffffffffffffffffffff168152602001908152602001600020819055505080806104a390610a8e565b915050610402565b50600067ffffffffffffffff8111156104c7576104c6610ad6565b5b6040519080825280602002602001820160405280156104f55781602001602082028036833780820191505090505b506002908051906020019061050b92919061074f565b5060003373ffffffffffffffffffffffffffffffffffffffff164760405161053290610b36565b60006040518083038185875af1925050503d806000811461056f576040519150601f19603f3d011682016040523d82523d6000602084013e610574565b606091505b50509050806105b8576040517f08c379a00000000000000000000000000000000000000000000000000000000081526004016105af90610b97565b60405180910390fd5b50565b674563918244f4000081565b6000600360009054906101000a900473ffffffffffffffffffffffffffffffffffffffff16905090565b6000600160008373ffffffffffffffffffffffffffffffffffffffff1673ffffffffffffffffffffffffffffffffffffffff168152602001908152602001600020549050919050565b6000600282815481106106505761064f610a5f565b5b9060005260206000200160009054906101000a900473ffffffffffffffffffffffffffffffffffffffff169050919050565b60008061068e836106be565b90506000670de0b6b3a764000085836106a79190610bb7565b6106b19190610c28565b9050809250505092915050565b6000808273ffffffffffffffffffffffffffffffffffffffff1663feaf968c6040518163ffffffff1660e01b815260040160a060405180830381865afa15801561070c573d6000803e3d6000fd5b505050506040513d601f19601f820116820180604052508101906107309190610cd1565b5050509150506402540be400816107479190610d4c565b915050919050565b8280548282559060005260206000209081019282156107c8579160200282015b828111156107c75782518260006101000a81548173ffffffffffffffffffffffffffffffffffffffff021916908373ffffffffffffffffffffffffffffffffffffffff1602179055509160200191906001019061076f565b5b5090506107d591906107d9565b5090565b5b808211156107f25760008160009055506001016107da565b5090565b6000819050919050565b610809816107f6565b82525050565b60006020820190506108246000830184610800565b92915050565b600073ffffffffffffffffffffffffffffffffffffffff82169050919050565b60006108558261082a565b9050919050565b6108658161084a565b82525050565b6000602082019050610880600083018461085c565b92915050565b600080fd5b6108948161084a565b811461089f57600080fd5b50565b6000813590506108b18161088b565b92915050565b6000602082840312156108cd576108cc610886565b5b60006108db848285016108a2565b91505092915050565b6108ed816107f6565b81146108f857600080fd5b50565b60008135905061090a816108e4565b92915050565b60006020828403121561092657610925610886565b5b6000610934848285016108fb565b91505092915050565b600082825260208201905092915050565b7f596f75206e65656420746f207370656e64206d6f726520455448210000000000600082015250565b6000610984601b8361093d565b915061098f8261094e565b602082019050919050565b600060208201905081810360008301526109b381610977565b9050919050565b7f4e487b7100000000000000000000000000000000000000000000000000000000600052601160045260246000fd5b60006109f4826107f6565b91506109ff836107f6565b9250828201905080821115610a1757610a166109ba565b5b92915050565b600081519050610a2c816108e4565b92915050565b600060208284031215610a4857610a47610886565b5b6000610a5684828501610a1d565b91505092915050565b7f4e487b7100000000000000000000000000000000000000000000000000000000600052603260045260246000fd5b6000610a99826107f6565b91507fffffffffffffffffffffffffffffffffffffffffffffffffffffffffffffffff8203610acb57610aca6109ba565b5b600182019050919050565b7f4e487b7100000000000000000000000000000000000000000000000000000000600052604160045260246000fd5b600081905092915050565b50565b6000610b20600083610b05565b9150610b2b82610b10565b600082019050919050565b6000610b4182610b13565b9150819050919050565b7f43616c6c206661696c6564000000000000000000000000000000000000000000600082015250565b6000610b81600b8361093d565b9150610b8c82610b4b565b602082019050919050565b60006020820190508181036000830152610bb081610b74565b9050919050565b6000610bc2826107f6565b9150610bcd836107f6565b9250828202610bdb816107f6565b91508282048414831517610bf257610bf16109ba565b5b5092915050565b7f4e487b7100000000000000000000000000000000000000000000000000000000600052601260045260246000fd5b6000610c33826107f6565b9150610c3e836107f6565b925082610c4e57610c4d610bf9565b5b828204905092915050565b600069ffffffffffffffffffff82169050919050565b610c7881610c59565b8114610c8357600080fd5b50565b600081519050610c9581610c6f565b92915050565b6000819050919050565b610cae81610c9b565b8114610cb957600080fd5b50565b600081519050610ccb81610ca5565b92915050565b600080600080600060a08688031215610ced57610cec610886565b5b6000610cfb88828901610c86565b9550506020610d0c88828901610cbc565b9450506040610d1d88828901610a1d565b9350506060610d2e88828901610a1d565b9250506080610d3f88828901610c86565b9150509295509295909350565b6000610d5782610c9b565b9150610d6283610c9b565b9250828202610d7081610c9b565b91507f80000000000000000000000000000000000000000000000000000000000000008414600084121615610da857610da76109ba565b5b8282058414831517610dbd57610dbc6109ba565b5b509291505056fea26469706673582212204da4d9794be5132ad539865a9b8abedb1eb0dbdd4ddc175f6b437997c28919d664736f6c63430008130033","linkReferences":{}},"methodIdentifiers":{"MINIMUM_USD()":"6b69a592","fund()":"b60d4288","getAddressToAmount(address)":"c0f8cffc","getFunder(uint256)":"d7b4750c","getOwner()":"893d20e8","getVersion()":"0d8e6e2c","withdraw()":"3ccfd60b"},"id":30}