{"abi":[{"type":"constructor","inputs":[],"stateMutability":"nonpayable"},{"type":"fallback","stateMutability":"payable"},{"type":"receive","stateMutability":"payable"},{"type":"function","name":"MINIMUM_USD","inputs":[],"outputs":[{"name":"","type":"uint256","internalType":"uint256"}],"stateMutability":"view"},{"type":"function","name":"addressToAmountFunded","inputs":[{"name":"","type":"address","internalType":"address"}],"outputs":[{"name":"","type":"uint256","internalType":"uint256"}],"stateMutability":"view"},{"type":"function","name":"fund","inputs":[],"outputs":[],"stateMutability":"payable"},{"type":"function","name":"funders","inputs":[{"name":"","type":"uint256","internalType":"uint256"}],"outputs":[{"name":"","type":"address","internalType":"address"}],"stateMutability":"view"},{"type":"function","name":"getVersion","inputs":[],"outputs":[{"name":"","type":"uint256","internalType":"uint256"}],"stateMutability":"view"},{"type":"function","name":"i_owner","inputs":[],"outputs":[{"name":"","type":"address","internalType":"address"}],"stateMutability":"view"},{"type":"function","name":"withdraw","inputs":[],"outputs":[],"stateMutability":"nonpayable"},{"type":"error","name":"NotOwner","inputs":[]}],"bytecode":{"object":"0x6080604052348015600f57600080fd5b50600280546001600160a01b03191633179055610701806100316000396000f3fe6080604052600436106100745760003560e01c80636b69a5921161004e5780636b69a592146100f5578063b60d428814610083578063dba6335f14610111578063dc0d3dff1461014957610083565b80630d8e6e2c1461008b5780633ccfd60b146100b35780633e47d6f3146100c857610083565b3661008357610081610169565b005b610081610169565b34801561009757600080fd5b506100a0610235565b6040519081526020015b60405180910390f35b3480156100bf57600080fd5b506100816102b7565b3480156100d457600080fd5b506100a06100e336600461054a565b60006020819052908152604090205481565b34801561010157600080fd5b506100a0674563918244f4000081565b34801561011d57600080fd5b50600254610131906001600160a01b031681565b6040516001600160a01b0390911681526020016100aa565b34801561015557600080fd5b5061013161016436600461057a565b6103d6565b674563918244f4000061017b34610400565b10156101ce5760405162461bcd60e51b815260206004820152601b60248201527f596f75206e65656420746f207370656e64206d6f72652045544821000000000060448201526064015b60405180910390fd5b33600090815260208190526040812080543492906101ed9084906105a9565b90915550506001805480820182556000919091527fb10e2d527612073b26eecdfd717e6a320cf44b4afac2b0732d9fcbe2b7fa0cf60180546001600160a01b03191633179055565b60008073694aa1769357215de4fac081bf1f309adc3253069050806001600160a01b03166354fd4d506040518163ffffffff1660e01b8152600401602060405180830381865afa15801561028d573d6000803e3d6000fd5b505050506040513d601f19601f820116820180604052508101906102b191906105c2565b91505090565b6002546001600160a01b031633146102e2576040516330cd747160e01b815260040160405180910390fd5b60005b60015481101561032e57600060018281548110610304576103046105db565b60009182526020808320909101546001600160a01b031682528190526040812055506001016102e5565b50604080516000815260208101918290525161034c916001916104d0565b50604051600090339047908381818185875af1925050503d806000811461038f576040519150601f19603f3d011682016040523d82523d6000602084013e610394565b606091505b50509050806103d35760405162461bcd60e51b815260206004820152600b60248201526a10d85b1b0819985a5b195960aa1b60448201526064016101c5565b50565b600181815481106103e657600080fd5b6000918252602090912001546001600160a01b0316905081565b60008061040b610434565b90506000670de0b6b3a764000061042285846105f1565b61042c9190610608565b949350505050565b60008073694aa1769357215de4fac081bf1f309adc32530690506000816001600160a01b031663feaf968c6040518163ffffffff1660e01b815260040160a060405180830381865afa15801561048e573d6000803e3d6000fd5b505050506040513d601f19601f820116820180604052508101906104b29190610649565b505050915050806402540be4006104c9919061069b565b9250505090565b828054828255906000526020600020908101928215610525579160200282015b8281111561052557825182546001600160a01b0319166001600160a01b039091161782556020909201916001909101906104f0565b50610531929150610535565b5090565b5b808211156105315760008155600101610536565b60006020828403121561055c57600080fd5b81356001600160a01b038116811461057357600080fd5b9392505050565b60006020828403121561058c57600080fd5b5035919050565b634e487b7160e01b600052601160045260246000fd5b808201808211156105bc576105bc610593565b92915050565b6000602082840312156105d457600080fd5b5051919050565b634e487b7160e01b600052603260045260246000fd5b80820281158282048414176105bc576105bc610593565b60008261062557634e487b7160e01b600052601260045260246000fd5b500490565b805169ffffffffffffffffffff8116811461064457600080fd5b919050565b600080600080600060a0868803121561066157600080fd5b61066a8661062a565b6020870151604088015160608901519297509095509350915061068f6080870161062a565b90509295509295909350565b80820260008212600160ff1b841416156106b7576106b7610593565b81810583148215176105bc576105bc61059356fea26469706673582212208e544d918db1f8def753890181bbf55707f8c186ef5b0c564464b38e5ab627f764736f6c634300081a0033","linkReferences":{}},"methodIdentifiers":{"MINIMUM_USD()":"6b69a592","addressToAmountFunded(address)":"3e47d6f3","fund()":"b60d4288","funders(uint256)":"dc0d3dff","getVersion()":"0d8e6e2c","i_owner()":"dba6335f","withdraw()":"3ccfd60b"},"id":25}