{"abi":[{"type":"constructor","inputs":[{"name":"_entranceFee","type":"uint256","internalType":"uint256"},{"name":"interval","type":"uint256","internalType":"uint256"},{"name":"_vrfCoordinator","type":"address","internalType":"address"},{"name":"subscriptionId","type":"uint256","internalType":"uint256"},{"name":"callbackGasLimit","type":"uint32","internalType":"uint32"},{"name":"keyHash","type":"bytes32","internalType":"bytes32"}],"stateMutability":"nonpayable"},{"type":"function","name":"acceptOwnership","inputs":[],"outputs":[],"stateMutability":"nonpayable"},{"type":"function","name":"checkUpkeep","inputs":[{"name":"","type":"bytes","internalType":"bytes"}],"outputs":[{"name":"upkeepNeeded","type":"bool","internalType":"bool"},{"name":"","type":"bytes","internalType":"bytes"}],"stateMutability":"view"},{"type":"function","name":"enterRaffle","inputs":[],"outputs":[],"stateMutability":"payable"},{"type":"function","name":"getEntranceFee","inputs":[],"outputs":[{"name":"","type":"uint256","internalType":"uint256"}],"stateMutability":"view"},{"type":"function","name":"owner","inputs":[],"outputs":[{"name":"","type":"address","internalType":"address"}],"stateMutability":"view"},{"type":"function","name":"performUpkeep","inputs":[{"name":"","type":"bytes","internalType":"bytes"}],"outputs":[],"stateMutability":"nonpayable"},{"type":"function","name":"prizeWinner","inputs":[],"outputs":[],"stateMutability":"nonpayable"},{"type":"function","name":"rawFulfillRandomWords","inputs":[{"name":"requestId","type":"uint256","internalType":"uint256"},{"name":"randomWords","type":"uint256[]","internalType":"uint256[]"}],"outputs":[],"stateMutability":"nonpayable"},{"type":"function","name":"s_vrfCoordinator","inputs":[],"outputs":[{"name":"","type":"address","internalType":"contract IVRFCoordinatorV2Plus"}],"stateMutability":"view"},{"type":"function","name":"setCoordinator","inputs":[{"name":"_vrfCoordinator","type":"address","internalType":"address"}],"outputs":[],"stateMutability":"nonpayable"},{"type":"function","name":"transferOwnership","inputs":[{"name":"to","type":"address","internalType":"address"}],"outputs":[],"stateMutability":"nonpayable"},{"type":"event","name":"CoordinatorSet","inputs":[{"name":"vrfCoordinator","type":"address","indexed":false,"internalType":"address"}],"anonymous":false},{"type":"event","name":"OwnershipTransferRequested","inputs":[{"name":"from","type":"address","indexed":true,"internalType":"address"},{"name":"to","type":"address","indexed":true,"internalType":"address"}],"anonymous":false},{"type":"event","name":"OwnershipTransferred","inputs":[{"name":"from","type":"address","indexed":true,"internalType":"address"},{"name":"to","type":"address","indexed":true,"internalType":"address"}],"anonymous":false},{"type":"event","name":"RaffleEntered","inputs":[],"anonymous":false},{"type":"event","name":"WinnerPicked","inputs":[{"name":"winner","type":"address","indexed":true,"internalType":"address"}],"anonymous":false},{"type":"error","name":"OnlyCoordinatorCanFulfill","inputs":[{"name":"have","type":"address","internalType":"address"},{"name":"want","type":"address","internalType":"address"}]},{"type":"error","name":"OnlyOwnerOrCoordinator","inputs":[{"name":"have","type":"address","internalType":"address"},{"name":"owner","type":"address","internalType":"address"},{"name":"coordinator","type":"address","internalType":"address"}]},{"type":"error","name":"RaffleHasNotEnded","inputs":[]},{"type":"error","name":"RaffleNotOpen","inputs":[]},{"type":"error","name":"Raffle_UpkeepNotNeeded","inputs":[{"name":"balance","type":"uint256","internalType":"uint256"},{"name":"participantsLength","type":"uint256","internalType":"uint256"},{"name":"raffleIsOpen","type":"uint8","internalType":"enum RaffleContract.RaffleIsOpen"}]},{"type":"error","name":"Raffle__NotEnoughCashStranger","inputs":[]},{"type":"error","name":"Raffle__TransactionFailed","inputs":[]},{"type":"error","name":"ZeroAddress","inputs":[]}],"bytecode":{"object":"0x61012060405234801561001157600080fd5b5060405161123b38038061123b833981016040819052610030916101e0565b8333806000816100875760405162461bcd60e51b815260206004820152601860248201527f43616e6e6f7420736574206f776e657220746f207a65726f000000000000000060448201526064015b60405180910390fd5b600080546001600160a01b0319166001600160a01b03848116919091179091558116156100b7576100b781610137565b5050506001600160a01b0381166100e15760405163d92e233d60e01b815260040160405180910390fd5b600280546001600160a01b0319166001600160a01b039290921691909117905560a09490945260e09190915260c0929092525063ffffffff1661010052608052426004556005805460ff60a01b19169055610255565b336001600160a01b0382160361018f5760405162461bcd60e51b815260206004820152601760248201527f43616e6e6f74207472616e7366657220746f2073656c66000000000000000000604482015260640161007e565b600180546001600160a01b0319166001600160a01b0383811691821790925560008054604051929316917fed8889f560326eb138920d842192f0eb3dd22b4f139c87a2c57538e05bae12789190a350565b60008060008060008060c087890312156101f957600080fd5b86516020880151604089015191975095506001600160a01b038116811461021f57600080fd5b60608801516080890151919550935063ffffffff8116811461024057600080fd5b8092505060a087015190509295509295509295565b60805160a05160c05160e05161010051610f806102bb6000396000818161031b01526105a30152600081816102e6015261056e0152600081816102c3015261054b015260008181610217015261066b01526000818160ca015261042f0152610f806000f3fe60806040526004361061009c5760003560e01c80636e04ff0d116100645780636e04ff0d1461014057806379ba50971461016e5780638da5cb5b146101835780638ea98117146101b55780639eccacf6146101d5578063f2fde38b146101f557600080fd5b806302c88fe8146100a157806309bc33a7146100b85780631fe543e3146100f85780632cfcc539146101185780634585e33b14610120575b600080fd5b3480156100ad57600080fd5b506100b6610215565b005b3480156100c457600080fd5b506040517f000000000000000000000000000000000000000000000000000000000000000081526020015b60405180910390f35b34801561010457600080fd5b506100b6610113366004610bd4565b6103d8565b6100b661042d565b34801561012c57600080fd5b506100b661013b366004610c53565b6104d8565b34801561014c57600080fd5b5061016061015b366004610cdb565b610663565b6040516100ef929190610dd2565b34801561017a57600080fd5b506100b6610702565b34801561018f57600080fd5b506000546001600160a01b03165b6040516001600160a01b0390911681526020016100ef565b3480156101c157600080fd5b506100b66101d0366004610df5565b6107ac565b3480156101e157600080fd5b5060025461019d906001600160a01b031681565b34801561020157600080fd5b506100b6610210366004610df5565b61089e565b7f0000000000000000000000000000000000000000000000000000000000000000600454426102449190610e25565b10156102635760405163cdf268ad60e01b815260040160405180910390fd5b6000600554600160a01b900460ff16600181111561028357610283610e4c565b146102a15760405163ee0eb16d60e01b815260040160405180910390fd5b6005805460ff60a01b1916600160a01b1790556002546040805160c0810182527f000000000000000000000000000000000000000000000000000000000000000081527f000000000000000000000000000000000000000000000000000000000000000060208083019190915260038284015263ffffffff7f0000000000000000000000000000000000000000000000000000000000000000166060830152600160808301528251908101909252600082526001600160a01b0390921691639b1c385e9160a0820190610373906108af565b8152506040518263ffffffff1660e01b81526004016103929190610e62565b6020604051808303816000875af11580156103b1573d6000803e3d6000fd5b505050506040513d601f19601f820116820180604052508101906103d59190610ebf565b50565b6002546001600160a01b0316331461041d5760025460405163073e64fd60e21b81523360048201526001600160a01b0390911660248201526044015b60405180910390fd5b610428838383610920565b505050565b7f000000000000000000000000000000000000000000000000000000000000000034101561046e57604051636d8047b560e11b815260040160405180910390fd5b6003805460018101825560009182527fc2575a0e9e593c00f959f8c92f12db2869c3395a3b0502d05e2516446f71f85b0180546001600160a01b031916331790556040517f1536ca10acca207285737d4b92178a80f48ca3ae6622dfe3fcf3b3463340bdf99190a1565b60006104f260405180602001604052806000815250610663565b5090508061052957600354600554604051636ae5e5eb60e01b81526104149247929091600160a01b90910460ff1690600401610ed8565b6005805460ff60a01b1916600160a01b1790556002546040805160c0810182527f000000000000000000000000000000000000000000000000000000000000000081527f000000000000000000000000000000000000000000000000000000000000000060208083019190915260038284015263ffffffff7f0000000000000000000000000000000000000000000000000000000000000000166060830152600160808301528251908101909252600082526001600160a01b0390921691639b1c385e9160a08201906105fb906108af565b8152506040518263ffffffff1660e01b815260040161061a9190610e62565b6020604051808303816000875af1158015610639573d6000803e3d6000fd5b505050506040513d601f19601f8201168201806040525081019061065d9190610ebf565b50505050565b6000606060007f0000000000000000000000000000000000000000000000000000000000000000600454426106989190610e25565b10159050600080600554600160a01b900460ff1660018111156106bd576106bd610e4c565b6003549114915015154715158380156106d35750825b80156106dc5750815b80156106e55750805b604080516020810190915260008152909890975095505050505050565b6001546001600160a01b031633146107555760405162461bcd60e51b815260206004820152601660248201527526bab9ba10313290383937b837b9b2b21037bbb732b960511b6044820152606401610414565b60008054336001600160a01b0319808316821784556001805490911690556040516001600160a01b0390921692909183917f8be0079c531659141344cd1fd0a4f28419497f9722a3daafe3b4186f6b6457e091a350565b6000546001600160a01b031633148015906107d257506002546001600160a01b03163314155b1561082357336107ea6000546001600160a01b031690565b60025460405163061db9c160e01b81526001600160a01b0393841660048201529183166024830152919091166044820152606401610414565b6001600160a01b03811661084a5760405163d92e233d60e01b815260040160405180910390fd5b600280546001600160a01b0319166001600160a01b0383169081179091556040519081527fd1a6a14209a385a964d036e404cb5cfb71f4000cdb03c9366292430787261be69060200160405180910390a150565b6108a6610a5c565b6103d581610ab1565b60607f92fd13387c7fe7befbc38d303d6468778fb9731bc4583f17d92989c6fcfdeaaa826040516024016108e891511515815260200190565b60408051601f198184030181529190526020810180516001600160e01b03166001600160e01b03199093169290921790915292915050565b60038054600091908484848161093857610938610f12565b905060200201356109499190610f28565b8154811061095957610959610f12565b600091825260208083209190910154600580546001600160a81b0319166001600160a01b039092169182179055604080519384529183019182905291519192506109a69160039190610b5a565b50426004556040516000906001600160a01b0383169047908381818185875af1925050503d80600081146109f6576040519150601f19603f3d011682016040523d82523d6000602084013e6109fb565b606091505b5050905080610a1d57604051638dea0f0760e01b815260040160405180910390fd5b6005546040516001600160a01b03909116907f5b690ec4a06fe979403046eaeea5b3ce38524683c3001f662c8b5a829632f7df90600090a25050505050565b6000546001600160a01b03163314610aaf5760405162461bcd60e51b815260206004820152601660248201527527b7363c9031b0b63630b1363290313c9037bbb732b960511b6044820152606401610414565b565b336001600160a01b03821603610b095760405162461bcd60e51b815260206004820152601760248201527f43616e6e6f74207472616e7366657220746f2073656c660000000000000000006044820152606401610414565b600180546001600160a01b0319166001600160a01b0383811691821790925560008054604051929316917fed8889f560326eb138920d842192f0eb3dd22b4f139c87a2c57538e05bae12789190a350565b828054828255906000526020600020908101928215610baf579160200282015b82811115610baf57825182546001600160a01b0319166001600160a01b03909116178255602090920191600190910190610b7a565b50610bbb929150610bbf565b5090565b5b80821115610bbb5760008155600101610bc0565b600080600060408486031215610be957600080fd5b83359250602084013567ffffffffffffffff80821115610c0857600080fd5b818601915086601f830112610c1c57600080fd5b813581811115610c2b57600080fd5b8760208260051b8501011115610c4057600080fd5b6020830194508093505050509250925092565b60008060208385031215610c6657600080fd5b823567ffffffffffffffff80821115610c7e57600080fd5b818501915085601f830112610c9257600080fd5b813581811115610ca157600080fd5b866020828501011115610cb357600080fd5b60209290920196919550909350505050565b634e487b7160e01b600052604160045260246000fd5b600060208284031215610ced57600080fd5b813567ffffffffffffffff80821115610d0557600080fd5b818401915084601f830112610d1957600080fd5b813581811115610d2b57610d2b610cc5565b604051601f8201601f19908116603f01168101908382118183101715610d5357610d53610cc5565b81604052828152876020848701011115610d6c57600080fd5b826020860160208301376000928101602001929092525095945050505050565b6000815180845260005b81811015610db257602081850181015186830182015201610d96565b506000602082860101526020601f19601f83011685010191505092915050565b8215158152604060208201526000610ded6040830184610d8c565b949350505050565b600060208284031215610e0757600080fd5b81356001600160a01b0381168114610e1e57600080fd5b9392505050565b81810381811115610e4657634e487b7160e01b600052601160045260246000fd5b92915050565b634e487b7160e01b600052602160045260246000fd5b60208152815160208201526020820151604082015261ffff60408301511660608201526000606083015163ffffffff80821660808501528060808601511660a0850152505060a083015160c080840152610ded60e0840182610d8c565b600060208284031215610ed157600080fd5b5051919050565b838152602081018390526060810160028310610f0457634e487b7160e01b600052602160045260246000fd5b826040830152949350505050565b634e487b7160e01b600052603260045260246000fd5b600082610f4557634e487b7160e01b600052601260045260246000fd5b50069056fea26469706673582212201f8552b86940656b8fa51a77c01d6ed99a2ea5e8ddccc8e473230f4c4e7de06b64736f6c63430008130033","linkReferences":{}},"methodIdentifiers":{"acceptOwnership()":"79ba5097","checkUpkeep(bytes)":"6e04ff0d","enterRaffle()":"2cfcc539","getEntranceFee()":"09bc33a7","owner()":"8da5cb5b","performUpkeep(bytes)":"4585e33b","prizeWinner()":"02c88fe8","rawFulfillRandomWords(uint256,uint256[])":"1fe543e3","s_vrfCoordinator()":"9eccacf6","setCoordinator(address)":"8ea98117","transferOwnership(address)":"f2fde38b"},"id":35}