{"abi":[{"type":"constructor","inputs":[{"name":"_entranceFee","type":"uint256","internalType":"uint256"},{"name":"interval","type":"uint256","internalType":"uint256"},{"name":"_vrfCoordinator","type":"address","internalType":"address"},{"name":"subscriptionId","type":"uint256","internalType":"uint256"},{"name":"callbackGasLimit","type":"uint32","internalType":"uint32"},{"name":"keyHash","type":"bytes32","internalType":"bytes32"}],"stateMutability":"nonpayable"},{"type":"function","name":"acceptOwnership","inputs":[],"outputs":[],"stateMutability":"nonpayable"},{"type":"function","name":"checkUpkeep","inputs":[{"name":"","type":"bytes","internalType":"bytes"}],"outputs":[{"name":"upkeepNeeded","type":"bool","internalType":"bool"},{"name":"","type":"bytes","internalType":"bytes"}],"stateMutability":"view"},{"type":"function","name":"enterRaffle","inputs":[],"outputs":[],"stateMutability":"payable"},{"type":"function","name":"getEntranceFee","inputs":[],"outputs":[{"name":"","type":"uint256","internalType":"uint256"}],"stateMutability":"view"},{"type":"function","name":"getParticipantsFromIndex","inputs":[{"name":"index","type":"uint256","internalType":"uint256"}],"outputs":[{"name":"","type":"address","internalType":"address"}],"stateMutability":"view"},{"type":"function","name":"getRaffleState","inputs":[],"outputs":[{"name":"","type":"uint8","internalType":"enum RaffleContract.RaffleIsOpen"}],"stateMutability":"view"},{"type":"function","name":"owner","inputs":[],"outputs":[{"name":"","type":"address","internalType":"address"}],"stateMutability":"view"},{"type":"function","name":"performUpkeep","inputs":[{"name":"","type":"bytes","internalType":"bytes"}],"outputs":[],"stateMutability":"nonpayable"},{"type":"function","name":"prizeWinner","inputs":[],"outputs":[],"stateMutability":"nonpayable"},{"type":"function","name":"rawFulfillRandomWords","inputs":[{"name":"requestId","type":"uint256","internalType":"uint256"},{"name":"randomWords","type":"uint256[]","internalType":"uint256[]"}],"outputs":[],"stateMutability":"nonpayable"},{"type":"function","name":"s_vrfCoordinator","inputs":[],"outputs":[{"name":"","type":"address","internalType":"contract IVRFCoordinatorV2Plus"}],"stateMutability":"view"},{"type":"function","name":"setCoordinator","inputs":[{"name":"_vrfCoordinator","type":"address","internalType":"address"}],"outputs":[],"stateMutability":"nonpayable"},{"type":"function","name":"transferOwnership","inputs":[{"name":"to","type":"address","internalType":"address"}],"outputs":[],"stateMutability":"nonpayable"},{"type":"event","name":"CoordinatorSet","inputs":[{"name":"vrfCoordinator","type":"address","indexed":false,"internalType":"address"}],"anonymous":false},{"type":"event","name":"OwnershipTransferRequested","inputs":[{"name":"from","type":"address","indexed":true,"internalType":"address"},{"name":"to","type":"address","indexed":true,"internalType":"address"}],"anonymous":false},{"type":"event","name":"OwnershipTransferred","inputs":[{"name":"from","type":"address","indexed":true,"internalType":"address"},{"name":"to","type":"address","indexed":true,"internalType":"address"}],"anonymous":false},{"type":"event","name":"RaffleEntered","inputs":[{"name":"player","type":"address","indexed":true,"internalType":"address"}],"anonymous":false},{"type":"event","name":"RequestedRaffleWinner","inputs":[{"name":"requestId","type":"uint256","indexed":true,"internalType":"uint256"}],"anonymous":false},{"type":"event","name":"WinnerPicked","inputs":[{"name":"winner","type":"address","indexed":true,"internalType":"address"}],"anonymous":false},{"type":"error","name":"OnlyCoordinatorCanFulfill","inputs":[{"name":"have","type":"address","internalType":"address"},{"name":"want","type":"address","internalType":"address"}]},{"type":"error","name":"OnlyOwnerOrCoordinator","inputs":[{"name":"have","type":"address","internalType":"address"},{"name":"owner","type":"address","internalType":"address"},{"name":"coordinator","type":"address","internalType":"address"}]},{"type":"error","name":"RaffleHasNotEnded","inputs":[]},{"type":"error","name":"Raffle_UpkeepNotNeeded","inputs":[{"name":"balance","type":"uint256","internalType":"uint256"},{"name":"participantsLength","type":"uint256","internalType":"uint256"},{"name":"raffleIsOpen","type":"uint8","internalType":"enum RaffleContract.RaffleIsOpen"}]},{"type":"error","name":"Raffle__NotEnoughCashStranger","inputs":[]},{"type":"error","name":"Raffle__RaffleNotOpen","inputs":[]},{"type":"error","name":"Raffle__TransactionFailed","inputs":[]},{"type":"error","name":"ZeroAddress","inputs":[]}],"bytecode":{"object":"0x6101206040523480156200001257600080fd5b5060405162002617380380620026178339818101604052810190620000389190620004a7565b83338060008073ffffffffffffffffffffffffffffffffffffffff168273ffffffffffffffffffffffffffffffffffffffff1603620000ae576040517f08c379a0000000000000000000000000000000000000000000000000000000008152600401620000a590620005a4565b60405180910390fd5b816000806101000a81548173ffffffffffffffffffffffffffffffffffffffff021916908373ffffffffffffffffffffffffffffffffffffffff160217905550600073ffffffffffffffffffffffffffffffffffffffff168173ffffffffffffffffffffffffffffffffffffffff1614620001355762000134816200025760201b60201c565b5b505050600073ffffffffffffffffffffffffffffffffffffffff168173ffffffffffffffffffffffffffffffffffffffff16036200019f576040517fd92e233d00000000000000000000000000000000000000000000000000000000815260040160405180910390fd5b80600260006101000a81548173ffffffffffffffffffffffffffffffffffffffff021916908373ffffffffffffffffffffffffffffffffffffffff160217905550508460a081815250508260e081815250508060c081815250508163ffffffff166101008163ffffffff16815250508560808181525050426004819055506000600560146101000a81548160ff02191690836001811115620002465762000245620005c6565b5b021790555050505050505062000667565b3373ffffffffffffffffffffffffffffffffffffffff168173ffffffffffffffffffffffffffffffffffffffff1603620002c8576040517f08c379a0000000000000000000000000000000000000000000000000000000008152600401620002bf9062000645565b60405180910390fd5b80600160006101000a81548173ffffffffffffffffffffffffffffffffffffffff021916908373ffffffffffffffffffffffffffffffffffffffff1602179055508073ffffffffffffffffffffffffffffffffffffffff1660008054906101000a900473ffffffffffffffffffffffffffffffffffffffff1673ffffffffffffffffffffffffffffffffffffffff167fed8889f560326eb138920d842192f0eb3dd22b4f139c87a2c57538e05bae127860405160405180910390a350565b600080fd5b6000819050919050565b620003a0816200038b565b8114620003ac57600080fd5b50565b600081519050620003c08162000395565b92915050565b600073ffffffffffffffffffffffffffffffffffffffff82169050919050565b6000620003f382620003c6565b9050919050565b6200040581620003e6565b81146200041157600080fd5b50565b6000815190506200042581620003fa565b92915050565b600063ffffffff82169050919050565b62000446816200042b565b81146200045257600080fd5b50565b60008151905062000466816200043b565b92915050565b6000819050919050565b62000481816200046c565b81146200048d57600080fd5b50565b600081519050620004a18162000476565b92915050565b60008060008060008060c08789031215620004c757620004c662000386565b5b6000620004d789828a01620003af565b9650506020620004ea89828a01620003af565b9550506040620004fd89828a0162000414565b94505060606200051089828a01620003af565b93505060806200052389828a0162000455565b92505060a06200053689828a0162000490565b9150509295509295509295565b600082825260208201905092915050565b7f43616e6e6f7420736574206f776e657220746f207a65726f0000000000000000600082015250565b60006200058c60188362000543565b9150620005998262000554565b602082019050919050565b60006020820190508181036000830152620005bf816200057d565b9050919050565b7f4e487b7100000000000000000000000000000000000000000000000000000000600052602160045260246000fd5b7f43616e6e6f74207472616e7366657220746f2073656c66000000000000000000600082015250565b60006200062d60178362000543565b91506200063a82620005f5565b602082019050919050565b6000602082019050818103600083015262000660816200061e565b9050919050565b60805160a05160c05160e05161010051611f48620006cf6000396000818161046b015261092301526000818161043a01526108f201526000818161041401526108cc0152600081816102cc0152610a1301526000818161056d01526106700152611f486000f3fe6080604052600436106100c25760003560e01c80634585e33b1161007f5780638da5cb5b116100595780638da5cb5b146102225780638ea981171461024d5780639eccacf614610276578063f2fde38b146102a1576100c2565b80634585e33b146101a45780636e04ff0d146101cd57806379ba50971461020b576100c2565b806302c88fe8146100c757806308384f63146100de57806309bc33a71461011b578063115cbaf5146101465780631fe543e3146101715780632cfcc5391461019a575b600080fd5b3480156100d357600080fd5b506100dc6102ca565b005b3480156100ea57600080fd5b5061010560048036038101906101009190611439565b610521565b60405161011291906114a7565b60405180910390f35b34801561012757600080fd5b50610130610569565b60405161013d91906114d1565b60405180910390f35b34801561015257600080fd5b5061015b610591565b6040516101689190611563565b60405180910390f35b34801561017d57600080fd5b50610198600480360381019061019391906115e3565b6105a8565b005b6101a261066e565b005b3480156101b057600080fd5b506101cb60048036038101906101c69190611699565b6107dd565b005b3480156101d957600080fd5b506101f460048036038101906101ef9190611827565b610a0b565b60405161020292919061190a565b60405180910390f35b34801561021757600080fd5b50610220610acd565b005b34801561022e57600080fd5b50610237610c62565b60405161024491906114a7565b60405180910390f35b34801561025957600080fd5b50610274600480360381019061026f9190611966565b610c8b565b005b34801561028257600080fd5b5061028b610e6c565b60405161029891906119f2565b60405180910390f35b3480156102ad57600080fd5b506102c860048036038101906102c39190611966565b610e92565b005b7f0000000000000000000000000000000000000000000000000000000000000000600454426102f99190611a3c565b1015610331576040517fcdf268ad00000000000000000000000000000000000000000000000000000000815260040160405180910390fd5b60006001811115610345576103446114ec565b5b600560149054906101000a900460ff166001811115610367576103666114ec565b5b1461039e576040517fd24a271400000000000000000000000000000000000000000000000000000000815260040160405180910390fd5b6001600560146101000a81548160ff021916908360018111156103c4576103c36114ec565b5b0217905550600260009054906101000a900473ffffffffffffffffffffffffffffffffffffffff1673ffffffffffffffffffffffffffffffffffffffff16639b1c385e6040518060c001604052807f000000000000000000000000000000000000000000000000000000000000000081526020017f00000000000000000000000000000000000000000000000000000000000000008152602001600361ffff1681526020017f000000000000000000000000000000000000000000000000000000000000000063ffffffff168152602001600163ffffffff1681526020016104bc604051806020016040528060001515815250610ea6565b8152506040518263ffffffff1660e01b81526004016104db9190611ba7565b6020604051808303816000875af11580156104fa573d6000803e3d6000fd5b505050506040513d601f19601f8201168201806040525081019061051e9190611bde565b50565b60006003828154811061053757610536611c0b565b5b9060005260206000200160009054906101000a900473ffffffffffffffffffffffffffffffffffffffff169050919050565b60007f0000000000000000000000000000000000000000000000000000000000000000905090565b6000600560149054906101000a900460ff16905090565b600260009054906101000a900473ffffffffffffffffffffffffffffffffffffffff1673ffffffffffffffffffffffffffffffffffffffff163373ffffffffffffffffffffffffffffffffffffffff161461065e5733600260009054906101000a900473ffffffffffffffffffffffffffffffffffffffff166040517f1cf993f4000000000000000000000000000000000000000000000000000000008152600401610655929190611c3a565b60405180910390fd5b610669838383610f3e565b505050565b7f00000000000000000000000000000000000000000000000000000000000000003410156106c8576040517fdb008f6a00000000000000000000000000000000000000000000000000000000815260040160405180910390fd5b600060018111156106dc576106db6114ec565b5b600560149054906101000a900460ff1660018111156106fe576106fd6114ec565b5b14610735576040517fd24a271400000000000000000000000000000000000000000000000000000000815260040160405180910390fd5b6003339080600181540180825580915050600190039060005260206000200160009091909190916101000a81548173ffffffffffffffffffffffffffffffffffffffff021916908373ffffffffffffffffffffffffffffffffffffffff1602179055503373ffffffffffffffffffffffffffffffffffffffff167f634f3211e3a4e43fee5a21ad9f87ca153b300fc78b1c557a2057dbe9c63bcb4760405160405180910390a2565b60006107f760405180602001604052806000815250610a0b565b509050806108545747600380549050600560149054906101000a900460ff166040517f6ae5e5eb00000000000000000000000000000000000000000000000000000000815260040161084b93929190611c63565b60405180910390fd5b6001600560146101000a81548160ff0219169083600181111561087a576108796114ec565b5b02179055506000600260009054906101000a900473ffffffffffffffffffffffffffffffffffffffff1673ffffffffffffffffffffffffffffffffffffffff16639b1c385e6040518060c001604052807f000000000000000000000000000000000000000000000000000000000000000081526020017f00000000000000000000000000000000000000000000000000000000000000008152602001600361ffff1681526020017f000000000000000000000000000000000000000000000000000000000000000063ffffffff168152602001600163ffffffff168152602001610974604051806020016040528060001515815250610ea6565b8152506040518263ffffffff1660e01b81526004016109939190611ba7565b6020604051808303816000875af11580156109b2573d6000803e3d6000fd5b505050506040513d601f19601f820116820180604052508101906109d69190611bde565b9050807fcd6e45c8998311cab7e9d4385596cac867e20a0587194b954fa3a731c93ce78b60405160405180910390a250505050565b6000606060007f000000000000000000000000000000000000000000000000000000000000000060045442610a409190611a3c565b101590506000806001811115610a5957610a586114ec565b5b600560149054906101000a900460ff166001811115610a7b57610a7a6114ec565b5b14905060008060038054905011905060008047119050838015610a9b5750825b8015610aa45750815b8015610aad5750805b955085604051806020016040528060008152509550955050505050915091565b600160009054906101000a900473ffffffffffffffffffffffffffffffffffffffff1673ffffffffffffffffffffffffffffffffffffffff163373ffffffffffffffffffffffffffffffffffffffff1614610b5d576040517f08c379a0000000000000000000000000000000000000000000000000000000008152600401610b5490611cf7565b60405180910390fd5b60008060009054906101000a900473ffffffffffffffffffffffffffffffffffffffff169050336000806101000a81548173ffffffffffffffffffffffffffffffffffffffff021916908373ffffffffffffffffffffffffffffffffffffffff1602179055506000600160006101000a81548173ffffffffffffffffffffffffffffffffffffffff021916908373ffffffffffffffffffffffffffffffffffffffff1602179055503373ffffffffffffffffffffffffffffffffffffffff168173ffffffffffffffffffffffffffffffffffffffff167f8be0079c531659141344cd1fd0a4f28419497f9722a3daafe3b4186f6b6457e060405160405180910390a350565b60008060009054906101000a900473ffffffffffffffffffffffffffffffffffffffff16905090565b610c93610c62565b73ffffffffffffffffffffffffffffffffffffffff163373ffffffffffffffffffffffffffffffffffffffff1614158015610d1c5750600260009054906101000a900473ffffffffffffffffffffffffffffffffffffffff1673ffffffffffffffffffffffffffffffffffffffff163373ffffffffffffffffffffffffffffffffffffffff1614155b15610d8b5733610d2a610c62565b600260009054906101000a900473ffffffffffffffffffffffffffffffffffffffff166040517f061db9c1000000000000000000000000000000000000000000000000000000008152600401610d8293929190611d17565b60405180910390fd5b600073ffffffffffffffffffffffffffffffffffffffff168173ffffffffffffffffffffffffffffffffffffffff1603610df1576040517fd92e233d00000000000000000000000000000000000000000000000000000000815260040160405180910390fd5b80600260006101000a81548173ffffffffffffffffffffffffffffffffffffffff021916908373ffffffffffffffffffffffffffffffffffffffff1602179055507fd1a6a14209a385a964d036e404cb5cfb71f4000cdb03c9366292430787261be681604051610e6191906114a7565b60405180910390a150565b600260009054906101000a900473ffffffffffffffffffffffffffffffffffffffff1681565b610e9a61118c565b610ea38161121c565b50565b60607f92fd13387c7fe7befbc38d303d6468778fb9731bc4583f17d92989c6fcfdeaaa82604051602401610eda9190611d79565b604051602081830303815290604052907bffffffffffffffffffffffffffffffffffffffffffffffffffffffff19166020820180517bffffffffffffffffffffffffffffffffffffffffffffffffffffffff83818316178352505050509050919050565b60006003808054905084846000818110610f5b57610f5a611c0b565b5b90506020020135610f6c9190611dc3565b81548110610f7d57610f7c611c0b565b5b9060005260206000200160009054906101000a900473ffffffffffffffffffffffffffffffffffffffff16905080600560006101000a81548173ffffffffffffffffffffffffffffffffffffffff021916908373ffffffffffffffffffffffffffffffffffffffff1602179055506000600560146101000a81548160ff02191690836001811115611011576110106114ec565b5b0217905550600067ffffffffffffffff811115611031576110306116fc565b5b60405190808252806020026020018201604052801561105f5781602001602082028036833780820191505090505b5060039080519060200190611075929190611348565b504260048190555060008173ffffffffffffffffffffffffffffffffffffffff16476040516110a390611e25565b60006040518083038185875af1925050503d80600081146110e0576040519150601f19603f3d011682016040523d82523d6000602084013e6110e5565b606091505b5050905080611120576040517f8dea0f0700000000000000000000000000000000000000000000000000000000815260040160405180910390fd5b600560009054906101000a900473ffffffffffffffffffffffffffffffffffffffff1673ffffffffffffffffffffffffffffffffffffffff167f5b690ec4a06fe979403046eaeea5b3ce38524683c3001f662c8b5a829632f7df60405160405180910390a25050505050565b60008054906101000a900473ffffffffffffffffffffffffffffffffffffffff1673ffffffffffffffffffffffffffffffffffffffff163373ffffffffffffffffffffffffffffffffffffffff161461121a576040517f08c379a000000000000000000000000000000000000000000000000000000000815260040161121190611e86565b60405180910390fd5b565b3373ffffffffffffffffffffffffffffffffffffffff168173ffffffffffffffffffffffffffffffffffffffff160361128a576040517f08c379a000000000000000000000000000000000000000000000000000000000815260040161128190611ef2565b60405180910390fd5b80600160006101000a81548173ffffffffffffffffffffffffffffffffffffffff021916908373ffffffffffffffffffffffffffffffffffffffff1602179055508073ffffffffffffffffffffffffffffffffffffffff1660008054906101000a900473ffffffffffffffffffffffffffffffffffffffff1673ffffffffffffffffffffffffffffffffffffffff167fed8889f560326eb138920d842192f0eb3dd22b4f139c87a2c57538e05bae127860405160405180910390a350565b8280548282559060005260206000209081019282156113c1579160200282015b828111156113c05782518260006101000a81548173ffffffffffffffffffffffffffffffffffffffff021916908373ffffffffffffffffffffffffffffffffffffffff16021790555091602001919060010190611368565b5b5090506113ce91906113d2565b5090565b5b808211156113eb5760008160009055506001016113d3565b5090565b6000604051905090565b600080fd5b600080fd5b6000819050919050565b61141681611403565b811461142157600080fd5b50565b6000813590506114338161140d565b92915050565b60006020828403121561144f5761144e6113f9565b5b600061145d84828501611424565b91505092915050565b600073ffffffffffffffffffffffffffffffffffffffff82169050919050565b600061149182611466565b9050919050565b6114a181611486565b82525050565b60006020820190506114bc6000830184611498565b92915050565b6114cb81611403565b82525050565b60006020820190506114e660008301846114c2565b92915050565b7f4e487b7100000000000000000000000000000000000000000000000000000000600052602160045260246000fd5b6002811061152c5761152b6114ec565b5b50565b600081905061153d8261151b565b919050565b600061154d8261152f565b9050919050565b61155d81611542565b82525050565b60006020820190506115786000830184611554565b92915050565b600080fd5b600080fd5b600080fd5b60008083601f8401126115a3576115a261157e565b5b8235905067ffffffffffffffff8111156115c0576115bf611583565b5b6020830191508360208202830111156115dc576115db611588565b5b9250929050565b6000806000604084860312156115fc576115fb6113f9565b5b600061160a86828701611424565b935050602084013567ffffffffffffffff81111561162b5761162a6113fe565b5b6116378682870161158d565b92509250509250925092565b60008083601f8401126116595761165861157e565b5b8235905067ffffffffffffffff81111561167657611675611583565b5b60208301915083600182028301111561169257611691611588565b5b9250929050565b600080602083850312156116b0576116af6113f9565b5b600083013567ffffffffffffffff8111156116ce576116cd6113fe565b5b6116da85828601611643565b92509250509250929050565b600080fd5b6000601f19601f8301169050919050565b7f4e487b7100000000000000000000000000000000000000000000000000000000600052604160045260246000fd5b611734826116eb565b810181811067ffffffffffffffff82111715611753576117526116fc565b5b80604052505050565b60006117666113ef565b9050611772828261172b565b919050565b600067ffffffffffffffff821115611792576117916116fc565b5b61179b826116eb565b9050602081019050919050565b82818337600083830152505050565b60006117ca6117c584611777565b61175c565b9050828152602081018484840111156117e6576117e56116e6565b5b6117f18482856117a8565b509392505050565b600082601f83011261180e5761180d61157e565b5b813561181e8482602086016117b7565b91505092915050565b60006020828403121561183d5761183c6113f9565b5b600082013567ffffffffffffffff81111561185b5761185a6113fe565b5b611867848285016117f9565b91505092915050565b60008115159050919050565b61188581611870565b82525050565b600081519050919050565b600082825260208201905092915050565b60005b838110156118c55780820151818401526020810190506118aa565b60008484015250505050565b60006118dc8261188b565b6118e68185611896565b93506118f68185602086016118a7565b6118ff816116eb565b840191505092915050565b600060408201905061191f600083018561187c565b818103602083015261193181846118d1565b90509392505050565b61194381611486565b811461194e57600080fd5b50565b6000813590506119608161193a565b92915050565b60006020828403121561197c5761197b6113f9565b5b600061198a84828501611951565b91505092915050565b6000819050919050565b60006119b86119b36119ae84611466565b611993565b611466565b9050919050565b60006119ca8261199d565b9050919050565b60006119dc826119bf565b9050919050565b6119ec816119d1565b82525050565b6000602082019050611a0760008301846119e3565b92915050565b7f4e487b7100000000000000000000000000000000000000000000000000000000600052601160045260246000fd5b6000611a4782611403565b9150611a5283611403565b9250828203905081811115611a6a57611a69611a0d565b5b92915050565b6000819050919050565b611a8381611a70565b82525050565b611a9281611403565b82525050565b600061ffff82169050919050565b611aaf81611a98565b82525050565b600063ffffffff82169050919050565b611ace81611ab5565b82525050565b600082825260208201905092915050565b6000611af08261188b565b611afa8185611ad4565b9350611b0a8185602086016118a7565b611b13816116eb565b840191505092915050565b600060c083016000830151611b366000860182611a7a565b506020830151611b496020860182611a89565b506040830151611b5c6040860182611aa6565b506060830151611b6f6060860182611ac5565b506080830151611b826080860182611ac5565b5060a083015184820360a0860152611b9a8282611ae5565b9150508091505092915050565b60006020820190508181036000830152611bc18184611b1e565b905092915050565b600081519050611bd88161140d565b92915050565b600060208284031215611bf457611bf36113f9565b5b6000611c0284828501611bc9565b91505092915050565b7f4e487b7100000000000000000000000000000000000000000000000000000000600052603260045260246000fd5b6000604082019050611c4f6000830185611498565b611c5c6020830184611498565b9392505050565b6000606082019050611c7860008301866114c2565b611c8560208301856114c2565b611c926040830184611554565b949350505050565b600082825260208201905092915050565b7f4d7573742062652070726f706f736564206f776e657200000000000000000000600082015250565b6000611ce1601683611c9a565b9150611cec82611cab565b602082019050919050565b60006020820190508181036000830152611d1081611cd4565b9050919050565b6000606082019050611d2c6000830186611498565b611d396020830185611498565b611d466040830184611498565b949350505050565b611d5781611870565b82525050565b602082016000820151611d736000850182611d4e565b50505050565b6000602082019050611d8e6000830184611d5d565b92915050565b7f4e487b7100000000000000000000000000000000000000000000000000000000600052601260045260246000fd5b6000611dce82611403565b9150611dd983611403565b925082611de957611de8611d94565b5b828206905092915050565b600081905092915050565b50565b6000611e0f600083611df4565b9150611e1a82611dff565b600082019050919050565b6000611e3082611e02565b9150819050919050565b7f4f6e6c792063616c6c61626c65206279206f776e657200000000000000000000600082015250565b6000611e70601683611c9a565b9150611e7b82611e3a565b602082019050919050565b60006020820190508181036000830152611e9f81611e63565b9050919050565b7f43616e6e6f74207472616e7366657220746f2073656c66000000000000000000600082015250565b6000611edc601783611c9a565b9150611ee782611ea6565b602082019050919050565b60006020820190508181036000830152611f0b81611ecf565b905091905056fea2646970667358221220e47e0138ffcef362abfaed2d1c738ec6ea82d20394f56b40bc50c369e14a492e64736f6c63430008130033","linkReferences":{}},"methodIdentifiers":{"acceptOwnership()":"79ba5097","checkUpkeep(bytes)":"6e04ff0d","enterRaffle()":"2cfcc539","getEntranceFee()":"09bc33a7","getParticipantsFromIndex(uint256)":"08384f63","getRaffleState()":"115cbaf5","owner()":"8da5cb5b","performUpkeep(bytes)":"4585e33b","prizeWinner()":"02c88fe8","rawFulfillRandomWords(uint256,uint256[])":"1fe543e3","s_vrfCoordinator()":"9eccacf6","setCoordinator(address)":"8ea98117","transferOwnership(address)":"f2fde38b"},"id":44}