{"abi":[{"type":"constructor","inputs":[{"name":"_entranceFee","type":"uint256","internalType":"uint256"},{"name":"interval","type":"uint256","internalType":"uint256"},{"name":"_vrfCoordinator","type":"address","internalType":"address"},{"name":"subscriptionId","type":"uint256","internalType":"uint256"},{"name":"callbackGasLimit","type":"uint32","internalType":"uint32"},{"name":"keyHash","type":"bytes32","internalType":"bytes32"}],"stateMutability":"nonpayable"},{"type":"function","name":"acceptOwnership","inputs":[],"outputs":[],"stateMutability":"nonpayable"},{"type":"function","name":"checkUpkeep","inputs":[{"name":"","type":"bytes","internalType":"bytes"}],"outputs":[{"name":"upkeepNeeded","type":"bool","internalType":"bool"},{"name":"","type":"bytes","internalType":"bytes"}],"stateMutability":"view"},{"type":"function","name":"enterRaffle","inputs":[],"outputs":[],"stateMutability":"payable"},{"type":"function","name":"getEntranceFee","inputs":[],"outputs":[{"name":"","type":"uint256","internalType":"uint256"}],"stateMutability":"view"},{"type":"function","name":"getLastTimestamp","inputs":[],"outputs":[{"name":"","type":"uint256","internalType":"uint256"}],"stateMutability":"view"},{"type":"function","name":"getParticipantsFromIndex","inputs":[{"name":"index","type":"uint256","internalType":"uint256"}],"outputs":[{"name":"","type":"address","internalType":"address"}],"stateMutability":"view"},{"type":"function","name":"getRaffleState","inputs":[],"outputs":[{"name":"","type":"uint8","internalType":"enum RaffleContract.RaffleIsOpen"}],"stateMutability":"view"},{"type":"function","name":"getRecentWinner","inputs":[],"outputs":[{"name":"","type":"address","internalType":"address"}],"stateMutability":"view"},{"type":"function","name":"owner","inputs":[],"outputs":[{"name":"","type":"address","internalType":"address"}],"stateMutability":"view"},{"type":"function","name":"performUpkeep","inputs":[{"name":"","type":"bytes","internalType":"bytes"}],"outputs":[],"stateMutability":"nonpayable"},{"type":"function","name":"prizeWinner","inputs":[],"outputs":[],"stateMutability":"nonpayable"},{"type":"function","name":"rawFulfillRandomWords","inputs":[{"name":"requestId","type":"uint256","internalType":"uint256"},{"name":"randomWords","type":"uint256[]","internalType":"uint256[]"}],"outputs":[],"stateMutability":"nonpayable"},{"type":"function","name":"s_vrfCoordinator","inputs":[],"outputs":[{"name":"","type":"address","internalType":"contract IVRFCoordinatorV2Plus"}],"stateMutability":"view"},{"type":"function","name":"setCoordinator","inputs":[{"name":"_vrfCoordinator","type":"address","internalType":"address"}],"outputs":[],"stateMutability":"nonpayable"},{"type":"function","name":"transferOwnership","inputs":[{"name":"to","type":"address","internalType":"address"}],"outputs":[],"stateMutability":"nonpayable"},{"type":"event","name":"CoordinatorSet","inputs":[{"name":"vrfCoordinator","type":"address","indexed":false,"internalType":"address"}],"anonymous":false},{"type":"event","name":"OwnershipTransferRequested","inputs":[{"name":"from","type":"address","indexed":true,"internalType":"address"},{"name":"to","type":"address","indexed":true,"internalType":"address"}],"anonymous":false},{"type":"event","name":"OwnershipTransferred","inputs":[{"name":"from","type":"address","indexed":true,"internalType":"address"},{"name":"to","type":"address","indexed":true,"internalType":"address"}],"anonymous":false},{"type":"event","name":"RaffleEntered","inputs":[{"name":"player","type":"address","indexed":true,"internalType":"address"}],"anonymous":false},{"type":"event","name":"RequestedRaffleWinner","inputs":[{"name":"requestId","type":"uint256","indexed":true,"internalType":"uint256"}],"anonymous":false},{"type":"event","name":"WinnerPicked","inputs":[{"name":"winner","type":"address","indexed":true,"internalType":"address"}],"anonymous":false},{"type":"error","name":"OnlyCoordinatorCanFulfill","inputs":[{"name":"have","type":"address","internalType":"address"},{"name":"want","type":"address","internalType":"address"}]},{"type":"error","name":"OnlyOwnerOrCoordinator","inputs":[{"name":"have","type":"address","internalType":"address"},{"name":"owner","type":"address","internalType":"address"},{"name":"coordinator","type":"address","internalType":"address"}]},{"type":"error","name":"RaffleHasNotEnded","inputs":[]},{"type":"error","name":"Raffle_UpkeepNotNeeded","inputs":[{"name":"balance","type":"uint256","internalType":"uint256"},{"name":"participantsLength","type":"uint256","internalType":"uint256"},{"name":"raffleIsOpen","type":"uint8","internalType":"enum RaffleContract.RaffleIsOpen"}]},{"type":"error","name":"Raffle__NotEnoughCashStranger","inputs":[]},{"type":"error","name":"Raffle__RaffleNotOpen","inputs":[]},{"type":"error","name":"Raffle__TransactionFailed","inputs":[]},{"type":"error","name":"Raffle__WinnerTransactionFailed","inputs":[]},{"type":"error","name":"ZeroAddress","inputs":[]}],"bytecode":{"object":"0x6101206040523480156200001257600080fd5b50604051620026d4380380620026d48339818101604052810190620000389190620004a7565b83338060008073ffffffffffffffffffffffffffffffffffffffff168273ffffffffffffffffffffffffffffffffffffffff1603620000ae576040517f08c379a0000000000000000000000000000000000000000000000000000000008152600401620000a590620005a4565b60405180910390fd5b816000806101000a81548173ffffffffffffffffffffffffffffffffffffffff021916908373ffffffffffffffffffffffffffffffffffffffff160217905550600073ffffffffffffffffffffffffffffffffffffffff168173ffffffffffffffffffffffffffffffffffffffff1614620001355762000134816200025760201b60201c565b5b505050600073ffffffffffffffffffffffffffffffffffffffff168173ffffffffffffffffffffffffffffffffffffffff16036200019f576040517fd92e233d00000000000000000000000000000000000000000000000000000000815260040160405180910390fd5b80600260006101000a81548173ffffffffffffffffffffffffffffffffffffffff021916908373ffffffffffffffffffffffffffffffffffffffff160217905550508460a081815250508260e081815250508060c081815250508163ffffffff166101008163ffffffff16815250508560808181525050426004819055506000600560146101000a81548160ff02191690836001811115620002465762000245620005c6565b5b021790555050505050505062000667565b3373ffffffffffffffffffffffffffffffffffffffff168173ffffffffffffffffffffffffffffffffffffffff1603620002c8576040517f08c379a0000000000000000000000000000000000000000000000000000000008152600401620002bf9062000645565b60405180910390fd5b80600160006101000a81548173ffffffffffffffffffffffffffffffffffffffff021916908373ffffffffffffffffffffffffffffffffffffffff1602179055508073ffffffffffffffffffffffffffffffffffffffff1660008054906101000a900473ffffffffffffffffffffffffffffffffffffffff1673ffffffffffffffffffffffffffffffffffffffff167fed8889f560326eb138920d842192f0eb3dd22b4f139c87a2c57538e05bae127860405160405180910390a350565b600080fd5b6000819050919050565b620003a0816200038b565b8114620003ac57600080fd5b50565b600081519050620003c08162000395565b92915050565b600073ffffffffffffffffffffffffffffffffffffffff82169050919050565b6000620003f382620003c6565b9050919050565b6200040581620003e6565b81146200041157600080fd5b50565b6000815190506200042581620003fa565b92915050565b600063ffffffff82169050919050565b62000446816200042b565b81146200045257600080fd5b50565b60008151905062000466816200043b565b92915050565b6000819050919050565b62000481816200046c565b81146200048d57600080fd5b50565b600081519050620004a18162000476565b92915050565b60008060008060008060c08789031215620004c757620004c662000386565b5b6000620004d789828a01620003af565b9650506020620004ea89828a01620003af565b9550506040620004fd89828a0162000414565b94505060606200051089828a01620003af565b93505060806200052389828a0162000455565b92505060a06200053689828a0162000490565b9150509295509295509295565b600082825260208201905092915050565b7f43616e6e6f7420736574206f776e657220746f207a65726f0000000000000000600082015250565b60006200058c60188362000543565b9150620005998262000554565b602082019050919050565b60006020820190508181036000830152620005bf816200057d565b9050919050565b7f4e487b7100000000000000000000000000000000000000000000000000000000600052602160045260246000fd5b7f43616e6e6f74207472616e7366657220746f2073656c66000000000000000000600082015250565b60006200062d60178362000543565b91506200063a82620005f5565b602082019050919050565b6000602082019050818103600083015262000660816200061e565b9050919050565b60805160a05160c05160e05161010051612005620006cf600039600081816104e7015261096b0152600081816104b6015261093a01526000818161049001526109140152600081816103480152610ac90152600081816105e901526106ec01526120056000f3fe6080604052600436106100e85760003560e01c80634585e33b1161008a5780638da5cb5b116100595780638da5cb5b1461029e5780638ea98117146102c95780639eccacf6146102f2578063f2fde38b1461031d576100e8565b80634585e33b146101f5578063473f1ddc1461021e5780636e04ff0d1461024957806379ba509714610287576100e8565b8063115cbaf5116100c6578063115cbaf51461016c5780631fe543e3146101975780632cfcc539146101c057806337899770146101ca576100e8565b806302c88fe8146100ed57806308384f631461010457806309bc33a714610141575b600080fd5b3480156100f957600080fd5b50610102610346565b005b34801561011057600080fd5b5061012b600480360381019061012691906114f6565b61059d565b6040516101389190611564565b60405180910390f35b34801561014d57600080fd5b506101566105e5565b604051610163919061158e565b60405180910390f35b34801561017857600080fd5b5061018161060d565b60405161018e9190611620565b60405180910390f35b3480156101a357600080fd5b506101be60048036038101906101b991906116a0565b610624565b005b6101c86106ea565b005b3480156101d657600080fd5b506101df610859565b6040516101ec919061158e565b60405180910390f35b34801561020157600080fd5b5061021c60048036038101906102179190611756565b610863565b005b34801561022a57600080fd5b50610233610a97565b6040516102409190611564565b60405180910390f35b34801561025557600080fd5b50610270600480360381019061026b91906118e4565b610ac1565b60405161027e9291906119c7565b60405180910390f35b34801561029357600080fd5b5061029c610b83565b005b3480156102aa57600080fd5b506102b3610d18565b6040516102c09190611564565b60405180910390f35b3480156102d557600080fd5b506102f060048036038101906102eb9190611a23565b610d41565b005b3480156102fe57600080fd5b50610307610f22565b6040516103149190611aaf565b60405180910390f35b34801561032957600080fd5b50610344600480360381019061033f9190611a23565b610f48565b005b7f0000000000000000000000000000000000000000000000000000000000000000600454426103759190611af9565b10156103ad576040517fcdf268ad00000000000000000000000000000000000000000000000000000000815260040160405180910390fd5b600060018111156103c1576103c06115a9565b5b600560149054906101000a900460ff1660018111156103e3576103e26115a9565b5b1461041a576040517fd24a271400000000000000000000000000000000000000000000000000000000815260040160405180910390fd5b6001600560146101000a81548160ff021916908360018111156104405761043f6115a9565b5b0217905550600260009054906101000a900473ffffffffffffffffffffffffffffffffffffffff1673ffffffffffffffffffffffffffffffffffffffff16639b1c385e6040518060c001604052807f000000000000000000000000000000000000000000000000000000000000000081526020017f00000000000000000000000000000000000000000000000000000000000000008152602001600361ffff1681526020017f000000000000000000000000000000000000000000000000000000000000000063ffffffff168152602001600163ffffffff168152602001610538604051806020016040528060001515815250610f5c565b8152506040518263ffffffff1660e01b81526004016105579190611c64565b6020604051808303816000875af1158015610576573d6000803e3d6000fd5b505050506040513d601f19601f8201168201806040525081019061059a9190611c9b565b50565b6000600382815481106105b3576105b2611cc8565b5b9060005260206000200160009054906101000a900473ffffffffffffffffffffffffffffffffffffffff169050919050565b60007f0000000000000000000000000000000000000000000000000000000000000000905090565b6000600560149054906101000a900460ff16905090565b600260009054906101000a900473ffffffffffffffffffffffffffffffffffffffff1673ffffffffffffffffffffffffffffffffffffffff163373ffffffffffffffffffffffffffffffffffffffff16146106da5733600260009054906101000a900473ffffffffffffffffffffffffffffffffffffffff166040517f1cf993f40000000000000000000000000000000000000000000000000000000081526004016106d1929190611cf7565b60405180910390fd5b6106e5838383610ff4565b505050565b7f0000000000000000000000000000000000000000000000000000000000000000341015610744576040517fdb008f6a00000000000000000000000000000000000000000000000000000000815260040160405180910390fd5b60006001811115610758576107576115a9565b5b600560149054906101000a900460ff16600181111561077a576107796115a9565b5b146107b1576040517fd24a271400000000000000000000000000000000000000000000000000000000815260040160405180910390fd5b6003339080600181540180825580915050600190039060005260206000200160009091909190916101000a81548173ffffffffffffffffffffffffffffffffffffffff021916908373ffffffffffffffffffffffffffffffffffffffff1602179055503373ffffffffffffffffffffffffffffffffffffffff167f634f3211e3a4e43fee5a21ad9f87ca153b300fc78b1c557a2057dbe9c63bcb4760405160405180910390a2565b6000600454905090565b600061087d60405180602001604052806000815250610ac1565b509050806108da5747600380549050600560149054906101000a900460ff166040517f6ae5e5eb0000000000000000000000000000000000000000000000000000000081526004016108d193929190611d20565b60405180910390fd5b6001600560146101000a81548160ff02191690836001811115610900576108ff6115a9565b5b021790555060006040518060c001604052807f000000000000000000000000000000000000000000000000000000000000000081526020017f00000000000000000000000000000000000000000000000000000000000000008152602001600361ffff1681526020017f000000000000000000000000000000000000000000000000000000000000000063ffffffff168152602001600163ffffffff1681526020016109bc604051806020016040528060001515815250610f5c565b81525090506000600260009054906101000a900473ffffffffffffffffffffffffffffffffffffffff1673ffffffffffffffffffffffffffffffffffffffff16639b1c385e836040518263ffffffff1660e01b8152600401610a1e9190611c64565b6020604051808303816000875af1158015610a3d573d6000803e3d6000fd5b505050506040513d601f19601f82011682018060405250810190610a619190611c9b565b9050807fcd6e45c8998311cab7e9d4385596cac867e20a0587194b954fa3a731c93ce78b60405160405180910390a25050505050565b6000600560009054906101000a900473ffffffffffffffffffffffffffffffffffffffff16905090565b6000606060007f000000000000000000000000000000000000000000000000000000000000000060045442610af69190611af9565b101590506000806001811115610b0f57610b0e6115a9565b5b600560149054906101000a900460ff166001811115610b3157610b306115a9565b5b14905060008060038054905011905060008047119050838015610b515750825b8015610b5a5750815b8015610b635750805b955085604051806020016040528060008152509550955050505050915091565b600160009054906101000a900473ffffffffffffffffffffffffffffffffffffffff1673ffffffffffffffffffffffffffffffffffffffff163373ffffffffffffffffffffffffffffffffffffffff1614610c13576040517f08c379a0000000000000000000000000000000000000000000000000000000008152600401610c0a90611db4565b60405180910390fd5b60008060009054906101000a900473ffffffffffffffffffffffffffffffffffffffff169050336000806101000a81548173ffffffffffffffffffffffffffffffffffffffff021916908373ffffffffffffffffffffffffffffffffffffffff1602179055506000600160006101000a81548173ffffffffffffffffffffffffffffffffffffffff021916908373ffffffffffffffffffffffffffffffffffffffff1602179055503373ffffffffffffffffffffffffffffffffffffffff168173ffffffffffffffffffffffffffffffffffffffff167f8be0079c531659141344cd1fd0a4f28419497f9722a3daafe3b4186f6b6457e060405160405180910390a350565b60008060009054906101000a900473ffffffffffffffffffffffffffffffffffffffff16905090565b610d49610d18565b73ffffffffffffffffffffffffffffffffffffffff163373ffffffffffffffffffffffffffffffffffffffff1614158015610dd25750600260009054906101000a900473ffffffffffffffffffffffffffffffffffffffff1673ffffffffffffffffffffffffffffffffffffffff163373ffffffffffffffffffffffffffffffffffffffff1614155b15610e415733610de0610d18565b600260009054906101000a900473ffffffffffffffffffffffffffffffffffffffff166040517f061db9c1000000000000000000000000000000000000000000000000000000008152600401610e3893929190611dd4565b60405180910390fd5b600073ffffffffffffffffffffffffffffffffffffffff168173ffffffffffffffffffffffffffffffffffffffff1603610ea7576040517fd92e233d00000000000000000000000000000000000000000000000000000000815260040160405180910390fd5b80600260006101000a81548173ffffffffffffffffffffffffffffffffffffffff021916908373ffffffffffffffffffffffffffffffffffffffff1602179055507fd1a6a14209a385a964d036e404cb5cfb71f4000cdb03c9366292430787261be681604051610f179190611564565b60405180910390a150565b600260009054906101000a900473ffffffffffffffffffffffffffffffffffffffff1681565b610f50611249565b610f59816112d9565b50565b60607f92fd13387c7fe7befbc38d303d6468778fb9731bc4583f17d92989c6fcfdeaaa82604051602401610f909190611e36565b604051602081830303815290604052907bffffffffffffffffffffffffffffffffffffffffffffffffffffffff19166020820180517bffffffffffffffffffffffffffffffffffffffffffffffffffffffff83818316178352505050509050919050565b6000600380549050838360008181106110105761100f611cc8565b5b905060200201356110219190611e80565b905060006003828154811061103957611038611cc8565b5b9060005260206000200160009054906101000a900473ffffffffffffffffffffffffffffffffffffffff16905080600560006101000a81548173ffffffffffffffffffffffffffffffffffffffff021916908373ffffffffffffffffffffffffffffffffffffffff1602179055506000600560146101000a81548160ff021916908360018111156110cd576110cc6115a9565b5b0217905550600067ffffffffffffffff8111156110ed576110ec6117b9565b5b60405190808252806020026020018201604052801561111b5781602001602082028036833780820191505090505b5060039080519060200190611131929190611405565b5042600481905550600560009054906101000a900473ffffffffffffffffffffffffffffffffffffffff1673ffffffffffffffffffffffffffffffffffffffff167f5b690ec4a06fe979403046eaeea5b3ce38524683c3001f662c8b5a829632f7df60405160405180910390a260008173ffffffffffffffffffffffffffffffffffffffff16476040516111c490611ee2565b60006040518083038185875af1925050503d8060008114611201576040519150601f19603f3d011682016040523d82523d6000602084013e611206565b606091505b5050905080611241576040517f0e3fc90b00000000000000000000000000000000000000000000000000000000815260040160405180910390fd5b505050505050565b60008054906101000a900473ffffffffffffffffffffffffffffffffffffffff1673ffffffffffffffffffffffffffffffffffffffff163373ffffffffffffffffffffffffffffffffffffffff16146112d7576040517f08c379a00000000000000000000000000000000000000000000000000000000081526004016112ce90611f43565b60405180910390fd5b565b3373ffffffffffffffffffffffffffffffffffffffff168173ffffffffffffffffffffffffffffffffffffffff1603611347576040517f08c379a000000000000000000000000000000000000000000000000000000000815260040161133e90611faf565b60405180910390fd5b80600160006101000a81548173ffffffffffffffffffffffffffffffffffffffff021916908373ffffffffffffffffffffffffffffffffffffffff1602179055508073ffffffffffffffffffffffffffffffffffffffff1660008054906101000a900473ffffffffffffffffffffffffffffffffffffffff1673ffffffffffffffffffffffffffffffffffffffff167fed8889f560326eb138920d842192f0eb3dd22b4f139c87a2c57538e05bae127860405160405180910390a350565b82805482825590600052602060002090810192821561147e579160200282015b8281111561147d5782518260006101000a81548173ffffffffffffffffffffffffffffffffffffffff021916908373ffffffffffffffffffffffffffffffffffffffff16021790555091602001919060010190611425565b5b50905061148b919061148f565b5090565b5b808211156114a8576000816000905550600101611490565b5090565b6000604051905090565b600080fd5b600080fd5b6000819050919050565b6114d3816114c0565b81146114de57600080fd5b50565b6000813590506114f0816114ca565b92915050565b60006020828403121561150c5761150b6114b6565b5b600061151a848285016114e1565b91505092915050565b600073ffffffffffffffffffffffffffffffffffffffff82169050919050565b600061154e82611523565b9050919050565b61155e81611543565b82525050565b60006020820190506115796000830184611555565b92915050565b611588816114c0565b82525050565b60006020820190506115a3600083018461157f565b92915050565b7f4e487b7100000000000000000000000000000000000000000000000000000000600052602160045260246000fd5b600281106115e9576115e86115a9565b5b50565b60008190506115fa826115d8565b919050565b600061160a826115ec565b9050919050565b61161a816115ff565b82525050565b60006020820190506116356000830184611611565b92915050565b600080fd5b600080fd5b600080fd5b60008083601f8401126116605761165f61163b565b5b8235905067ffffffffffffffff81111561167d5761167c611640565b5b60208301915083602082028301111561169957611698611645565b5b9250929050565b6000806000604084860312156116b9576116b86114b6565b5b60006116c7868287016114e1565b935050602084013567ffffffffffffffff8111156116e8576116e76114bb565b5b6116f48682870161164a565b92509250509250925092565b60008083601f8401126117165761171561163b565b5b8235905067ffffffffffffffff81111561173357611732611640565b5b60208301915083600182028301111561174f5761174e611645565b5b9250929050565b6000806020838503121561176d5761176c6114b6565b5b600083013567ffffffffffffffff81111561178b5761178a6114bb565b5b61179785828601611700565b92509250509250929050565b600080fd5b6000601f19601f8301169050919050565b7f4e487b7100000000000000000000000000000000000000000000000000000000600052604160045260246000fd5b6117f1826117a8565b810181811067ffffffffffffffff821117156118105761180f6117b9565b5b80604052505050565b60006118236114ac565b905061182f82826117e8565b919050565b600067ffffffffffffffff82111561184f5761184e6117b9565b5b611858826117a8565b9050602081019050919050565b82818337600083830152505050565b600061188761188284611834565b611819565b9050828152602081018484840111156118a3576118a26117a3565b5b6118ae848285611865565b509392505050565b600082601f8301126118cb576118ca61163b565b5b81356118db848260208601611874565b91505092915050565b6000602082840312156118fa576118f96114b6565b5b600082013567ffffffffffffffff811115611918576119176114bb565b5b611924848285016118b6565b91505092915050565b60008115159050919050565b6119428161192d565b82525050565b600081519050919050565b600082825260208201905092915050565b60005b83811015611982578082015181840152602081019050611967565b60008484015250505050565b600061199982611948565b6119a38185611953565b93506119b3818560208601611964565b6119bc816117a8565b840191505092915050565b60006040820190506119dc6000830185611939565b81810360208301526119ee818461198e565b90509392505050565b611a0081611543565b8114611a0b57600080fd5b50565b600081359050611a1d816119f7565b92915050565b600060208284031215611a3957611a386114b6565b5b6000611a4784828501611a0e565b91505092915050565b6000819050919050565b6000611a75611a70611a6b84611523565b611a50565b611523565b9050919050565b6000611a8782611a5a565b9050919050565b6000611a9982611a7c565b9050919050565b611aa981611a8e565b82525050565b6000602082019050611ac46000830184611aa0565b92915050565b7f4e487b7100000000000000000000000000000000000000000000000000000000600052601160045260246000fd5b6000611b04826114c0565b9150611b0f836114c0565b9250828203905081811115611b2757611b26611aca565b5b92915050565b6000819050919050565b611b4081611b2d565b82525050565b611b4f816114c0565b82525050565b600061ffff82169050919050565b611b6c81611b55565b82525050565b600063ffffffff82169050919050565b611b8b81611b72565b82525050565b600082825260208201905092915050565b6000611bad82611948565b611bb78185611b91565b9350611bc7818560208601611964565b611bd0816117a8565b840191505092915050565b600060c083016000830151611bf36000860182611b37565b506020830151611c066020860182611b46565b506040830151611c196040860182611b63565b506060830151611c2c6060860182611b82565b506080830151611c3f6080860182611b82565b5060a083015184820360a0860152611c578282611ba2565b9150508091505092915050565b60006020820190508181036000830152611c7e8184611bdb565b905092915050565b600081519050611c95816114ca565b92915050565b600060208284031215611cb157611cb06114b6565b5b6000611cbf84828501611c86565b91505092915050565b7f4e487b7100000000000000000000000000000000000000000000000000000000600052603260045260246000fd5b6000604082019050611d0c6000830185611555565b611d196020830184611555565b9392505050565b6000606082019050611d35600083018661157f565b611d42602083018561157f565b611d4f6040830184611611565b949350505050565b600082825260208201905092915050565b7f4d7573742062652070726f706f736564206f776e657200000000000000000000600082015250565b6000611d9e601683611d57565b9150611da982611d68565b602082019050919050565b60006020820190508181036000830152611dcd81611d91565b9050919050565b6000606082019050611de96000830186611555565b611df66020830185611555565b611e036040830184611555565b949350505050565b611e148161192d565b82525050565b602082016000820151611e306000850182611e0b565b50505050565b6000602082019050611e4b6000830184611e1a565b92915050565b7f4e487b7100000000000000000000000000000000000000000000000000000000600052601260045260246000fd5b6000611e8b826114c0565b9150611e96836114c0565b925082611ea657611ea5611e51565b5b828206905092915050565b600081905092915050565b50565b6000611ecc600083611eb1565b9150611ed782611ebc565b600082019050919050565b6000611eed82611ebf565b9150819050919050565b7f4f6e6c792063616c6c61626c65206279206f776e657200000000000000000000600082015250565b6000611f2d601683611d57565b9150611f3882611ef7565b602082019050919050565b60006020820190508181036000830152611f5c81611f20565b9050919050565b7f43616e6e6f74207472616e7366657220746f2073656c66000000000000000000600082015250565b6000611f99601783611d57565b9150611fa482611f63565b602082019050919050565b60006020820190508181036000830152611fc881611f8c565b905091905056fea26469706673582212202983e9e2fe78907ab3dcb07ec54b269a6462e65983009e26839a6d1d0075557464736f6c63430008130033","linkReferences":{}},"methodIdentifiers":{"acceptOwnership()":"79ba5097","checkUpkeep(bytes)":"6e04ff0d","enterRaffle()":"2cfcc539","getEntranceFee()":"09bc33a7","getLastTimestamp()":"37899770","getParticipantsFromIndex(uint256)":"08384f63","getRaffleState()":"115cbaf5","getRecentWinner()":"473f1ddc","owner()":"8da5cb5b","performUpkeep(bytes)":"4585e33b","prizeWinner()":"02c88fe8","rawFulfillRandomWords(uint256,uint256[])":"1fe543e3","s_vrfCoordinator()":"9eccacf6","setCoordinator(address)":"8ea98117","transferOwnership(address)":"f2fde38b"},"id":44}