{"abi":[{"type":"constructor","inputs":[{"name":"_entranceFee","type":"uint256","internalType":"uint256"},{"name":"interval","type":"uint256","internalType":"uint256"},{"name":"_vrfCoordinator","type":"address","internalType":"address"},{"name":"subscriptionId","type":"uint256","internalType":"uint256"},{"name":"callbackGasLimit","type":"uint32","internalType":"uint32"},{"name":"keyHash","type":"bytes32","internalType":"bytes32"}],"stateMutability":"nonpayable"},{"type":"function","name":"acceptOwnership","inputs":[],"outputs":[],"stateMutability":"nonpayable"},{"type":"function","name":"checkUpkeep","inputs":[{"name":"","type":"bytes","internalType":"bytes"}],"outputs":[{"name":"upkeepNeeded","type":"bool","internalType":"bool"},{"name":"","type":"bytes","internalType":"bytes"}],"stateMutability":"view"},{"type":"function","name":"enterRaffle","inputs":[],"outputs":[],"stateMutability":"payable"},{"type":"function","name":"getEntranceFee","inputs":[],"outputs":[{"name":"","type":"uint256","internalType":"uint256"}],"stateMutability":"view"},{"type":"function","name":"getLastTimestamp","inputs":[],"outputs":[{"name":"","type":"uint256","internalType":"uint256"}],"stateMutability":"view"},{"type":"function","name":"getParticipantsFromIndex","inputs":[{"name":"index","type":"uint256","internalType":"uint256"}],"outputs":[{"name":"","type":"address","internalType":"address"}],"stateMutability":"view"},{"type":"function","name":"getRaffleState","inputs":[],"outputs":[{"name":"","type":"uint8","internalType":"enum RaffleContract.RaffleIsOpen"}],"stateMutability":"view"},{"type":"function","name":"getRecentWinner","inputs":[],"outputs":[{"name":"","type":"address","internalType":"address"}],"stateMutability":"view"},{"type":"function","name":"owner","inputs":[],"outputs":[{"name":"","type":"address","internalType":"address"}],"stateMutability":"view"},{"type":"function","name":"performUpkeep","inputs":[{"name":"","type":"bytes","internalType":"bytes"}],"outputs":[],"stateMutability":"nonpayable"},{"type":"function","name":"prizeWinner","inputs":[],"outputs":[],"stateMutability":"nonpayable"},{"type":"function","name":"rawFulfillRandomWords","inputs":[{"name":"requestId","type":"uint256","internalType":"uint256"},{"name":"randomWords","type":"uint256[]","internalType":"uint256[]"}],"outputs":[],"stateMutability":"nonpayable"},{"type":"function","name":"s_vrfCoordinator","inputs":[],"outputs":[{"name":"","type":"address","internalType":"contract IVRFCoordinatorV2Plus"}],"stateMutability":"view"},{"type":"function","name":"setCoordinator","inputs":[{"name":"_vrfCoordinator","type":"address","internalType":"address"}],"outputs":[],"stateMutability":"nonpayable"},{"type":"function","name":"transferOwnership","inputs":[{"name":"to","type":"address","internalType":"address"}],"outputs":[],"stateMutability":"nonpayable"},{"type":"event","name":"CoordinatorSet","inputs":[{"name":"vrfCoordinator","type":"address","indexed":false,"internalType":"address"}],"anonymous":false},{"type":"event","name":"OwnershipTransferRequested","inputs":[{"name":"from","type":"address","indexed":true,"internalType":"address"},{"name":"to","type":"address","indexed":true,"internalType":"address"}],"anonymous":false},{"type":"event","name":"OwnershipTransferred","inputs":[{"name":"from","type":"address","indexed":true,"internalType":"address"},{"name":"to","type":"address","indexed":true,"internalType":"address"}],"anonymous":false},{"type":"event","name":"RaffleEntered","inputs":[{"name":"player","type":"address","indexed":true,"internalType":"address"}],"anonymous":false},{"type":"event","name":"RequestedRaffleWinner","inputs":[{"name":"requestId","type":"uint256","indexed":true,"internalType":"uint256"}],"anonymous":false},{"type":"event","name":"WinnerPicked","inputs":[{"name":"winner","type":"address","indexed":true,"internalType":"address"}],"anonymous":false},{"type":"error","name":"OnlyCoordinatorCanFulfill","inputs":[{"name":"have","type":"address","internalType":"address"},{"name":"want","type":"address","internalType":"address"}]},{"type":"error","name":"OnlyOwnerOrCoordinator","inputs":[{"name":"have","type":"address","internalType":"address"},{"name":"owner","type":"address","internalType":"address"},{"name":"coordinator","type":"address","internalType":"address"}]},{"type":"error","name":"RaffleHasNotEnded","inputs":[]},{"type":"error","name":"Raffle_UpkeepNotNeeded","inputs":[{"name":"balance","type":"uint256","internalType":"uint256"},{"name":"participantsLength","type":"uint256","internalType":"uint256"},{"name":"raffleIsOpen","type":"uint8","internalType":"enum RaffleContract.RaffleIsOpen"}]},{"type":"error","name":"Raffle__NotEnoughCashStranger","inputs":[]},{"type":"error","name":"Raffle__RaffleNotOpen","inputs":[]},{"type":"error","name":"Raffle__TransactionFailed","inputs":[]},{"type":"error","name":"ZeroAddress","inputs":[]}],"bytecode":{"object":"0x6101206040523480156200001257600080fd5b50604051620026c7380380620026c78339818101604052810190620000389190620004a7565b83338060008073ffffffffffffffffffffffffffffffffffffffff168273ffffffffffffffffffffffffffffffffffffffff1603620000ae576040517f08c379a0000000000000000000000000000000000000000000000000000000008152600401620000a590620005a4565b60405180910390fd5b816000806101000a81548173ffffffffffffffffffffffffffffffffffffffff021916908373ffffffffffffffffffffffffffffffffffffffff160217905550600073ffffffffffffffffffffffffffffffffffffffff168173ffffffffffffffffffffffffffffffffffffffff1614620001355762000134816200025760201b60201c565b5b505050600073ffffffffffffffffffffffffffffffffffffffff168173ffffffffffffffffffffffffffffffffffffffff16036200019f576040517fd92e233d00000000000000000000000000000000000000000000000000000000815260040160405180910390fd5b80600260006101000a81548173ffffffffffffffffffffffffffffffffffffffff021916908373ffffffffffffffffffffffffffffffffffffffff160217905550508460a081815250508260e081815250508060c081815250508163ffffffff166101008163ffffffff16815250508560808181525050426004819055506000600560146101000a81548160ff02191690836001811115620002465762000245620005c6565b5b021790555050505050505062000667565b3373ffffffffffffffffffffffffffffffffffffffff168173ffffffffffffffffffffffffffffffffffffffff1603620002c8576040517f08c379a0000000000000000000000000000000000000000000000000000000008152600401620002bf9062000645565b60405180910390fd5b80600160006101000a81548173ffffffffffffffffffffffffffffffffffffffff021916908373ffffffffffffffffffffffffffffffffffffffff1602179055508073ffffffffffffffffffffffffffffffffffffffff1660008054906101000a900473ffffffffffffffffffffffffffffffffffffffff1673ffffffffffffffffffffffffffffffffffffffff167fed8889f560326eb138920d842192f0eb3dd22b4f139c87a2c57538e05bae127860405160405180910390a350565b600080fd5b6000819050919050565b620003a0816200038b565b8114620003ac57600080fd5b50565b600081519050620003c08162000395565b92915050565b600073ffffffffffffffffffffffffffffffffffffffff82169050919050565b6000620003f382620003c6565b9050919050565b6200040581620003e6565b81146200041157600080fd5b50565b6000815190506200042581620003fa565b92915050565b600063ffffffff82169050919050565b62000446816200042b565b81146200045257600080fd5b50565b60008151905062000466816200043b565b92915050565b6000819050919050565b62000481816200046c565b81146200048d57600080fd5b50565b600081519050620004a18162000476565b92915050565b60008060008060008060c08789031215620004c757620004c662000386565b5b6000620004d789828a01620003af565b9650506020620004ea89828a01620003af565b9550506040620004fd89828a0162000414565b94505060606200051089828a01620003af565b93505060806200052389828a0162000455565b92505060a06200053689828a0162000490565b9150509295509295509295565b600082825260208201905092915050565b7f43616e6e6f7420736574206f776e657220746f207a65726f0000000000000000600082015250565b60006200058c60188362000543565b9150620005998262000554565b602082019050919050565b60006020820190508181036000830152620005bf816200057d565b9050919050565b7f4e487b7100000000000000000000000000000000000000000000000000000000600052602160045260246000fd5b7f43616e6e6f74207472616e7366657220746f2073656c66000000000000000000600082015250565b60006200062d60178362000543565b91506200063a82620005f5565b602082019050919050565b6000602082019050818103600083015262000660816200061e565b9050919050565b60805160a05160c05160e05161010051611ff8620006cf600039600081816104e701526109a90152600081816104b6015261097801526000818161049001526109520152600081816103480152610ac30152600081816105e901526106ec0152611ff86000f3fe6080604052600436106100e85760003560e01c80634585e33b1161008a5780638da5cb5b116100595780638da5cb5b1461029e5780638ea98117146102c95780639eccacf6146102f2578063f2fde38b1461031d576100e8565b80634585e33b146101f5578063473f1ddc1461021e5780636e04ff0d1461024957806379ba509714610287576100e8565b8063115cbaf5116100c6578063115cbaf51461016c5780631fe543e3146101975780632cfcc539146101c057806337899770146101ca576100e8565b806302c88fe8146100ed57806308384f631461010457806309bc33a714610141575b600080fd5b3480156100f957600080fd5b50610102610346565b005b34801561011057600080fd5b5061012b600480360381019061012691906114e9565b61059d565b6040516101389190611557565b60405180910390f35b34801561014d57600080fd5b506101566105e5565b6040516101639190611581565b60405180910390f35b34801561017857600080fd5b5061018161060d565b60405161018e9190611613565b60405180910390f35b3480156101a357600080fd5b506101be60048036038101906101b99190611693565b610624565b005b6101c86106ea565b005b3480156101d657600080fd5b506101df610859565b6040516101ec9190611581565b60405180910390f35b34801561020157600080fd5b5061021c60048036038101906102179190611749565b610863565b005b34801561022a57600080fd5b50610233610a91565b6040516102409190611557565b60405180910390f35b34801561025557600080fd5b50610270600480360381019061026b91906118d7565b610abb565b60405161027e9291906119ba565b60405180910390f35b34801561029357600080fd5b5061029c610b7d565b005b3480156102aa57600080fd5b506102b3610d12565b6040516102c09190611557565b60405180910390f35b3480156102d557600080fd5b506102f060048036038101906102eb9190611a16565b610d3b565b005b3480156102fe57600080fd5b50610307610f1c565b6040516103149190611aa2565b60405180910390f35b34801561032957600080fd5b50610344600480360381019061033f9190611a16565b610f42565b005b7f0000000000000000000000000000000000000000000000000000000000000000600454426103759190611aec565b10156103ad576040517fcdf268ad00000000000000000000000000000000000000000000000000000000815260040160405180910390fd5b600060018111156103c1576103c061159c565b5b600560149054906101000a900460ff1660018111156103e3576103e261159c565b5b1461041a576040517fd24a271400000000000000000000000000000000000000000000000000000000815260040160405180910390fd5b6001600560146101000a81548160ff021916908360018111156104405761043f61159c565b5b0217905550600260009054906101000a900473ffffffffffffffffffffffffffffffffffffffff1673ffffffffffffffffffffffffffffffffffffffff16639b1c385e6040518060c001604052807f000000000000000000000000000000000000000000000000000000000000000081526020017f00000000000000000000000000000000000000000000000000000000000000008152602001600361ffff1681526020017f000000000000000000000000000000000000000000000000000000000000000063ffffffff168152602001600163ffffffff168152602001610538604051806020016040528060001515815250610f56565b8152506040518263ffffffff1660e01b81526004016105579190611c57565b6020604051808303816000875af1158015610576573d6000803e3d6000fd5b505050506040513d601f19601f8201168201806040525081019061059a9190611c8e565b50565b6000600382815481106105b3576105b2611cbb565b5b9060005260206000200160009054906101000a900473ffffffffffffffffffffffffffffffffffffffff169050919050565b60007f0000000000000000000000000000000000000000000000000000000000000000905090565b6000600560149054906101000a900460ff16905090565b600260009054906101000a900473ffffffffffffffffffffffffffffffffffffffff1673ffffffffffffffffffffffffffffffffffffffff163373ffffffffffffffffffffffffffffffffffffffff16146106da5733600260009054906101000a900473ffffffffffffffffffffffffffffffffffffffff166040517f1cf993f40000000000000000000000000000000000000000000000000000000081526004016106d1929190611cea565b60405180910390fd5b6106e5838383610fee565b505050565b7f0000000000000000000000000000000000000000000000000000000000000000341015610744576040517fdb008f6a00000000000000000000000000000000000000000000000000000000815260040160405180910390fd5b600060018111156107585761075761159c565b5b600560149054906101000a900460ff16600181111561077a5761077961159c565b5b146107b1576040517fd24a271400000000000000000000000000000000000000000000000000000000815260040160405180910390fd5b6003339080600181540180825580915050600190039060005260206000200160009091909190916101000a81548173ffffffffffffffffffffffffffffffffffffffff021916908373ffffffffffffffffffffffffffffffffffffffff1602179055503373ffffffffffffffffffffffffffffffffffffffff167f634f3211e3a4e43fee5a21ad9f87ca153b300fc78b1c557a2057dbe9c63bcb4760405160405180910390a2565b6000600454905090565b600061087d60405180602001604052806000815250610abb565b509050806108da5747600380549050600560149054906101000a900460ff166040517f6ae5e5eb0000000000000000000000000000000000000000000000000000000081526004016108d193929190611d13565b60405180910390fd5b6001600560146101000a81548160ff02191690836001811115610900576108ff61159c565b5b02179055506000600260009054906101000a900473ffffffffffffffffffffffffffffffffffffffff1673ffffffffffffffffffffffffffffffffffffffff16639b1c385e6040518060c001604052807f000000000000000000000000000000000000000000000000000000000000000081526020017f00000000000000000000000000000000000000000000000000000000000000008152602001600361ffff1681526020017f000000000000000000000000000000000000000000000000000000000000000063ffffffff168152602001600163ffffffff1681526020016109fa604051806020016040528060001515815250610f56565b8152506040518263ffffffff1660e01b8152600401610a199190611c57565b6020604051808303816000875af1158015610a38573d6000803e3d6000fd5b505050506040513d601f19601f82011682018060405250810190610a5c9190611c8e565b9050807fcd6e45c8998311cab7e9d4385596cac867e20a0587194b954fa3a731c93ce78b60405160405180910390a250505050565b6000600560009054906101000a900473ffffffffffffffffffffffffffffffffffffffff16905090565b6000606060007f000000000000000000000000000000000000000000000000000000000000000060045442610af09190611aec565b101590506000806001811115610b0957610b0861159c565b5b600560149054906101000a900460ff166001811115610b2b57610b2a61159c565b5b14905060008060038054905011905060008047119050838015610b4b5750825b8015610b545750815b8015610b5d5750805b955085604051806020016040528060008152509550955050505050915091565b600160009054906101000a900473ffffffffffffffffffffffffffffffffffffffff1673ffffffffffffffffffffffffffffffffffffffff163373ffffffffffffffffffffffffffffffffffffffff1614610c0d576040517f08c379a0000000000000000000000000000000000000000000000000000000008152600401610c0490611da7565b60405180910390fd5b60008060009054906101000a900473ffffffffffffffffffffffffffffffffffffffff169050336000806101000a81548173ffffffffffffffffffffffffffffffffffffffff021916908373ffffffffffffffffffffffffffffffffffffffff1602179055506000600160006101000a81548173ffffffffffffffffffffffffffffffffffffffff021916908373ffffffffffffffffffffffffffffffffffffffff1602179055503373ffffffffffffffffffffffffffffffffffffffff168173ffffffffffffffffffffffffffffffffffffffff167f8be0079c531659141344cd1fd0a4f28419497f9722a3daafe3b4186f6b6457e060405160405180910390a350565b60008060009054906101000a900473ffffffffffffffffffffffffffffffffffffffff16905090565b610d43610d12565b73ffffffffffffffffffffffffffffffffffffffff163373ffffffffffffffffffffffffffffffffffffffff1614158015610dcc5750600260009054906101000a900473ffffffffffffffffffffffffffffffffffffffff1673ffffffffffffffffffffffffffffffffffffffff163373ffffffffffffffffffffffffffffffffffffffff1614155b15610e3b5733610dda610d12565b600260009054906101000a900473ffffffffffffffffffffffffffffffffffffffff166040517f061db9c1000000000000000000000000000000000000000000000000000000008152600401610e3293929190611dc7565b60405180910390fd5b600073ffffffffffffffffffffffffffffffffffffffff168173ffffffffffffffffffffffffffffffffffffffff1603610ea1576040517fd92e233d00000000000000000000000000000000000000000000000000000000815260040160405180910390fd5b80600260006101000a81548173ffffffffffffffffffffffffffffffffffffffff021916908373ffffffffffffffffffffffffffffffffffffffff1602179055507fd1a6a14209a385a964d036e404cb5cfb71f4000cdb03c9366292430787261be681604051610f119190611557565b60405180910390a150565b600260009054906101000a900473ffffffffffffffffffffffffffffffffffffffff1681565b610f4a61123c565b610f53816112cc565b50565b60607f92fd13387c7fe7befbc38d303d6468778fb9731bc4583f17d92989c6fcfdeaaa82604051602401610f8a9190611e29565b604051602081830303815290604052907bffffffffffffffffffffffffffffffffffffffffffffffffffffffff19166020820180517bffffffffffffffffffffffffffffffffffffffffffffffffffffffff83818316178352505050509050919050565b6000600380805490508484600081811061100b5761100a611cbb565b5b9050602002013561101c9190611e73565b8154811061102d5761102c611cbb565b5b9060005260206000200160009054906101000a900473ffffffffffffffffffffffffffffffffffffffff16905080600560006101000a81548173ffffffffffffffffffffffffffffffffffffffff021916908373ffffffffffffffffffffffffffffffffffffffff1602179055506000600560146101000a81548160ff021916908360018111156110c1576110c061159c565b5b0217905550600067ffffffffffffffff8111156110e1576110e06117ac565b5b60405190808252806020026020018201604052801561110f5781602001602082028036833780820191505090505b50600390805190602001906111259291906113f8565b504260048190555060008173ffffffffffffffffffffffffffffffffffffffff164760405161115390611ed5565b60006040518083038185875af1925050503d8060008114611190576040519150601f19603f3d011682016040523d82523d6000602084013e611195565b606091505b50509050806111d0576040517f8dea0f0700000000000000000000000000000000000000000000000000000000815260040160405180910390fd5b600560009054906101000a900473ffffffffffffffffffffffffffffffffffffffff1673ffffffffffffffffffffffffffffffffffffffff167f5b690ec4a06fe979403046eaeea5b3ce38524683c3001f662c8b5a829632f7df60405160405180910390a25050505050565b60008054906101000a900473ffffffffffffffffffffffffffffffffffffffff1673ffffffffffffffffffffffffffffffffffffffff163373ffffffffffffffffffffffffffffffffffffffff16146112ca576040517f08c379a00000000000000000000000000000000000000000000000000000000081526004016112c190611f36565b60405180910390fd5b565b3373ffffffffffffffffffffffffffffffffffffffff168173ffffffffffffffffffffffffffffffffffffffff160361133a576040517f08c379a000000000000000000000000000000000000000000000000000000000815260040161133190611fa2565b60405180910390fd5b80600160006101000a81548173ffffffffffffffffffffffffffffffffffffffff021916908373ffffffffffffffffffffffffffffffffffffffff1602179055508073ffffffffffffffffffffffffffffffffffffffff1660008054906101000a900473ffffffffffffffffffffffffffffffffffffffff1673ffffffffffffffffffffffffffffffffffffffff167fed8889f560326eb138920d842192f0eb3dd22b4f139c87a2c57538e05bae127860405160405180910390a350565b828054828255906000526020600020908101928215611471579160200282015b828111156114705782518260006101000a81548173ffffffffffffffffffffffffffffffffffffffff021916908373ffffffffffffffffffffffffffffffffffffffff16021790555091602001919060010190611418565b5b50905061147e9190611482565b5090565b5b8082111561149b576000816000905550600101611483565b5090565b6000604051905090565b600080fd5b600080fd5b6000819050919050565b6114c6816114b3565b81146114d157600080fd5b50565b6000813590506114e3816114bd565b92915050565b6000602082840312156114ff576114fe6114a9565b5b600061150d848285016114d4565b91505092915050565b600073ffffffffffffffffffffffffffffffffffffffff82169050919050565b600061154182611516565b9050919050565b61155181611536565b82525050565b600060208201905061156c6000830184611548565b92915050565b61157b816114b3565b82525050565b60006020820190506115966000830184611572565b92915050565b7f4e487b7100000000000000000000000000000000000000000000000000000000600052602160045260246000fd5b600281106115dc576115db61159c565b5b50565b60008190506115ed826115cb565b919050565b60006115fd826115df565b9050919050565b61160d816115f2565b82525050565b60006020820190506116286000830184611604565b92915050565b600080fd5b600080fd5b600080fd5b60008083601f8401126116535761165261162e565b5b8235905067ffffffffffffffff8111156116705761166f611633565b5b60208301915083602082028301111561168c5761168b611638565b5b9250929050565b6000806000604084860312156116ac576116ab6114a9565b5b60006116ba868287016114d4565b935050602084013567ffffffffffffffff8111156116db576116da6114ae565b5b6116e78682870161163d565b92509250509250925092565b60008083601f8401126117095761170861162e565b5b8235905067ffffffffffffffff81111561172657611725611633565b5b60208301915083600182028301111561174257611741611638565b5b9250929050565b600080602083850312156117605761175f6114a9565b5b600083013567ffffffffffffffff81111561177e5761177d6114ae565b5b61178a858286016116f3565b92509250509250929050565b600080fd5b6000601f19601f8301169050919050565b7f4e487b7100000000000000000000000000000000000000000000000000000000600052604160045260246000fd5b6117e48261179b565b810181811067ffffffffffffffff82111715611803576118026117ac565b5b80604052505050565b600061181661149f565b905061182282826117db565b919050565b600067ffffffffffffffff821115611842576118416117ac565b5b61184b8261179b565b9050602081019050919050565b82818337600083830152505050565b600061187a61187584611827565b61180c565b90508281526020810184848401111561189657611895611796565b5b6118a1848285611858565b509392505050565b600082601f8301126118be576118bd61162e565b5b81356118ce848260208601611867565b91505092915050565b6000602082840312156118ed576118ec6114a9565b5b600082013567ffffffffffffffff81111561190b5761190a6114ae565b5b611917848285016118a9565b91505092915050565b60008115159050919050565b61193581611920565b82525050565b600081519050919050565b600082825260208201905092915050565b60005b8381101561197557808201518184015260208101905061195a565b60008484015250505050565b600061198c8261193b565b6119968185611946565b93506119a6818560208601611957565b6119af8161179b565b840191505092915050565b60006040820190506119cf600083018561192c565b81810360208301526119e18184611981565b90509392505050565b6119f381611536565b81146119fe57600080fd5b50565b600081359050611a10816119ea565b92915050565b600060208284031215611a2c57611a2b6114a9565b5b6000611a3a84828501611a01565b91505092915050565b6000819050919050565b6000611a68611a63611a5e84611516565b611a43565b611516565b9050919050565b6000611a7a82611a4d565b9050919050565b6000611a8c82611a6f565b9050919050565b611a9c81611a81565b82525050565b6000602082019050611ab76000830184611a93565b92915050565b7f4e487b7100000000000000000000000000000000000000000000000000000000600052601160045260246000fd5b6000611af7826114b3565b9150611b02836114b3565b9250828203905081811115611b1a57611b19611abd565b5b92915050565b6000819050919050565b611b3381611b20565b82525050565b611b42816114b3565b82525050565b600061ffff82169050919050565b611b5f81611b48565b82525050565b600063ffffffff82169050919050565b611b7e81611b65565b82525050565b600082825260208201905092915050565b6000611ba08261193b565b611baa8185611b84565b9350611bba818560208601611957565b611bc38161179b565b840191505092915050565b600060c083016000830151611be66000860182611b2a565b506020830151611bf96020860182611b39565b506040830151611c0c6040860182611b56565b506060830151611c1f6060860182611b75565b506080830151611c326080860182611b75565b5060a083015184820360a0860152611c4a8282611b95565b9150508091505092915050565b60006020820190508181036000830152611c718184611bce565b905092915050565b600081519050611c88816114bd565b92915050565b600060208284031215611ca457611ca36114a9565b5b6000611cb284828501611c79565b91505092915050565b7f4e487b7100000000000000000000000000000000000000000000000000000000600052603260045260246000fd5b6000604082019050611cff6000830185611548565b611d0c6020830184611548565b9392505050565b6000606082019050611d286000830186611572565b611d356020830185611572565b611d426040830184611604565b949350505050565b600082825260208201905092915050565b7f4d7573742062652070726f706f736564206f776e657200000000000000000000600082015250565b6000611d91601683611d4a565b9150611d9c82611d5b565b602082019050919050565b60006020820190508181036000830152611dc081611d84565b9050919050565b6000606082019050611ddc6000830186611548565b611de96020830185611548565b611df66040830184611548565b949350505050565b611e0781611920565b82525050565b602082016000820151611e236000850182611dfe565b50505050565b6000602082019050611e3e6000830184611e0d565b92915050565b7f4e487b7100000000000000000000000000000000000000000000000000000000600052601260045260246000fd5b6000611e7e826114b3565b9150611e89836114b3565b925082611e9957611e98611e44565b5b828206905092915050565b600081905092915050565b50565b6000611ebf600083611ea4565b9150611eca82611eaf565b600082019050919050565b6000611ee082611eb2565b9150819050919050565b7f4f6e6c792063616c6c61626c65206279206f776e657200000000000000000000600082015250565b6000611f20601683611d4a565b9150611f2b82611eea565b602082019050919050565b60006020820190508181036000830152611f4f81611f13565b9050919050565b7f43616e6e6f74207472616e7366657220746f2073656c66000000000000000000600082015250565b6000611f8c601783611d4a565b9150611f9782611f56565b602082019050919050565b60006020820190508181036000830152611fbb81611f7f565b905091905056fea26469706673582212201892e03c7588070679f26236091f3f4ef49b74b5ce3ebb5d4684baef01e05cc064736f6c63430008130033","linkReferences":{}},"methodIdentifiers":{"acceptOwnership()":"79ba5097","checkUpkeep(bytes)":"6e04ff0d","enterRaffle()":"2cfcc539","getEntranceFee()":"09bc33a7","getLastTimestamp()":"37899770","getParticipantsFromIndex(uint256)":"08384f63","getRaffleState()":"115cbaf5","getRecentWinner()":"473f1ddc","owner()":"8da5cb5b","performUpkeep(bytes)":"4585e33b","prizeWinner()":"02c88fe8","rawFulfillRandomWords(uint256,uint256[])":"1fe543e3","s_vrfCoordinator()":"9eccacf6","setCoordinator(address)":"8ea98117","transferOwnership(address)":"f2fde38b"},"id":44}