{"abi":[{"type":"constructor","inputs":[{"name":"_entranceFee","type":"uint256","internalType":"uint256"},{"name":"interval","type":"uint256","internalType":"uint256"},{"name":"_vrfCoordinator","type":"address","internalType":"address"},{"name":"subscriptionId","type":"uint256","internalType":"uint256"},{"name":"callbackGasLimit","type":"uint32","internalType":"uint32"},{"name":"keyHash","type":"bytes32","internalType":"bytes32"}],"stateMutability":"nonpayable"},{"type":"function","name":"acceptOwnership","inputs":[],"outputs":[],"stateMutability":"nonpayable"},{"type":"function","name":"checkUpkeep","inputs":[{"name":"","type":"bytes","internalType":"bytes"}],"outputs":[{"name":"upkeepNeeded","type":"bool","internalType":"bool"},{"name":"","type":"bytes","internalType":"bytes"}],"stateMutability":"view"},{"type":"function","name":"enterRaffle","inputs":[],"outputs":[],"stateMutability":"payable"},{"type":"function","name":"getEntranceFee","inputs":[],"outputs":[{"name":"","type":"uint256","internalType":"uint256"}],"stateMutability":"view"},{"type":"function","name":"getParticipantsFromIndex","inputs":[{"name":"index","type":"uint256","internalType":"uint256"}],"outputs":[{"name":"","type":"address","internalType":"address"}],"stateMutability":"view"},{"type":"function","name":"getRaffleState","inputs":[],"outputs":[{"name":"","type":"uint8","internalType":"enum RaffleContract.RaffleIsOpen"}],"stateMutability":"view"},{"type":"function","name":"owner","inputs":[],"outputs":[{"name":"","type":"address","internalType":"address"}],"stateMutability":"view"},{"type":"function","name":"performUpkeep","inputs":[{"name":"","type":"bytes","internalType":"bytes"}],"outputs":[],"stateMutability":"nonpayable"},{"type":"function","name":"prizeWinner","inputs":[],"outputs":[],"stateMutability":"nonpayable"},{"type":"function","name":"rawFulfillRandomWords","inputs":[{"name":"requestId","type":"uint256","internalType":"uint256"},{"name":"randomWords","type":"uint256[]","internalType":"uint256[]"}],"outputs":[],"stateMutability":"nonpayable"},{"type":"function","name":"s_vrfCoordinator","inputs":[],"outputs":[{"name":"","type":"address","internalType":"contract IVRFCoordinatorV2Plus"}],"stateMutability":"view"},{"type":"function","name":"setCoordinator","inputs":[{"name":"_vrfCoordinator","type":"address","internalType":"address"}],"outputs":[],"stateMutability":"nonpayable"},{"type":"function","name":"transferOwnership","inputs":[{"name":"to","type":"address","internalType":"address"}],"outputs":[],"stateMutability":"nonpayable"},{"type":"event","name":"CoordinatorSet","inputs":[{"name":"vrfCoordinator","type":"address","indexed":false,"internalType":"address"}],"anonymous":false},{"type":"event","name":"OwnershipTransferRequested","inputs":[{"name":"from","type":"address","indexed":true,"internalType":"address"},{"name":"to","type":"address","indexed":true,"internalType":"address"}],"anonymous":false},{"type":"event","name":"OwnershipTransferred","inputs":[{"name":"from","type":"address","indexed":true,"internalType":"address"},{"name":"to","type":"address","indexed":true,"internalType":"address"}],"anonymous":false},{"type":"event","name":"RaffleEntered","inputs":[{"name":"player","type":"address","indexed":true,"internalType":"address"}],"anonymous":false},{"type":"event","name":"WinnerPicked","inputs":[{"name":"winner","type":"address","indexed":true,"internalType":"address"}],"anonymous":false},{"type":"error","name":"OnlyCoordinatorCanFulfill","inputs":[{"name":"have","type":"address","internalType":"address"},{"name":"want","type":"address","internalType":"address"}]},{"type":"error","name":"OnlyOwnerOrCoordinator","inputs":[{"name":"have","type":"address","internalType":"address"},{"name":"owner","type":"address","internalType":"address"},{"name":"coordinator","type":"address","internalType":"address"}]},{"type":"error","name":"RaffleHasNotEnded","inputs":[]},{"type":"error","name":"RaffleNotOpen","inputs":[]},{"type":"error","name":"Raffle_UpkeepNotNeeded","inputs":[{"name":"balance","type":"uint256","internalType":"uint256"},{"name":"participantsLength","type":"uint256","internalType":"uint256"},{"name":"raffleIsOpen","type":"uint8","internalType":"enum RaffleContract.RaffleIsOpen"}]},{"type":"error","name":"Raffle__NotEnoughCashStranger","inputs":[]},{"type":"error","name":"Raffle__TransactionFailed","inputs":[]},{"type":"error","name":"ZeroAddress","inputs":[]}],"bytecode":{"object":"0x61012060405234801561001157600080fd5b506040516200130e3803806200130e833981016040819052610032916101e2565b8333806000816100895760405162461bcd60e51b815260206004820152601860248201527f43616e6e6f7420736574206f776e657220746f207a65726f000000000000000060448201526064015b60405180910390fd5b600080546001600160a01b0319166001600160a01b03848116919091179091558116156100b9576100b981610139565b5050506001600160a01b0381166100e35760405163d92e233d60e01b815260040160405180910390fd5b600280546001600160a01b0319166001600160a01b039290921691909117905560a09490945260e09190915260c0929092525063ffffffff1661010052608052426004556005805460ff60a01b19169055610257565b336001600160a01b038216036101915760405162461bcd60e51b815260206004820152601760248201527f43616e6e6f74207472616e7366657220746f2073656c660000000000000000006044820152606401610080565b600180546001600160a01b0319166001600160a01b0383811691821790925560008054604051929316917fed8889f560326eb138920d842192f0eb3dd22b4f139c87a2c57538e05bae12789190a350565b60008060008060008060c087890312156101fb57600080fd5b86516020880151604089015191975095506001600160a01b038116811461022157600080fd5b60608801516080890151919550935063ffffffff8116811461024257600080fd5b8092505060a087015190509295509295509295565b60805160a05160c05160e0516101005161104f620002bf6000396000818161038c0152610648015260008181610357015261061301526000818161033401526105f0015260008181610288015261071001526000818161012d01526104d0015261104f6000f3fe6080604052600436106100c25760003560e01c80634585e33b1161007f5780638da5cb5b116100595780638da5cb5b146102085780638ea98117146102265780639eccacf614610246578063f2fde38b1461026657600080fd5b80634585e33b146101a55780636e04ff0d146101c557806379ba5097146101f357600080fd5b806302c88fe8146100c757806308384f63146100de57806309bc33a71461011b578063115cbaf5146101565780631fe543e31461017d5780632cfcc5391461019d575b600080fd5b3480156100d357600080fd5b506100dc610286565b005b3480156100ea57600080fd5b506100fe6100f9366004610c79565b610449565b6040516001600160a01b0390911681526020015b60405180910390f35b34801561012757600080fd5b506040517f00000000000000000000000000000000000000000000000000000000000000008152602001610112565b34801561016257600080fd5b50600554600160a01b900460ff166040516101129190610cca565b34801561018957600080fd5b506100dc610198366004610cde565b610479565b6100dc6104ce565b3480156101b157600080fd5b506100dc6101c0366004610d5d565b61057d565b3480156101d157600080fd5b506101e56101e0366004610de5565b610708565b604051610112929190610edc565b3480156101ff57600080fd5b506100dc6107a7565b34801561021457600080fd5b506000546001600160a01b03166100fe565b34801561023257600080fd5b506100dc610241366004610eff565b610851565b34801561025257600080fd5b506002546100fe906001600160a01b031681565b34801561027257600080fd5b506100dc610281366004610eff565b610943565b7f0000000000000000000000000000000000000000000000000000000000000000600454426102b59190610f2f565b10156102d45760405163cdf268ad60e01b815260040160405180910390fd5b6000600554600160a01b900460ff1660018111156102f4576102f4610c92565b146103125760405163ee0eb16d60e01b815260040160405180910390fd5b6005805460ff60a01b1916600160a01b1790556002546040805160c0810182527f000000000000000000000000000000000000000000000000000000000000000081527f000000000000000000000000000000000000000000000000000000000000000060208083019190915260038284015263ffffffff7f0000000000000000000000000000000000000000000000000000000000000000166060830152600160808301528251908101909252600082526001600160a01b0390921691639b1c385e9160a08201906103e490610954565b8152506040518263ffffffff1660e01b81526004016104039190610f50565b6020604051808303816000875af1158015610422573d6000803e3d6000fd5b505050506040513d601f19601f820116820180604052508101906104469190610fad565b50565b60006003828154811061045e5761045e610fc6565b6000918252602090912001546001600160a01b031692915050565b6002546001600160a01b031633146104be5760025460405163073e64fd60e21b81523360048201526001600160a01b0390911660248201526044015b60405180910390fd5b6104c98383836109c5565b505050565b7f000000000000000000000000000000000000000000000000000000000000000034101561050f57604051636d8047b560e11b815260040160405180910390fd5b6003805460018101825560009182527fc2575a0e9e593c00f959f8c92f12db2869c3395a3b0502d05e2516446f71f85b0180546001600160a01b0319163390811790915560405190917f634f3211e3a4e43fee5a21ad9f87ca153b300fc78b1c557a2057dbe9c63bcb4791a2565b600061059760405180602001604052806000815250610708565b509050806105ce57600354600554604051636ae5e5eb60e01b81526104b59247929091600160a01b90910460ff1690600401610fdc565b6005805460ff60a01b1916600160a01b1790556002546040805160c0810182527f000000000000000000000000000000000000000000000000000000000000000081527f000000000000000000000000000000000000000000000000000000000000000060208083019190915260038284015263ffffffff7f0000000000000000000000000000000000000000000000000000000000000000166060830152600160808301528251908101909252600082526001600160a01b0390921691639b1c385e9160a08201906106a090610954565b8152506040518263ffffffff1660e01b81526004016106bf9190610f50565b6020604051808303816000875af11580156106de573d6000803e3d6000fd5b505050506040513d601f19601f820116820180604052508101906107029190610fad565b50505050565b6000606060007f00000000000000000000000000000000000000000000000000000000000000006004544261073d9190610f2f565b10159050600080600554600160a01b900460ff16600181111561076257610762610c92565b6003549114915015154715158380156107785750825b80156107815750815b801561078a5750805b604080516020810190915260008152909890975095505050505050565b6001546001600160a01b031633146107fa5760405162461bcd60e51b815260206004820152601660248201527526bab9ba10313290383937b837b9b2b21037bbb732b960511b60448201526064016104b5565b60008054336001600160a01b0319808316821784556001805490911690556040516001600160a01b0390921692909183917f8be0079c531659141344cd1fd0a4f28419497f9722a3daafe3b4186f6b6457e091a350565b6000546001600160a01b0316331480159061087757506002546001600160a01b03163314155b156108c8573361088f6000546001600160a01b031690565b60025460405163061db9c160e01b81526001600160a01b03938416600482015291831660248301529190911660448201526064016104b5565b6001600160a01b0381166108ef5760405163d92e233d60e01b815260040160405180910390fd5b600280546001600160a01b0319166001600160a01b0383169081179091556040519081527fd1a6a14209a385a964d036e404cb5cfb71f4000cdb03c9366292430787261be69060200160405180910390a150565b61094b610b01565b61044681610b56565b60607f92fd13387c7fe7befbc38d303d6468778fb9731bc4583f17d92989c6fcfdeaaa8260405160240161098d91511515815260200190565b60408051601f198184030181529190526020810180516001600160e01b03166001600160e01b03199093169290921790915292915050565b6003805460009190848484816109dd576109dd610fc6565b905060200201356109ee9190610ff7565b815481106109fe576109fe610fc6565b600091825260208083209190910154600580546001600160a81b0319166001600160a01b03909216918217905560408051938452918301918290529151919250610a4b9160039190610bff565b50426004556040516000906001600160a01b0383169047908381818185875af1925050503d8060008114610a9b576040519150601f19603f3d011682016040523d82523d6000602084013e610aa0565b606091505b5050905080610ac257604051638dea0f0760e01b815260040160405180910390fd5b6005546040516001600160a01b03909116907f5b690ec4a06fe979403046eaeea5b3ce38524683c3001f662c8b5a829632f7df90600090a25050505050565b6000546001600160a01b03163314610b545760405162461bcd60e51b815260206004820152601660248201527527b7363c9031b0b63630b1363290313c9037bbb732b960511b60448201526064016104b5565b565b336001600160a01b03821603610bae5760405162461bcd60e51b815260206004820152601760248201527f43616e6e6f74207472616e7366657220746f2073656c6600000000000000000060448201526064016104b5565b600180546001600160a01b0319166001600160a01b0383811691821790925560008054604051929316917fed8889f560326eb138920d842192f0eb3dd22b4f139c87a2c57538e05bae12789190a350565b828054828255906000526020600020908101928215610c54579160200282015b82811115610c5457825182546001600160a01b0319166001600160a01b03909116178255602090920191600190910190610c1f565b50610c60929150610c64565b5090565b5b80821115610c605760008155600101610c65565b600060208284031215610c8b57600080fd5b5035919050565b634e487b7160e01b600052602160045260246000fd5b60028110610cc657634e487b7160e01b600052602160045260246000fd5b9052565b60208101610cd88284610ca8565b92915050565b600080600060408486031215610cf357600080fd5b83359250602084013567ffffffffffffffff80821115610d1257600080fd5b818601915086601f830112610d2657600080fd5b813581811115610d3557600080fd5b8760208260051b8501011115610d4a57600080fd5b6020830194508093505050509250925092565b60008060208385031215610d7057600080fd5b823567ffffffffffffffff80821115610d8857600080fd5b818501915085601f830112610d9c57600080fd5b813581811115610dab57600080fd5b866020828501011115610dbd57600080fd5b60209290920196919550909350505050565b634e487b7160e01b600052604160045260246000fd5b600060208284031215610df757600080fd5b813567ffffffffffffffff80821115610e0f57600080fd5b818401915084601f830112610e2357600080fd5b813581811115610e3557610e35610dcf565b604051601f8201601f19908116603f01168101908382118183101715610e5d57610e5d610dcf565b81604052828152876020848701011115610e7657600080fd5b826020860160208301376000928101602001929092525095945050505050565b6000815180845260005b81811015610ebc57602081850181015186830182015201610ea0565b506000602082860101526020601f19601f83011685010191505092915050565b8215158152604060208201526000610ef76040830184610e96565b949350505050565b600060208284031215610f1157600080fd5b81356001600160a01b0381168114610f2857600080fd5b9392505050565b81810381811115610cd857634e487b7160e01b600052601160045260246000fd5b60208152815160208201526020820151604082015261ffff60408301511660608201526000606083015163ffffffff80821660808501528060808601511660a0850152505060a083015160c080840152610ef760e0840182610e96565b600060208284031215610fbf57600080fd5b5051919050565b634e487b7160e01b600052603260045260246000fd5b8381526020810183905260608101610ef76040830184610ca8565b60008261101457634e487b7160e01b600052601260045260246000fd5b50069056fea26469706673582212205a513f1544f72ddcd0b9cfb641c860a0d212a82eba575eaaafa15b569e7d9efc64736f6c63430008130033","linkReferences":{}},"methodIdentifiers":{"acceptOwnership()":"79ba5097","checkUpkeep(bytes)":"6e04ff0d","enterRaffle()":"2cfcc539","getEntranceFee()":"09bc33a7","getParticipantsFromIndex(uint256)":"08384f63","getRaffleState()":"115cbaf5","owner()":"8da5cb5b","performUpkeep(bytes)":"4585e33b","prizeWinner()":"02c88fe8","rawFulfillRandomWords(uint256,uint256[])":"1fe543e3","s_vrfCoordinator()":"9eccacf6","setCoordinator(address)":"8ea98117","transferOwnership(address)":"f2fde38b"},"id":40}