{"abi":[{"type":"constructor","inputs":[{"name":"entryPoint","type":"address","internalType":"address"}],"stateMutability":"nonpayable"},{"type":"receive","stateMutability":"payable"},{"type":"function","name":"execute","inputs":[{"name":"desAddr","type":"address","internalType":"address"},{"name":"value","type":"uint256","internalType":"uint256"},{"name":"functionData","type":"bytes","internalType":"bytes"}],"outputs":[],"stateMutability":"nonpayable"},{"type":"function","name":"getEntryPoint","inputs":[],"outputs":[{"name":"","type":"address","internalType":"contract IEntryPoint"}],"stateMutability":"view"},{"type":"function","name":"owner","inputs":[],"outputs":[{"name":"","type":"address","internalType":"address"}],"stateMutability":"view"},{"type":"function","name":"renounceOwnership","inputs":[],"outputs":[],"stateMutability":"nonpayable"},{"type":"function","name":"transferOwnership","inputs":[{"name":"newOwner","type":"address","internalType":"address"}],"outputs":[],"stateMutability":"nonpayable"},{"type":"function","name":"validateUserOp","inputs":[{"name":"userOp","type":"tuple","internalType":"struct PackedUserOperation","components":[{"name":"sender","type":"address","internalType":"address"},{"name":"nonce","type":"uint256","internalType":"uint256"},{"name":"initCode","type":"bytes","internalType":"bytes"},{"name":"callData","type":"bytes","internalType":"bytes"},{"name":"accountGasLimits","type":"bytes32","internalType":"bytes32"},{"name":"preVerificationGas","type":"uint256","internalType":"uint256"},{"name":"gasFees","type":"bytes32","internalType":"bytes32"},{"name":"paymasterAndData","type":"bytes","internalType":"bytes"},{"name":"signature","type":"bytes","internalType":"bytes"}]},{"name":"userOpHash","type":"bytes32","internalType":"bytes32"},{"name":"missingAccountFunds","type":"uint256","internalType":"uint256"}],"outputs":[{"name":"validationData","type":"uint256","internalType":"uint256"}],"stateMutability":"nonpayable"},{"type":"event","name":"OwnershipTransferred","inputs":[{"name":"previousOwner","type":"address","indexed":true,"internalType":"address"},{"name":"newOwner","type":"address","indexed":true,"internalType":"address"}],"anonymous":false},{"type":"error","name":"ECDSAInvalidSignature","inputs":[]},{"type":"error","name":"ECDSAInvalidSignatureLength","inputs":[{"name":"length","type":"uint256","internalType":"uint256"}]},{"type":"error","name":"ECDSAInvalidSignatureS","inputs":[{"name":"s","type":"bytes32","internalType":"bytes32"}]},{"type":"error","name":"MinimalAccount__FailedTransaction","inputs":[{"name":"","type":"bytes","internalType":"bytes"}]},{"type":"error","name":"MinimalAccount__INvalidEntryPointOrOwner","inputs":[]},{"type":"error","name":"MinimalAccount__InvalidEntryPoint","inputs":[]},{"type":"error","name":"OwnableInvalidOwner","inputs":[{"name":"owner","type":"address","internalType":"address"}]},{"type":"error","name":"OwnableUnauthorizedAccount","inputs":[{"name":"account","type":"address","internalType":"address"}]}],"bytecode":{"object":"0x60a060405234801561001057600080fd5b506040516109db3803806109db83398101604081905261002f916100c0565b338061005557604051631e4fbdf760e01b81526000600482015260240160405180910390fd5b61005e81610070565b506001600160a01b03166080526100f0565b600080546001600160a01b038381166001600160a01b0319831681178455604051919092169283917f8be0079c531659141344cd1fd0a4f28419497f9722a3daafe3b4186f6b6457e09190a35050565b6000602082840312156100d257600080fd5b81516001600160a01b03811681146100e957600080fd5b9392505050565b6080516108c36101186000396000818160a70152818161016101526101f301526108c36000f3fe6080604052600436106100595760003560e01c806319822f7c1461006557806344ab613f14610098578063715018a6146100df5780638da5cb5b146100f6578063b61d27f614610114578063f2fde38b1461013457600080fd5b3661006057005b600080fd5b34801561007157600080fd5b506100856100803660046106b8565b610154565b6040519081526020015b60405180910390f35b3480156100a457600080fd5b507f00000000000000000000000000000000000000000000000000000000000000005b6040516001600160a01b03909116815260200161008f565b3480156100eb57600080fd5b506100f46101d4565b005b34801561010257600080fd5b506000546001600160a01b03166100c7565b34801561012057600080fd5b506100f461012f366004610728565b6101e8565b34801561014057600080fd5b506100f461014f3660046107af565b6102e0565b6000336001600160a01b037f0000000000000000000000000000000000000000000000000000000000000000161480159061019a57506000546001600160a01b03163314155b156101b857604051636626cdbf60e11b815260040160405180910390fd5b6101c2848461031e565b90506101cd826103df565b9392505050565b6101dc610438565b6101e66000610465565b565b336001600160a01b037f0000000000000000000000000000000000000000000000000000000000000000161480159061022c57506000546001600160a01b03163314155b1561024a57604051636626cdbf60e11b815260040160405180910390fd5b600080856001600160a01b03168585856040516102689291906107ca565b60006040518083038185875af1925050503d80600081146102a5576040519150601f19603f3d011682016040523d82523d6000602084013e6102aa565b606091505b5091509150816102d85780604051630bb50f6160e11b81526004016102cf91906107da565b60405180910390fd5b505050505050565b6102e8610438565b6001600160a01b03811661031257604051631e4fbdf760e01b8152600060048201526024016102cf565b61031b81610465565b50565b7f19457468657265756d205369676e6564204d6573736167653a0a3332000000006000908152601c829052603c8120600061039b82610361610100880188610829565b8080601f0160208091040260200160405190810160405280939291908181526020018383808284376000920191909152506104b592505050565b9050806001600160a01b03166103b96000546001600160a01b031690565b6001600160a01b0316146103d2576001925050506103d9565b6000925050505b92915050565b801561031b57604051600090339060001990849084818181858888f193505050503d806000811461042c576040519150601f19603f3d011682016040523d82523d6000602084013e610431565b606091505b5050505050565b6000546001600160a01b031633146101e65760405163118cdaa760e01b81523360048201526024016102cf565b600080546001600160a01b038381166001600160a01b0319831681178455604051919092169283917f8be0079c531659141344cd1fd0a4f28419497f9722a3daafe3b4186f6b6457e09190a35050565b6000806000806104c586866104df565b9250925092506104d5828261052c565b5090949350505050565b600080600083516041036105195760208401516040850151606086015160001a61050b888285856105e9565b955095509550505050610525565b50508151600091506002905b9250925092565b600082600381111561054057610540610877565b03610549575050565b600182600381111561055d5761055d610877565b0361057b5760405163f645eedf60e01b815260040160405180910390fd5b600282600381111561058f5761058f610877565b036105b05760405163fce698f760e01b8152600481018290526024016102cf565b60038260038111156105c4576105c4610877565b036105e5576040516335e2f38360e21b8152600481018290526024016102cf565b5050565b600080807f7fffffffffffffffffffffffffffffff5d576e7357a4501ddfe92f46681b20a084111561062457506000915060039050826106ae565b604080516000808252602082018084528a905260ff891692820192909252606081018790526080810186905260019060a0016020604051602081039080840390855afa158015610678573d6000803e3d6000fd5b5050604051601f1901519150506001600160a01b0381166106a4575060009250600191508290506106ae565b9250600091508190505b9450945094915050565b6000806000606084860312156106cd57600080fd5b833567ffffffffffffffff8111156106e457600080fd5b840161012081870312156106f757600080fd5b95602085013595506040909401359392505050565b80356001600160a01b038116811461072357600080fd5b919050565b6000806000806060858703121561073e57600080fd5b6107478561070c565b935060208501359250604085013567ffffffffffffffff8082111561076b57600080fd5b818701915087601f83011261077f57600080fd5b81358181111561078e57600080fd5b8860208285010111156107a057600080fd5b95989497505060200194505050565b6000602082840312156107c157600080fd5b6101cd8261070c565b8183823760009101908152919050565b60006020808352835180602085015260005b81811015610808578581018301518582016040015282016107ec565b506000604082860101526040601f19601f8301168501019250505092915050565b6000808335601e1984360301811261084057600080fd5b83018035915067ffffffffffffffff82111561085b57600080fd5b60200191503681900382131561087057600080fd5b9250929050565b634e487b7160e01b600052602160045260246000fdfea26469706673582212209a81c23a55b73463f7beacb6f162f0e0dd48deee3315529b45dc6b210123de7e64736f6c63430008180033","linkReferences":{}},"methodIdentifiers":{"execute(address,uint256,bytes)":"b61d27f6","getEntryPoint()":"44ab613f","owner()":"8da5cb5b","renounceOwnership()":"715018a6","transferOwnership(address)":"f2fde38b","validateUserOp((address,uint256,bytes,bytes,bytes32,uint256,bytes32,bytes,bytes),bytes32,uint256)":"19822f7c"},"id":56}