{"abi":[{"type":"constructor","inputs":[],"stateMutability":"nonpayable"},{"type":"function","name":"getNumber","inputs":[],"outputs":[{"name":"","type":"uint256","internalType":"uint256"}],"stateMutability":"view"},{"type":"function","name":"owner","inputs":[],"outputs":[{"name":"","type":"address","internalType":"address"}],"stateMutability":"view"},{"type":"function","name":"renounceOwnership","inputs":[],"outputs":[],"stateMutability":"nonpayable"},{"type":"function","name":"store","inputs":[{"name":"newNumber","type":"uint256","internalType":"uint256"}],"outputs":[],"stateMutability":"nonpayable"},{"type":"function","name":"transferOwnership","inputs":[{"name":"newOwner","type":"address","internalType":"address"}],"outputs":[],"stateMutability":"nonpayable"},{"type":"event","name":"NumberChanged","inputs":[{"name":"number","type":"uint256","indexed":false,"internalType":"uint256"}],"anonymous":false},{"type":"event","name":"OwnershipTransferred","inputs":[{"name":"previousOwner","type":"address","indexed":true,"internalType":"address"},{"name":"newOwner","type":"address","indexed":true,"internalType":"address"}],"anonymous":false},{"type":"error","name":"OwnableInvalidOwner","inputs":[{"name":"owner","type":"address","internalType":"address"}]},{"type":"error","name":"OwnableUnauthorizedAccount","inputs":[{"name":"account","type":"address","internalType":"address"}]}],"bytecode":{"object":"0x6080604052348015600f57600080fd5b503380603557604051631e4fbdf760e01b81526000600482015260240160405180910390fd5b603c816041565b506091565b600080546001600160a01b038381166001600160a01b0319831681178455604051919092169283917f8be0079c531659141344cd1fd0a4f28419497f9722a3daafe3b4186f6b6457e09190a35050565b610253806100a06000396000f3fe608060405234801561001057600080fd5b50600436106100575760003560e01c80636057361d1461005c578063715018a6146100715780638da5cb5b14610079578063f2c9ecd814610099578063f2fde38b146100aa575b600080fd5b61006f61006a3660046101d4565b6100bd565b005b61006f610100565b6000546040516001600160a01b0390911681526020015b60405180910390f35b600154604051908152602001610090565b61006f6100b83660046101ed565b610114565b6100c5610157565b60018190556040518181527f2fd81fd19d3c5c4b396dd13f451dafc8bcac1b3094c49c5fa90e68456323f0e39060200160405180910390a150565b610108610157565b6101126000610184565b565b61011c610157565b6001600160a01b03811661014b57604051631e4fbdf760e01b8152600060048201526024015b60405180910390fd5b61015481610184565b50565b6000546001600160a01b031633146101125760405163118cdaa760e01b8152336004820152602401610142565b600080546001600160a01b038381166001600160a01b0319831681178455604051919092169283917f8be0079c531659141344cd1fd0a4f28419497f9722a3daafe3b4186f6b6457e09190a35050565b6000602082840312156101e657600080fd5b5035919050565b6000602082840312156101ff57600080fd5b81356001600160a01b038116811461021657600080fd5b939250505056fea2646970667358221220db31dc49645db45906a5db06c78a3e3f11abdf70d981aa1295cffadb376fb88364736f6c634300081a0033","linkReferences":{}},"methodIdentifiers":{"getNumber()":"f2c9ecd8","owner()":"8da5cb5b","renounceOwnership()":"715018a6","store(uint256)":"6057361d","transferOwnership(address)":"f2fde38b"},"id":2}