{"abi":[{"type":"constructor","inputs":[{"name":"_merkleRoot","type":"bytes32","internalType":"bytes32"},{"name":"_airdropToken","type":"address","internalType":"contract IERC20"}],"stateMutability":"nonpayable"},{"type":"function","name":"_VierifiedSignature","inputs":[{"name":"account","type":"address","internalType":"address"},{"name":"message_hash","type":"bytes32","internalType":"bytes32"},{"name":"v","type":"uint8","internalType":"uint8"},{"name":"r","type":"bytes32","internalType":"bytes32"},{"name":"s","type":"bytes32","internalType":"bytes32"}],"outputs":[{"name":"","type":"bool","internalType":"bool"}],"stateMutability":"pure"},{"type":"function","name":"claim","inputs":[{"name":"_account","type":"address","internalType":"address"},{"name":"_amount","type":"uint256","internalType":"uint256"},{"name":"merkleProof","type":"bytes32[]","internalType":"bytes32[]"},{"name":"v","type":"uint8","internalType":"uint8"},{"name":"r","type":"bytes32","internalType":"bytes32"},{"name":"s","type":"bytes32","internalType":"bytes32"}],"outputs":[],"stateMutability":"nonpayable"},{"type":"function","name":"eip712Domain","inputs":[],"outputs":[{"name":"fields","type":"bytes1","internalType":"bytes1"},{"name":"name","type":"string","internalType":"string"},{"name":"version","type":"string","internalType":"string"},{"name":"chainId","type":"uint256","internalType":"uint256"},{"name":"verifyingContract","type":"address","internalType":"address"},{"name":"salt","type":"bytes32","internalType":"bytes32"},{"name":"extensions","type":"uint256[]","internalType":"uint256[]"}],"stateMutability":"view"},{"type":"function","name":"getMessageHash","inputs":[{"name":"account","type":"address","internalType":"address"},{"name":"amount","type":"uint256","internalType":"uint256"}],"outputs":[{"name":"","type":"bytes32","internalType":"bytes32"}],"stateMutability":"view"},{"type":"event","name":"ClaimToken","inputs":[{"name":"to","type":"address","indexed":false,"internalType":"address"},{"name":"amount","type":"uint256","indexed":false,"internalType":"uint256"}],"anonymous":false},{"type":"event","name":"EIP712DomainChanged","inputs":[],"anonymous":false},{"type":"error","name":"AddressEmptyCode","inputs":[{"name":"target","type":"address","internalType":"address"}]},{"type":"error","name":"AddressInsufficientBalance","inputs":[{"name":"account","type":"address","internalType":"address"}]},{"type":"error","name":"AirDrop__AlreadyClaimed","inputs":[]},{"type":"error","name":"AirDrop__FailedToVerify","inputs":[]},{"type":"error","name":"AirDrop__VerificationFailed","inputs":[]},{"type":"error","name":"FailedInnerCall","inputs":[]},{"type":"error","name":"InvalidShortString","inputs":[]},{"type":"error","name":"SafeERC20FailedOperation","inputs":[{"name":"token","type":"address","internalType":"address"}]},{"type":"error","name":"StringTooLong","inputs":[{"name":"str","type":"string","internalType":"string"}]}],"bytecode":{"object":"0x7f41697244726f70436c61696d2861646472657373206163636f756e742c75696e6101c052687420616d6f756e742960b81b6101e05260296101a0526101e96040527f3a12a62340ad60affc61575844edc74f6c361f7c8a8c0b7513911f89083c7fbf60025534801561007157600080fd5b506040516111623803806111628339810160408190526100909161020c565b6040805180820182526007815266041697264726f760cc1b602080830191909152825180840190935260038352620312e360ec1b90830152906100d4826000610192565b610120526100e3816001610192565b61014052815160208084019190912060e052815190820120610100524660a05261017060e05161010051604080517f8b73c3c69bb8fe3d512ecc4cf759cc79239f7b179b0ffacaa9a75d522b39400f60208201529081019290925260608201524660808201523060a082015260009060c00160405160208183030381529060405280519060200120905090565b60805250503060c052610160919091526001600160a01b031661018052610418565b60006020835110156101ae576101a7836101c5565b90506101bf565b816101b984826102e8565b5060ff90505b92915050565b600080829050601f815111156101f9578260405163305a27a960e01b81526004016101f091906103a6565b60405180910390fd5b8051610204826103f4565b179392505050565b6000806040838503121561021f57600080fd5b825160208401519092506001600160a01b038116811461023e57600080fd5b809150509250929050565b634e487b7160e01b600052604160045260246000fd5b600181811c9082168061027357607f821691505b60208210810361029357634e487b7160e01b600052602260045260246000fd5b50919050565b601f8211156102e357806000526020600020601f840160051c810160208510156102c05750805b601f840160051c820191505b818110156102e057600081556001016102cc565b50505b505050565b81516001600160401b0381111561030157610301610249565b6103158161030f845461025f565b84610299565b6020601f82116001811461034957600083156103315750848201515b600019600385901b1c1916600184901b1784556102e0565b600084815260208120601f198516915b828110156103795787850151825560209485019460019092019101610359565b50848210156103975786840151600019600387901b60f8161c191681555b50505050600190811b01905550565b602081526000825180602084015260005b818110156103d457602081860181015160408684010152016103b7565b506000604082850101526040601f19601f83011684010191505092915050565b805160208083015191908110156102935760001960209190910360031b1b16919050565b60805160a05160c05160e0516101005161012051610140516101605161018051610cda6104886000396000610267015260006101bc015260006104fb015260006104c9015260006106a60152600061067e015260006105d9015260006106030152600061062d0152610cda6000f3fe608060405234801561001057600080fd5b506004361061004c5760003560e01c80631998960f146100515780634497a16914610079578063512c91df1461008e57806384b0196e146100af575b600080fd5b61006461005f366004610995565b6100ca565b60405190151581526020015b60405180910390f35b61008c6100873660046109f9565b6100f5565b005b6100a161009c366004610b04565b610297565b604051908152602001610070565b6100b7610311565b6040516100709796959493929190610b7e565b6000806100d986868686610357565b50506001600160a01b0388811691161491505095945050505050565b6001600160a01b03861660009081526003602052604090205460ff161561012f57604051631f40c6bd60e01b815260040160405180910390fd5b6101458661013d8888610297565b8585856100ca565b61016257604051635390808360e01b815260040160405180910390fd5b604080516001600160a01b038816602082015290810186905260009060600160408051601f19818403018152828252805160209182012090830152016040516020818303038152906040528051906020012090506101e1857f000000000000000000000000000000000000000000000000000000000000000083610426565b6101fe576040516367caa78960e11b815260040160405180910390fd5b6001600160a01b038716600081815260036020908152604091829020805460ff19166001179055815192835282018890527f5d425a3a6a3d5a60fbf147dc6659ce3dfeb701fc44fe90058c32783b8807c574910160405180910390a161028e6001600160a01b037f000000000000000000000000000000000000000000000000000000000000000016888861043e565b50505050505050565b60006103086002546040518060400160405280866001600160a01b03168152602001858152506040516020016102ed92919091825280516001600160a01b03166020808401919091520151604082015260600190565b60405160208183030381529060405280519060200120610495565b90505b92915050565b6000606080600080600060606103256104c2565b61032d6104f4565b60408051600080825260208201909252600f60f81b9b939a50919850469750309650945092509050565b600080807f7fffffffffffffffffffffffffffffff5d576e7357a4501ddfe92f46681b20a0841115610392575060009150600390508261041c565b604080516000808252602082018084528a905260ff891692820192909252606081018790526080810186905260019060a0016020604051602081039080840390855afa1580156103e6573d6000803e3d6000fd5b5050604051601f1901519150506001600160a01b0381166104125750600092506001915082905061041c565b9250600091508190505b9450945094915050565b6000826104338584610521565b1490505b9392505050565b604080516001600160a01b038416602482015260448082018490528251808303909101815260649091019091526020810180516001600160e01b031663a9059cbb60e01b179052610490908490610564565b505050565b600061030b6104a26105cc565b8360405161190160f01b8152600281019290925260228201526042902090565b60606104ef7f000000000000000000000000000000000000000000000000000000000000000060006106f7565b905090565b60606104ef7f000000000000000000000000000000000000000000000000000000000000000060016106f7565b600081815b845181101561055c576105528286838151811061054557610545610c16565b60200260200101516107a2565b9150600101610526565b509392505050565b60006105796001600160a01b038416836107d1565b9050805160001415801561059e57508080602001905181019061059c9190610c2c565b155b1561049057604051635274afe760e01b81526001600160a01b03841660048201526024015b60405180910390fd5b6000306001600160a01b037f00000000000000000000000000000000000000000000000000000000000000001614801561062557507f000000000000000000000000000000000000000000000000000000000000000046145b1561064f57507f000000000000000000000000000000000000000000000000000000000000000090565b6104ef604080517f8b73c3c69bb8fe3d512ecc4cf759cc79239f7b179b0ffacaa9a75d522b39400f60208201527f0000000000000000000000000000000000000000000000000000000000000000918101919091527f000000000000000000000000000000000000000000000000000000000000000060608201524660808201523060a082015260009060c00160405160208183030381529060405280519060200120905090565b606060ff83146107115761070a836107df565b905061030b565b81805461071d90610c4e565b80601f016020809104026020016040519081016040528092919081815260200182805461074990610c4e565b80156107965780601f1061076b57610100808354040283529160200191610796565b820191906000526020600020905b81548152906001019060200180831161077957829003601f168201915b5050505050905061030b565b60008183106107be576000828152602084905260409020610308565b6000838152602083905260409020610308565b60606103088383600061081e565b606060006107ec836108bb565b604080516020808252818301909252919250600091906020820181803683375050509182525060208101929092525090565b6060814710156108435760405163cd78605960e01b81523060048201526024016105c3565b600080856001600160a01b0316848660405161085f9190610c88565b60006040518083038185875af1925050503d806000811461089c576040519150601f19603f3d011682016040523d82523d6000602084013e6108a1565b606091505b50915091506108b18683836108e3565b9695505050505050565b600060ff8216601f81111561030b57604051632cd44ac360e21b815260040160405180910390fd5b6060826108f8576108f38261093f565b610437565b815115801561090f57506001600160a01b0384163b155b1561093857604051639996b31560e01b81526001600160a01b03851660048201526024016105c3565b5080610437565b80511561094f5780518082602001fd5b604051630a12f52160e11b815260040160405180910390fd5b80356001600160a01b038116811461097f57600080fd5b919050565b803560ff8116811461097f57600080fd5b600080600080600060a086880312156109ad57600080fd5b6109b686610968565b9450602086013593506109cb60408701610984565b94979396509394606081013594506080013592915050565b634e487b7160e01b600052604160045260246000fd5b60008060008060008060c08789031215610a1257600080fd5b610a1b87610968565b955060208701359450604087013567ffffffffffffffff811115610a3e57600080fd5b8701601f81018913610a4f57600080fd5b803567ffffffffffffffff811115610a6957610a696109e3565b8060051b604051601f19603f830116810181811067ffffffffffffffff82111715610a9657610a966109e3565b60405291825260208184018101929081018c841115610ab457600080fd5b6020850194505b83851015610ad757843580825260209586019590935001610abb565b509650610aea9250505060608801610984565b9598949750929560808101359460a0909101359350915050565b60008060408385031215610b1757600080fd5b610b2083610968565b946020939093013593505050565b60005b83811015610b49578181015183820152602001610b31565b50506000910152565b60008151808452610b6a816020860160208601610b2e565b601f01601f19169290920160200192915050565b60ff60f81b8816815260e060208201526000610b9d60e0830189610b52565b8281036040840152610baf8189610b52565b606084018890526001600160a01b038716608085015260a0840186905283810360c08501528451808252602080870193509091019060005b81811015610c05578351835260209384019390920191600101610be7565b50909b9a5050505050505050505050565b634e487b7160e01b600052603260045260246000fd5b600060208284031215610c3e57600080fd5b8151801515811461043757600080fd5b600181811c90821680610c6257607f821691505b602082108103610c8257634e487b7160e01b600052602260045260246000fd5b50919050565b60008251610c9a818460208701610b2e565b919091019291505056fea2646970667358221220a0d4215c089eccf56c99f1ed50d4571d0c45a9dd3a994a17fd9e75b5836528ab64736f6c634300081a0033","linkReferences":{}},"methodIdentifiers":{"_VierifiedSignature(address,bytes32,uint8,bytes32,bytes32)":"1998960f","claim(address,uint256,bytes32[],uint8,bytes32,bytes32)":"4497a169","eip712Domain()":"84b0196e","getMessageHash(address,uint256)":"512c91df"},"id":44}