{"abi":[{"type":"constructor","inputs":[{"name":"_merkleRoot","type":"bytes32","internalType":"bytes32"},{"name":"_airdropToken","type":"address","internalType":"contract IERC20"}],"stateMutability":"nonpayable"},{"type":"function","name":"claim","inputs":[{"name":"_account","type":"address","internalType":"address"},{"name":"_amount","type":"uint256","internalType":"uint256"},{"name":"merkleProof","type":"bytes32[]","internalType":"bytes32[]"}],"outputs":[],"stateMutability":"nonpayable"},{"type":"event","name":"ClaimToken","inputs":[{"name":"to","type":"address","indexed":false,"internalType":"address"},{"name":"amount","type":"uint256","indexed":false,"internalType":"uint256"}],"anonymous":false},{"type":"error","name":"AddressEmptyCode","inputs":[{"name":"target","type":"address","internalType":"address"}]},{"type":"error","name":"AddressInsufficientBalance","inputs":[{"name":"account","type":"address","internalType":"address"}]},{"type":"error","name":"AirDrop__FailedToVerify","inputs":[]},{"type":"error","name":"FailedInnerCall","inputs":[]},{"type":"error","name":"SafeERC20FailedOperation","inputs":[{"name":"token","type":"address","internalType":"address"}]}],"bytecode":{"object":"0x60c0604052348015600f57600080fd5b506040516105f53803806105f5833981016040819052602c916042565b6080919091526001600160a01b031660a052607d565b60008060408385031215605457600080fd5b825160208401519092506001600160a01b0381168114607257600080fd5b809150509250929050565b60805160a0516105546100a1600039600061013001526000609f01526105546000f3fe608060405234801561001057600080fd5b506004361061002b5760003560e01c80633d13f87414610030575b600080fd5b61004361003e3660046103c0565b610045565b005b604080516001600160a01b038516602082015290810183905260009060600160408051601f19818403018152828252805160209182012090830152016040516020818303038152906040528051906020012090506100c4827f00000000000000000000000000000000000000000000000000000000000000008361015d565b6100e1576040516367caa78960e11b815260040160405180910390fd5b604080516001600160a01b0386168152602081018590527f5d425a3a6a3d5a60fbf147dc6659ce3dfeb701fc44fe90058c32783b8807c574910160405180910390a16101576001600160a01b037f0000000000000000000000000000000000000000000000000000000000000000168585610175565b50505050565b60008261016a85846101cc565b1490505b9392505050565b604080516001600160a01b038416602482015260448082018490528251808303909101815260649091019091526020810180516001600160e01b031663a9059cbb60e01b1790526101c790849061020f565b505050565b600081815b8451811015610207576101fd828683815181106101f0576101f06104b7565b6020026020010151610277565b91506001016101d1565b509392505050565b60006102246001600160a01b038416836102a3565b9050805160001415801561024957508080602001905181019061024791906104cd565b155b156101c757604051635274afe760e01b81526001600160a01b03841660048201526024015b60405180910390fd5b600081831061029357600082815260208490526040902061016e565b5060009182526020526040902090565b606061016e8383600084600080856001600160a01b031684866040516102c991906104ef565b60006040518083038185875af1925050503d8060008114610306576040519150601f19603f3d011682016040523d82523d6000602084013e61030b565b606091505b509150915061031b868383610325565b9695505050505050565b60608261033a5761033582610381565b61016e565b815115801561035157506001600160a01b0384163b155b1561037a57604051639996b31560e01b81526001600160a01b038516600482015260240161026e565b508061016e565b8051156103915780518082602001fd5b604051630a12f52160e11b815260040160405180910390fd5b634e487b7160e01b600052604160045260246000fd5b6000806000606084860312156103d557600080fd5b83356001600160a01b03811681146103ec57600080fd5b925060208401359150604084013567ffffffffffffffff81111561040f57600080fd5b8401601f8101861361042057600080fd5b803567ffffffffffffffff81111561043a5761043a6103aa565b8060051b604051601f19603f830116810181811067ffffffffffffffff82111715610467576104676103aa565b60405291825260208184018101929081018984111561048557600080fd5b6020850194505b838510156104a85784358082526020958601959093500161048c565b50809450505050509250925092565b634e487b7160e01b600052603260045260246000fd5b6000602082840312156104df57600080fd5b8151801515811461016e57600080fd5b6000825160005b8181101561051057602081860181015185830152016104f6565b50600092019182525091905056fea2646970667358221220ef5f94d1d30986f3e13b412628c11b37047b91e3ae842084cd481d3afcd6ea9864736f6c634300081a0033","linkReferences":{}},"methodIdentifiers":{"claim(address,uint256,bytes32[])":"3d13f874"},"id":28}