{"abi":[{"type":"constructor","inputs":[{"name":"_merkleRoot","type":"bytes32","internalType":"bytes32"},{"name":"_airdropToken","type":"address","internalType":"contract IERC20"}],"stateMutability":"nonpayable"},{"type":"function","name":"claim","inputs":[{"name":"_account","type":"address","internalType":"address"},{"name":"_amount","type":"uint256","internalType":"uint256"},{"name":"merkleProof","type":"bytes32[]","internalType":"bytes32[]"}],"outputs":[],"stateMutability":"nonpayable"},{"type":"event","name":"ClaimToken","inputs":[{"name":"to","type":"address","indexed":false,"internalType":"address"},{"name":"amount","type":"uint256","indexed":false,"internalType":"uint256"}],"anonymous":false},{"type":"error","name":"AddressEmptyCode","inputs":[{"name":"target","type":"address","internalType":"address"}]},{"type":"error","name":"AddressInsufficientBalance","inputs":[{"name":"account","type":"address","internalType":"address"}]},{"type":"error","name":"AirDrop__AlreadyClaimed","inputs":[]},{"type":"error","name":"AirDrop__FailedToVerify","inputs":[]},{"type":"error","name":"FailedInnerCall","inputs":[]},{"type":"error","name":"SafeERC20FailedOperation","inputs":[{"name":"token","type":"address","internalType":"address"}]}],"bytecode":{"object":"0x60c0604052348015600f57600080fd5b50604051610646380380610646833981016040819052602c916042565b6080919091526001600160a01b031660a052607d565b60008060408385031215605457600080fd5b825160208401519092506001600160a01b0381168114607257600080fd5b809150509250929050565b60805160a0516105a56100a160003960006101810152600060d801526105a56000f3fe608060405234801561001057600080fd5b506004361061002b5760003560e01c80633d13f87414610030575b600080fd5b61004361003e366004610411565b610045565b005b6001600160a01b03831660009081526020819052604090205460ff1661007e57604051631f40c6bd60e01b815260040160405180910390fd5b604080516001600160a01b038516602082015290810183905260009060600160408051601f19818403018152828252805160209182012090830152016040516020818303038152906040528051906020012090506100fd827f0000000000000000000000000000000000000000000000000000000000000000836101ae565b61011a576040516367caa78960e11b815260040160405180910390fd5b6001600160a01b03841660008181526020818152604091829020805460ff19166001179055815192835282018590527f5d425a3a6a3d5a60fbf147dc6659ce3dfeb701fc44fe90058c32783b8807c574910160405180910390a16101a86001600160a01b037f00000000000000000000000000000000000000000000000000000000000000001685856101c6565b50505050565b6000826101bb858461021d565b1490505b9392505050565b604080516001600160a01b038416602482015260448082018490528251808303909101815260649091019091526020810180516001600160e01b031663a9059cbb60e01b179052610218908490610260565b505050565b600081815b84518110156102585761024e8286838151811061024157610241610508565b60200260200101516102c8565b9150600101610222565b509392505050565b60006102756001600160a01b038416836102f4565b9050805160001415801561029a575080806020019051810190610298919061051e565b155b1561021857604051635274afe760e01b81526001600160a01b03841660048201526024015b60405180910390fd5b60008183106102e45760008281526020849052604090206101bf565b5060009182526020526040902090565b60606101bf8383600084600080856001600160a01b0316848660405161031a9190610540565b60006040518083038185875af1925050503d8060008114610357576040519150601f19603f3d011682016040523d82523d6000602084013e61035c565b606091505b509150915061036c868383610376565b9695505050505050565b60608261038b57610386826103d2565b6101bf565b81511580156103a257506001600160a01b0384163b155b156103cb57604051639996b31560e01b81526001600160a01b03851660048201526024016102bf565b50806101bf565b8051156103e25780518082602001fd5b604051630a12f52160e11b815260040160405180910390fd5b634e487b7160e01b600052604160045260246000fd5b60008060006060848603121561042657600080fd5b83356001600160a01b038116811461043d57600080fd5b925060208401359150604084013567ffffffffffffffff81111561046057600080fd5b8401601f8101861361047157600080fd5b803567ffffffffffffffff81111561048b5761048b6103fb565b8060051b604051601f19603f830116810181811067ffffffffffffffff821117156104b8576104b86103fb565b6040529182526020818401810192908101898411156104d657600080fd5b6020850194505b838510156104f9578435808252602095860195909350016104dd565b50809450505050509250925092565b634e487b7160e01b600052603260045260246000fd5b60006020828403121561053057600080fd5b815180151581146101bf57600080fd5b6000825160005b818110156105615760208186018101518583015201610547565b50600092019182525091905056fea26469706673582212205b42046b1782be1bc5c0442b1633e064ed665531baed061de1d9db39883943f364736f6c634300081a0033","linkReferences":{}},"methodIdentifiers":{"claim(address,uint256,bytes32[])":"3d13f874"},"id":31}