{"abi":[{"type":"constructor","inputs":[{"name":"tokenAddress","type":"address[]","internalType":"address[]"},{"name":"collatoralAddress","type":"address[]","internalType":"address[]"},{"name":"dscAddress","type":"address","internalType":"address"}],"stateMutability":"nonpayable"},{"type":"function","name":"_getAccountDetails","inputs":[{"name":"_user","type":"address","internalType":"address"}],"outputs":[{"name":"","type":"uint256","internalType":"uint256"},{"name":"","type":"uint256","internalType":"uint256"}],"stateMutability":"view"},{"type":"function","name":"burnDsc","inputs":[{"name":"amountToBurn","type":"uint256","internalType":"uint256"}],"outputs":[],"stateMutability":"nonpayable"},{"type":"function","name":"depositeAndMintCollatoral","inputs":[{"name":"tokenCollatoralAddress","type":"address","internalType":"address"},{"name":"amountCollatoral","type":"uint256","internalType":"uint256"},{"name":"amountDscToMint","type":"uint256","internalType":"uint256"}],"outputs":[],"stateMutability":"nonpayable"},{"type":"function","name":"depositeCollatoral","inputs":[{"name":"_toAddress","type":"address","internalType":"address"},{"name":"_amount","type":"uint256","internalType":"uint256"}],"outputs":[],"stateMutability":"nonpayable"},{"type":"function","name":"getTokenAmountFromUsd","inputs":[{"name":"token","type":"address","internalType":"address"},{"name":"usdAmountInWei","type":"uint256","internalType":"uint256"}],"outputs":[{"name":"","type":"uint256","internalType":"uint256"}],"stateMutability":"view"},{"type":"function","name":"getTokenPriceInUSD","inputs":[{"name":"_token","type":"address","internalType":"address"},{"name":"_amount","type":"uint256","internalType":"uint256"}],"outputs":[{"name":"","type":"uint256","internalType":"uint256"}],"stateMutability":"view"},{"type":"function","name":"liquidate","inputs":[{"name":"collateral","type":"address","internalType":"address"},{"name":"user","type":"address","internalType":"address"},{"name":"debtToCover","type":"uint256","internalType":"uint256"}],"outputs":[],"stateMutability":"nonpayable"},{"type":"function","name":"mintDsc","inputs":[{"name":"amountDscToMint","type":"uint256","internalType":"uint256"}],"outputs":[],"stateMutability":"nonpayable"},{"type":"function","name":"redeemCollatoralForDsc","inputs":[{"name":"token","type":"address","internalType":"address"},{"name":"amountToRedeem","type":"uint256","internalType":"uint256"},{"name":"amountToBurn","type":"uint256","internalType":"uint256"}],"outputs":[],"stateMutability":"nonpayable"},{"type":"function","name":"redeemToken","inputs":[{"name":"token","type":"address","internalType":"address"},{"name":"amountCollatoral","type":"uint256","internalType":"uint256"}],"outputs":[],"stateMutability":"nonpayable"},{"type":"event","name":"CollatoralDeposited","inputs":[{"name":"colOwner","type":"address","indexed":true,"internalType":"address"},{"name":"tokenId","type":"address","indexed":true,"internalType":"address"},{"name":"amount","type":"uint256","indexed":true,"internalType":"uint256"}],"anonymous":false},{"type":"event","name":"CollatoralRedeemed","inputs":[{"name":"from","type":"address","indexed":true,"internalType":"address"},{"name":"to","type":"address","indexed":true,"internalType":"address"},{"name":"token","type":"address","indexed":true,"internalType":"address"},{"name":"amount","type":"uint256","indexed":false,"internalType":"uint256"}],"anonymous":false},{"type":"error","name":"DSCEngine__FailedToMint","inputs":[]},{"type":"error","name":"DSCEngine__HealthFactorOk","inputs":[]},{"type":"error","name":"DSCEngine__HealthOfUserNotImproved","inputs":[]},{"type":"error","name":"DSCEngine__InvalidTokenAddress","inputs":[]},{"type":"error","name":"DSCEngine__LiquidAccount","inputs":[{"name":"val","type":"uint256","internalType":"uint256"}]},{"type":"error","name":"DSCEngine__TransferFailed","inputs":[]},{"type":"error","name":"DSCEngine__ValueNonNegative","inputs":[]},{"type":"error","name":"DSCEngine__WrongArgumentsProvided","inputs":[]},{"type":"error","name":"ReentrancyGuardReentrantCall","inputs":[]}],"bytecode":{"object":"0x60a060405234801561001057600080fd5b5060405161105d38038061105d83398101604081905261002f91610224565b600160005581518351146100565760405163133c5de960e21b815260040160405180910390fd5b60005b8351811015610137578281815181106100745761007461029d565b6020026020010151600160008684815181106100925761009261029d565b60200260200101516001600160a01b03166001600160a01b0316815260200190815260200160002060006101000a8154816001600160a01b0302191690836001600160a01b0316021790555060048482815181106100f2576100f261029d565b60209081029190910181015182546001808201855560009485529290932090920180546001600160a01b0319166001600160a01b039093169290921790915501610059565b506001600160a01b0316608052506102b39050565b634e487b7160e01b600052604160045260246000fd5b80516001600160a01b038116811461017957600080fd5b919050565b600082601f83011261018f57600080fd5b81516001600160401b038111156101a8576101a861014c565b604051600582901b90603f8201601f191681016001600160401b03811182821017156101d6576101d661014c565b6040529182526020818501810192908101868411156101f457600080fd5b6020860192505b8383101561021a5761020c83610162565b8152602092830192016101fb565b5095945050505050565b60008060006060848603121561023957600080fd5b83516001600160401b0381111561024f57600080fd5b61025b8682870161017e565b602086015190945090506001600160401b0381111561027957600080fd5b6102858682870161017e565b92505061029460408501610162565b90509250925092565b634e487b7160e01b600052603260045260246000fd5b608051610d816102dc6000396000818161064e015281816109f00152610a950152610d816000f3fe608060405234801561001057600080fd5b506004361061009e5760003560e01c8063afea2e4811610066578063afea2e481461011e578063bdd1cca81461013f578063c9b7c32714610152578063f687660814610165578063fc9274001461017857600080fd5b80630c5eaa29146100a357806326c01303146100b85780637457e17c146100cb578063830cbbbd146100de578063aab53977146100f1575b600080fd5b6100b66100b1366004610b5d565b61018b565b005b6100b66100c6366004610b87565b6102e9565b6100b66100d9366004610bc4565b6103d4565b6100b66100ec366004610b5d565b6103ec565b6101046100ff366004610bf7565b61046e565b604080519283526020830191909152015b60405180910390f35b61013161012c366004610b5d565b610508565b604051908152602001610115565b6100b661014d366004610bc4565b6105c8565b6100b6610160366004610c19565b6105d7565b6100b6610173366004610c19565b6106f2565b610131610186366004610b5d565b610728565b80600081116101ad57604051639eeac6b760e01b815260040160405180910390fd5b6001600160a01b038084166000908152600160205260409020548491166101e75760405163040ddf2560e51b815260040160405180910390fd5b6101ef6107dd565b3360008181526003602090815260408083206001600160a01b038916808552925280832087905551869391927f0f50173b2d4759fa68e538d68d688dfd8d16e5b2601eebbeb32dfe593767379e91a46040516323b872dd60e01b8152336004820152306024820152604481018490526000906001600160a01b038616906323b872dd906064016020604051808303816000875af1158015610294573d6000803e3d6000fd5b505050506040513d601f19601f820116820180604052508101906102b89190610c32565b9050806102d857604051634dc34d1760e01b815260040160405180910390fd5b506102e36001600055565b50505050565b806000811161030b57604051639eeac6b760e01b815260040160405180910390fd5b6103136107dd565b600061031e84610807565b9050600181106103415760405163032c072f60e41b815260040160405180910390fd5b600061034d8685610508565b90506000606461035e600a84610c6a565b6103689190610c81565b905060006103768284610ca3565b90506103848882893361085b565b61038f868833610994565b600061039a88610807565b90508481116103bc57604051632fd954af60e01b815260040160405180910390fd5b6103c533610aff565b50505050506102e36001600055565b6103de83836103ec565b6103e7816106f2565b505050565b806000811161040e57604051639eeac6b760e01b815260040160405180910390fd5b6104166107dd565b3360009081526003602090815260408083206001600160a01b038716845290915281208054849290610449908490610cb6565b9091555061045b90508383338061085b565b61046433610aff565b6103e76001600055565b60008080805b6004548110156104e75760006004828154811061049357610493610cc9565b60009182526020808320909101546001600160a01b038981168452600383526040808520919092168085529252909120549091506104d18282610728565b6104db9085610ca3565b93505050600101610474565b506001600160a01b0390931660009081526002602052604090205493915050565b6001600160a01b03808316600090815260016020526040808220548151633fabe5a360e21b81529151929316918391839163feaf968c9160048082019260a0929091908290030181865afa158015610564573d6000803e3d6000fd5b505050506040513d601f19601f820116820180604052508101906105889190610cf9565b5050509150506402540be40081670de0b6b3a7640000866105a99190610c6a565b6105b39190610c81565b6105bd9190610c6a565b925050505b92915050565b6105d2838361018b565b6103e7815b80600081116105f957604051639eeac6b760e01b815260040160405180910390fd5b6106016107dd565b3360009081526002602052604081208054849290610620908490610ca3565b9091555061062f905033610aff565b6040516340c10f1960e01b8152336004820152602481018390526000907f00000000000000000000000000000000000000000000000000000000000000006001600160a01b0316906340c10f19906044016020604051808303816000875af115801561069f573d6000803e3d6000fd5b505050506040513d601f19601f820116820180604052508101906106c39190610c32565b9050806106e3576040516334963e7360e21b815260040160405180910390fd5b506106ee6001600055565b5050565b806000811161071457604051639eeac6b760e01b815260040160405180910390fd5b61071f823333610994565b6106ee33610aff565b6001600160a01b03808316600090815260016020526040808220548151633fabe5a360e21b81529151929316918391839163feaf968c9160048082019260a0929091908290030181865afa158015610784573d6000803e3d6000fd5b505050506040513d601f19601f820116820180604052508101906107a89190610cf9565b505050915050670de0b6b3a7640000846402540be400836107c99190610c6a565b6107d39190610c6a565b6105bd9190610c81565b60026000540361080057604051633ee5aeb560e01b815260040160405180910390fd5b6002600055565b60008060006108158461046e565b909250905060006064610829603284610c6a565b6108339190610c81565b905082610848670de0b6b3a764000083610c6a565b6108529190610c81565b95945050505050565b6001600160a01b03808316600090815260036020908152604080832093881683529290529081208054859290610892908490610cb6565b92505081905550836001600160a01b0316816001600160a01b0316836001600160a01b03167f55d43c2c7ab7116cb101f6fa1782d3f0ebebd0cee69e638af4cef5d5f0a87b65866040516108e891815260200190565b60405180910390a460405163a9059cbb60e01b8152336004820152602481018490526000906001600160a01b0386169063a9059cbb906044016020604051808303816000875af1158015610940573d6000803e3d6000fd5b505050506040513d601f19601f820116820180604052508101906109649190610c32565b90508061098457604051634dc34d1760e01b815260040160405180910390fd5b61098d33610aff565b5050505050565b6001600160a01b038216600090815260026020526040812080548592906109bc908490610cb6565b90915550506040516323b872dd60e01b81526001600160a01b038281166004830152306024830152604482018590526000917f0000000000000000000000000000000000000000000000000000000000000000909116906323b872dd906064016020604051808303816000875af1158015610a3b573d6000803e3d6000fd5b505050506040513d601f19601f82011682018060405250810190610a5f9190610c32565b905080610a7f57604051634dc34d1760e01b815260040160405180910390fd5b604051630852cd8d60e31b8152600481018590527f00000000000000000000000000000000000000000000000000000000000000006001600160a01b0316906342966c6890602401600060405180830381600087803b158015610ae157600080fd5b505af1158015610af5573d6000803e3d6000fd5b5050505050505050565b6001610b0a82610807565b1015610b3e57610b1981610807565b6040516301f7f48360e31b8152600401610b3591815260200190565b60405180910390fd5b50565b80356001600160a01b0381168114610b5857600080fd5b919050565b60008060408385031215610b7057600080fd5b610b7983610b41565b946020939093013593505050565b600080600060608486031215610b9c57600080fd5b610ba584610b41565b9250610bb360208501610b41565b929592945050506040919091013590565b600080600060608486031215610bd957600080fd5b610be284610b41565b95602085013595506040909401359392505050565b600060208284031215610c0957600080fd5b610c1282610b41565b9392505050565b600060208284031215610c2b57600080fd5b5035919050565b600060208284031215610c4457600080fd5b81518015158114610c1257600080fd5b634e487b7160e01b600052601160045260246000fd5b80820281158282048414176105c2576105c2610c54565b600082610c9e57634e487b7160e01b600052601260045260246000fd5b500490565b808201808211156105c2576105c2610c54565b818103818111156105c2576105c2610c54565b634e487b7160e01b600052603260045260246000fd5b805169ffffffffffffffffffff81168114610b5857600080fd5b600080600080600060a08688031215610d1157600080fd5b610d1a86610cdf565b60208701516040880151606089015192975090955093509150610d3f60808701610cdf565b9050929550929590935056fea2646970667358221220979213bb5105cd7f589bfb4c096937586cb45f0797a9fa5ef9cbf31756602ca764736f6c634300081a0033","linkReferences":{}},"methodIdentifiers":{"_getAccountDetails(address)":"aab53977","burnDsc(uint256)":"f6876608","depositeAndMintCollatoral(address,uint256,uint256)":"bdd1cca8","depositeCollatoral(address,uint256)":"0c5eaa29","getTokenAmountFromUsd(address,uint256)":"afea2e48","getTokenPriceInUSD(address,uint256)":"fc927400","liquidate(address,address,uint256)":"26c01303","mintDsc(uint256)":"c9b7c327","redeemCollatoralForDsc(address,uint256,uint256)":"7457e17c","redeemToken(address,uint256)":"830cbbbd"},"id":36}