{"abi":[{"type":"constructor","inputs":[{"name":"tokenAddress","type":"address[]","internalType":"address[]"},{"name":"collatoralAddress","type":"address[]","internalType":"address[]"},{"name":"dscAddress","type":"address","internalType":"address"}],"stateMutability":"nonpayable"},{"type":"function","name":"burnDsc","inputs":[{"name":"amountToBurn","type":"uint256","internalType":"uint256"}],"outputs":[],"stateMutability":"nonpayable"},{"type":"function","name":"depositeAndMintCollatoral","inputs":[{"name":"tokenCollatoralAddress","type":"address","internalType":"address"},{"name":"amountCollatoral","type":"uint256","internalType":"uint256"},{"name":"amountDscToMint","type":"uint256","internalType":"uint256"}],"outputs":[],"stateMutability":"nonpayable"},{"type":"function","name":"depositeCollatoral","inputs":[{"name":"_toAddress","type":"address","internalType":"address"},{"name":"_amount","type":"uint256","internalType":"uint256"}],"outputs":[],"stateMutability":"nonpayable"},{"type":"function","name":"getTokenAmountFromUsd","inputs":[{"name":"token","type":"address","internalType":"address"},{"name":"usdAmountInWei","type":"uint256","internalType":"uint256"}],"outputs":[{"name":"","type":"uint256","internalType":"uint256"}],"stateMutability":"view"},{"type":"function","name":"getTokenPriceInUSD","inputs":[{"name":"_token","type":"address","internalType":"address"},{"name":"_amount","type":"uint256","internalType":"uint256"}],"outputs":[{"name":"","type":"uint256","internalType":"uint256"}],"stateMutability":"view"},{"type":"function","name":"liquidate","inputs":[{"name":"collateral","type":"address","internalType":"address"},{"name":"user","type":"address","internalType":"address"},{"name":"debtToCover","type":"uint256","internalType":"uint256"}],"outputs":[],"stateMutability":"nonpayable"},{"type":"function","name":"mintDsc","inputs":[{"name":"amountDscToMint","type":"uint256","internalType":"uint256"}],"outputs":[],"stateMutability":"nonpayable"},{"type":"function","name":"redeemCollatoralForDsc","inputs":[{"name":"token","type":"address","internalType":"address"},{"name":"amountToRedeem","type":"uint256","internalType":"uint256"},{"name":"amountToBurn","type":"uint256","internalType":"uint256"}],"outputs":[],"stateMutability":"nonpayable"},{"type":"function","name":"redeemToken","inputs":[{"name":"token","type":"address","internalType":"address"},{"name":"amountCollatoral","type":"uint256","internalType":"uint256"}],"outputs":[],"stateMutability":"nonpayable"},{"type":"event","name":"CollatoralDeposited","inputs":[{"name":"colOwner","type":"address","indexed":true,"internalType":"address"},{"name":"tokenId","type":"address","indexed":true,"internalType":"address"},{"name":"amount","type":"uint256","indexed":true,"internalType":"uint256"}],"anonymous":false},{"type":"event","name":"CollatoralRedeemed","inputs":[{"name":"from","type":"address","indexed":true,"internalType":"address"},{"name":"to","type":"address","indexed":true,"internalType":"address"},{"name":"token","type":"address","indexed":true,"internalType":"address"},{"name":"amount","type":"uint256","indexed":false,"internalType":"uint256"}],"anonymous":false},{"type":"error","name":"DSCEngine__FailedToMint","inputs":[]},{"type":"error","name":"DSCEngine__HealthFactorOk","inputs":[]},{"type":"error","name":"DSCEngine__HealthOfUserNotImproved","inputs":[]},{"type":"error","name":"DSCEngine__InvalidTokenAddress","inputs":[]},{"type":"error","name":"DSCEngine__LiquidAccount","inputs":[{"name":"val","type":"uint256","internalType":"uint256"}]},{"type":"error","name":"DSCEngine__TransferFailed","inputs":[]},{"type":"error","name":"DSCEngine__ValueNonNegative","inputs":[]},{"type":"error","name":"DSCEngine__WrongArgumentsProvided","inputs":[]},{"type":"error","name":"ReentrancyGuardReentrantCall","inputs":[]}],"bytecode":{"object":"0x60a060405234801561001057600080fd5b5060405161100e38038061100e83398101604081905261002f91610224565b600160005581518351146100565760405163133c5de960e21b815260040160405180910390fd5b60005b8351811015610137578281815181106100745761007461029d565b6020026020010151600160008684815181106100925761009261029d565b60200260200101516001600160a01b03166001600160a01b0316815260200190815260200160002060006101000a8154816001600160a01b0302191690836001600160a01b0316021790555060048482815181106100f2576100f261029d565b60209081029190910181015182546001808201855560009485529290932090920180546001600160a01b0319166001600160a01b039093169290921790915501610059565b506001600160a01b0316608052506102b39050565b634e487b7160e01b600052604160045260246000fd5b80516001600160a01b038116811461017957600080fd5b919050565b600082601f83011261018f57600080fd5b81516001600160401b038111156101a8576101a861014c565b604051600582901b90603f8201601f191681016001600160401b03811182821017156101d6576101d661014c565b6040529182526020818501810192908101868411156101f457600080fd5b6020860192505b8383101561021a5761020c83610162565b8152602092830192016101fb565b5095945050505050565b60008060006060848603121561023957600080fd5b83516001600160401b0381111561024f57600080fd5b61025b8682870161017e565b602086015190945090506001600160401b0381111561027957600080fd5b6102858682870161017e565b92505061029460408501610162565b90509250925092565b634e487b7160e01b600052603260045260246000fd5b608051610d326102dc600039600081816105800152818161092201526109c70152610d326000f3fe608060405234801561001057600080fd5b50600436106100935760003560e01c8063afea2e4811610066578063afea2e48146100e6578063bdd1cca81461010b578063c9b7c3271461011e578063f687660814610131578063fc9274001461014457600080fd5b80630c5eaa291461009857806326c01303146100ad5780637457e17c146100c0578063830cbbbd146100d3575b600080fd5b6100ab6100a6366004610b29565b610157565b005b6100ab6100bb366004610b53565b6102b5565b6100ab6100ce366004610b90565b6103a0565b6100ab6100e1366004610b29565b6103b8565b6100f96100f4366004610b29565b61043a565b60405190815260200160405180910390f35b6100ab610119366004610b90565b6104fa565b6100ab61012c366004610bc3565b610509565b6100ab61013f366004610bc3565b610624565b6100f9610152366004610b29565b61065a565b806000811161017957604051639eeac6b760e01b815260040160405180910390fd5b6001600160a01b038084166000908152600160205260409020548491166101b35760405163040ddf2560e51b815260040160405180910390fd5b6101bb61070f565b3360008181526003602090815260408083206001600160a01b038916808552925280832087905551869391927f0f50173b2d4759fa68e538d68d688dfd8d16e5b2601eebbeb32dfe593767379e91a46040516323b872dd60e01b8152336004820152306024820152604481018490526000906001600160a01b038616906323b872dd906064016020604051808303816000875af1158015610260573d6000803e3d6000fd5b505050506040513d601f19601f820116820180604052508101906102849190610bdc565b9050806102a457604051634dc34d1760e01b815260040160405180910390fd5b506102af6001600055565b50505050565b80600081116102d757604051639eeac6b760e01b815260040160405180910390fd5b6102df61070f565b60006102ea84610739565b90506001811061030d5760405163032c072f60e41b815260040160405180910390fd5b6000610319868561043a565b90506000606461032a600a84610c1b565b6103349190610c32565b905060006103428284610c54565b90506103508882893361078d565b61035b8688336108c6565b600061036688610739565b905084811161038857604051632fd954af60e01b815260040160405180910390fd5b61039133610a31565b50505050506102af6001600055565b6103aa83836103b8565b6103b381610624565b505050565b80600081116103da57604051639eeac6b760e01b815260040160405180910390fd5b6103e261070f565b3360009081526003602090815260408083206001600160a01b038716845290915281208054849290610415908490610c67565b9091555061042790508383338061078d565b61043033610a31565b6103b36001600055565b6001600160a01b03808316600090815260016020526040808220548151633fabe5a360e21b81529151929316918391839163feaf968c9160048082019260a0929091908290030181865afa158015610496573d6000803e3d6000fd5b505050506040513d601f19601f820116820180604052508101906104ba9190610c94565b5050509150506402540be40081670de0b6b3a7640000866104db9190610c1b565b6104e59190610c32565b6104ef9190610c1b565b925050505b92915050565b6105048383610157565b6103b3815b806000811161052b57604051639eeac6b760e01b815260040160405180910390fd5b61053361070f565b3360009081526002602052604081208054849290610552908490610c54565b90915550610561905033610a31565b6040516340c10f1960e01b8152336004820152602481018390526000907f00000000000000000000000000000000000000000000000000000000000000006001600160a01b0316906340c10f19906044016020604051808303816000875af11580156105d1573d6000803e3d6000fd5b505050506040513d601f19601f820116820180604052508101906105f59190610bdc565b905080610615576040516334963e7360e21b815260040160405180910390fd5b506106206001600055565b5050565b806000811161064657604051639eeac6b760e01b815260040160405180910390fd5b6106518233336108c6565b61062033610a31565b6001600160a01b03808316600090815260016020526040808220548151633fabe5a360e21b81529151929316918391839163feaf968c9160048082019260a0929091908290030181865afa1580156106b6573d6000803e3d6000fd5b505050506040513d601f19601f820116820180604052508101906106da9190610c94565b505050915050670de0b6b3a7640000846402540be400836106fb9190610c1b565b6107059190610c1b565b6104ef9190610c32565b60026000540361073257604051633ee5aeb560e01b815260040160405180910390fd5b6002600055565b600080600061074784610a73565b90925090506000606461075b603284610c1b565b6107659190610c32565b90508261077a670de0b6b3a764000083610c1b565b6107849190610c32565b95945050505050565b6001600160a01b038083166000908152600360209081526040808320938816835292905290812080548592906107c4908490610c67565b92505081905550836001600160a01b0316816001600160a01b0316836001600160a01b03167f55d43c2c7ab7116cb101f6fa1782d3f0ebebd0cee69e638af4cef5d5f0a87b658660405161081a91815260200190565b60405180910390a460405163a9059cbb60e01b8152336004820152602481018490526000906001600160a01b0386169063a9059cbb906044016020604051808303816000875af1158015610872573d6000803e3d6000fd5b505050506040513d601f19601f820116820180604052508101906108969190610bdc565b9050806108b657604051634dc34d1760e01b815260040160405180910390fd5b6108bf33610a31565b5050505050565b6001600160a01b038216600090815260026020526040812080548592906108ee908490610c67565b90915550506040516323b872dd60e01b81526001600160a01b038281166004830152306024830152604482018590526000917f0000000000000000000000000000000000000000000000000000000000000000909116906323b872dd906064016020604051808303816000875af115801561096d573d6000803e3d6000fd5b505050506040513d601f19601f820116820180604052508101906109919190610bdc565b9050806109b157604051634dc34d1760e01b815260040160405180910390fd5b604051630852cd8d60e31b8152600481018590527f00000000000000000000000000000000000000000000000000000000000000006001600160a01b0316906342966c6890602401600060405180830381600087803b158015610a1357600080fd5b505af1158015610a27573d6000803e3d6000fd5b5050505050505050565b6001610a3c82610739565b1015610a7057610a4b81610739565b6040516301f7f48360e31b8152600401610a6791815260200190565b60405180910390fd5b50565b60008080805b600454811015610aec57600060048281548110610a9857610a98610ce6565b60009182526020808320909101546001600160a01b03898116845260038352604080852091909216808552925290912054909150610ad6828261065a565b610ae09085610c54565b93505050600101610a79565b506001600160a01b0390931660009081526002602052604090205493915050565b80356001600160a01b0381168114610b2457600080fd5b919050565b60008060408385031215610b3c57600080fd5b610b4583610b0d565b946020939093013593505050565b600080600060608486031215610b6857600080fd5b610b7184610b0d565b9250610b7f60208501610b0d565b929592945050506040919091013590565b600080600060608486031215610ba557600080fd5b610bae84610b0d565b95602085013595506040909401359392505050565b600060208284031215610bd557600080fd5b5035919050565b600060208284031215610bee57600080fd5b81518015158114610bfe57600080fd5b9392505050565b634e487b7160e01b600052601160045260246000fd5b80820281158282048414176104f4576104f4610c05565b600082610c4f57634e487b7160e01b600052601260045260246000fd5b500490565b808201808211156104f4576104f4610c05565b818103818111156104f4576104f4610c05565b805169ffffffffffffffffffff81168114610b2457600080fd5b600080600080600060a08688031215610cac57600080fd5b610cb586610c7a565b60208701516040880151606089015192975090955093509150610cda60808701610c7a565b90509295509295909350565b634e487b7160e01b600052603260045260246000fdfea26469706673582212200a87081231473c3b02d4038150cc95e4eaa8cabc145b85852f77c9b4e8db93f964736f6c634300081a0033","linkReferences":{}},"methodIdentifiers":{"burnDsc(uint256)":"f6876608","depositeAndMintCollatoral(address,uint256,uint256)":"bdd1cca8","depositeCollatoral(address,uint256)":"0c5eaa29","getTokenAmountFromUsd(address,uint256)":"afea2e48","getTokenPriceInUSD(address,uint256)":"fc927400","liquidate(address,address,uint256)":"26c01303","mintDsc(uint256)":"c9b7c327","redeemCollatoralForDsc(address,uint256,uint256)":"7457e17c","redeemToken(address,uint256)":"830cbbbd"},"id":36}