{"abi":[{"type":"constructor","inputs":[{"name":"tokenAddress","type":"address[]","internalType":"address[]"},{"name":"collatoralAddress","type":"address[]","internalType":"address[]"},{"name":"dscAddress","type":"address","internalType":"address"}],"stateMutability":"nonpayable"},{"type":"function","name":"_getAccountDetails","inputs":[{"name":"_user","type":"address","internalType":"address"}],"outputs":[{"name":"","type":"uint256","internalType":"uint256"},{"name":"","type":"uint256","internalType":"uint256"}],"stateMutability":"view"},{"type":"function","name":"depositeCollatoral","inputs":[{"name":"_toAddress","type":"address","internalType":"address"},{"name":"_amount","type":"uint256","internalType":"uint256"}],"outputs":[],"stateMutability":"nonpayable"},{"type":"function","name":"getTokenPriceInUSD","inputs":[{"name":"_token","type":"address","internalType":"address"},{"name":"_amount","type":"uint256","internalType":"uint256"}],"outputs":[{"name":"","type":"uint256","internalType":"uint256"}],"stateMutability":"view"},{"type":"function","name":"mintDsc","inputs":[{"name":"amountDscToMint","type":"uint256","internalType":"uint256"}],"outputs":[],"stateMutability":"nonpayable"},{"type":"event","name":"CollatoralDeposited","inputs":[{"name":"colOwner","type":"address","indexed":true,"internalType":"address"},{"name":"tokenId","type":"address","indexed":true,"internalType":"address"},{"name":"amount","type":"uint256","indexed":true,"internalType":"uint256"}],"anonymous":false},{"type":"error","name":"DSCEngine__FailedToMint","inputs":[]},{"type":"error","name":"DSCEngine__InvalidTokenAddress","inputs":[]},{"type":"error","name":"DSCEngine__LiquidAccount","inputs":[{"name":"val","type":"uint256","internalType":"uint256"}]},{"type":"error","name":"DSCEngine__TransferFailed","inputs":[]},{"type":"error","name":"DSCEngine__ValueNonNegative","inputs":[]},{"type":"error","name":"DSCEngine__WrongArgumentsProvided","inputs":[]},{"type":"error","name":"ReentrancyGuardReentrantCall","inputs":[]}],"bytecode":{"object":"0x60a060405234801561001057600080fd5b506040516109e53803806109e583398101604081905261002f91610224565b600160005581518351146100565760405163133c5de960e21b815260040160405180910390fd5b60005b8351811015610137578281815181106100745761007461029d565b6020026020010151600160008684815181106100925761009261029d565b60200260200101516001600160a01b03166001600160a01b0316815260200190815260200160002060006101000a8154816001600160a01b0302191690836001600160a01b0316021790555060048482815181106100f2576100f261029d565b60209081029190910181015182546001808201855560009485529290932090920180546001600160a01b0319166001600160a01b039093169290921790915501610059565b506001600160a01b0316608052506102b39050565b634e487b7160e01b600052604160045260246000fd5b80516001600160a01b038116811461017957600080fd5b919050565b600082601f83011261018f57600080fd5b81516001600160401b038111156101a8576101a861014c565b604051600582901b90603f8201601f191681016001600160401b03811182821017156101d6576101d661014c565b6040529182526020818501810192908101868411156101f457600080fd5b6020860192505b8383101561021a5761020c83610162565b8152602092830192016101fb565b5095945050505050565b60008060006060848603121561023957600080fd5b83516001600160401b0381111561024f57600080fd5b61025b8682870161017e565b602086015190945090506001600160401b0381111561027957600080fd5b6102858682870161017e565b92505061029460408501610162565b90509250925092565b634e487b7160e01b600052603260045260246000fd5b6080516107176102ce600039600061033601526107176000f3fe608060405234801561001057600080fd5b506004361061004c5760003560e01c80630c5eaa2914610051578063aab5397714610066578063c9b7c32714610093578063fc927400146100a6575b600080fd5b61006461005f366004610576565b6100c7565b005b6100796100743660046105a0565b610225565b604080519283526020830191909152015b60405180910390f35b6100646100a13660046105c2565b6102bf565b6100b96100b4366004610576565b6103da565b60405190815260200161008a565b80600081116100e957604051639eeac6b760e01b815260040160405180910390fd5b6001600160a01b038084166000908152600160205260409020548491166101235760405163040ddf2560e51b815260040160405180910390fd5b61012b61049a565b3360008181526003602090815260408083206001600160a01b038916808552925280832087905551869391927f0f50173b2d4759fa68e538d68d688dfd8d16e5b2601eebbeb32dfe593767379e91a46040516323b872dd60e01b8152336004820152306024820152604481018490526000906001600160a01b038616906323b872dd906064016020604051808303816000875af11580156101d0573d6000803e3d6000fd5b505050506040513d601f19601f820116820180604052508101906101f491906105db565b90508061021457604051634dc34d1760e01b815260040160405180910390fd5b5061021f6001600055565b50505050565b60008080805b60045481101561029e5760006004828154811061024a5761024a6105fd565b60009182526020808320909101546001600160a01b0389811684526003835260408085209190921680855292529091205490915061028882826103da565b6102929085610629565b9350505060010161022b565b506001600160a01b0390931660009081526002602052604090205493915050565b80600081116102e157604051639eeac6b760e01b815260040160405180910390fd5b6102e961049a565b3360009081526002602052604081208054849290610308908490610629565b909155506103179050336104c4565b6040516340c10f1960e01b8152336004820152602481018390526000907f00000000000000000000000000000000000000000000000000000000000000006001600160a01b0316906340c10f19906044016020604051808303816000875af1158015610387573d6000803e3d6000fd5b505050506040513d601f19601f820116820180604052508101906103ab91906105db565b9050806103cb576040516334963e7360e21b815260040160405180910390fd5b506103d66001600055565b5050565b6001600160a01b03808316600090815260016020526040808220548151633fabe5a360e21b81529151929316918391839163feaf968c9160048082019260a0929091908290030181865afa158015610436573d6000803e3d6000fd5b505050506040513d601f19601f8201168201806040525081019061045a9190610656565b505050915050670de0b6b3a7640000846402540be4008361047b91906106a8565b61048591906106a8565b61048f91906106bf565b925050505b92915050565b6002600054036104bd57604051633ee5aeb560e01b815260040160405180910390fd5b6002600055565b60016104cf82610506565b1015610503576104de81610506565b6040516301f7f48360e31b81526004016104fa91815260200190565b60405180910390fd5b50565b600080600061051484610225565b9092509050600060646105286032846106a8565b61053291906106bf565b905082610547670de0b6b3a7640000836106a8565b61055191906106bf565b95945050505050565b80356001600160a01b038116811461057157600080fd5b919050565b6000806040838503121561058957600080fd5b6105928361055a565b946020939093013593505050565b6000602082840312156105b257600080fd5b6105bb8261055a565b9392505050565b6000602082840312156105d457600080fd5b5035919050565b6000602082840312156105ed57600080fd5b815180151581146105bb57600080fd5b634e487b7160e01b600052603260045260246000fd5b634e487b7160e01b600052601160045260246000fd5b8082018082111561049457610494610613565b805169ffffffffffffffffffff8116811461057157600080fd5b600080600080600060a0868803121561066e57600080fd5b6106778661063c565b6020870151604088015160608901519297509095509350915061069c6080870161063c565b90509295509295909350565b808202811582820484141761049457610494610613565b6000826106dc57634e487b7160e01b600052601260045260246000fd5b50049056fea26469706673582212205a64a8e9cd602836c9ecfd66a86ac3b53dab8e7450d674e40dd8c3d47af1cb8a64736f6c634300081a0033","linkReferences":{}},"methodIdentifiers":{"_getAccountDetails(address)":"aab53977","depositeCollatoral(address,uint256)":"0c5eaa29","getTokenPriceInUSD(address,uint256)":"fc927400","mintDsc(uint256)":"c9b7c327"},"id":36}