{"abi":[{"type":"constructor","inputs":[{"name":"tokenAddress","type":"address[]","internalType":"address[]"},{"name":"collatoralAddress","type":"address[]","internalType":"address[]"},{"name":"dscAddress","type":"address","internalType":"address"}],"stateMutability":"nonpayable"},{"type":"function","name":"depositeCollatoral","inputs":[{"name":"_toAddress","type":"address","internalType":"address"},{"name":"_amount","type":"uint256","internalType":"uint256"}],"outputs":[],"stateMutability":"nonpayable"},{"type":"error","name":"DSCEngine__ValueNonNegative","inputs":[]},{"type":"error","name":"DSCEngine__WrongArgumentsProvided","inputs":[]}],"bytecode":{"object":"0x60a060405234801561001057600080fd5b5060405161033238038061033283398101604081905261002f916101bd565b81518351146100515760405163133c5de960e21b815260040160405180910390fd5b60005b83518110156100d05782818151811061006f5761006f610236565b602002602001015160008086848151811061008c5761008c610236565b6020908102919091018101516001600160a01b0390811683529082019290925260400160002080546001600160a01b03191692909116919091179055600101610054565b506001600160a01b03166080525061024c9050565b634e487b7160e01b600052604160045260246000fd5b80516001600160a01b038116811461011257600080fd5b919050565b600082601f83011261012857600080fd5b81516001600160401b03811115610141576101416100e5565b604051600582901b90603f8201601f191681016001600160401b038111828210171561016f5761016f6100e5565b60405291825260208185018101929081018684111561018d57600080fd5b6020860192505b838310156101b3576101a5836100fb565b815260209283019201610194565b5095945050505050565b6000806000606084860312156101d257600080fd5b83516001600160401b038111156101e857600080fd5b6101f486828701610117565b602086015190945090506001600160401b0381111561021257600080fd5b61021e86828701610117565b92505061022d604085016100fb565b90509250925092565b634e487b7160e01b600052603260045260246000fd5b60805160d06102626000396000505060d06000f3fe6080604052348015600f57600080fd5b506004361060285760003560e01c80630c5eaa2914602d575b600080fd5b603c60383660046064565b603e565b005b8060008111605f57604051639eeac6b760e01b815260040160405180910390fd5b505050565b60008060408385031215607657600080fd5b82356001600160a01b0381168114608c57600080fd5b94602093909301359350505056fea26469706673582212203550fd76b61adba6bd14f9692512bd89504d5a587853611b879bcd93f360c3f764736f6c634300081a0033","linkReferences":{}},"methodIdentifiers":{"depositeCollatoral(address,uint256)":"0c5eaa29"},"id":32}