{"abi":[{"type":"constructor","inputs":[{"name":"_priceFeed","type":"address","internalType":"address"}],"stateMutability":"nonpayable"},{"type":"fallback","stateMutability":"payable"},{"type":"receive","stateMutability":"payable"},{"type":"function","name":"MINIMUM_USD","inputs":[],"outputs":[{"name":"","type":"uint256","internalType":"uint256"}],"stateMutability":"view"},{"type":"function","name":"fund","inputs":[],"outputs":[],"stateMutability":"payable"},{"type":"function","name":"getAddressToAmount","inputs":[{"name":"_address","type":"address","internalType":"address"}],"outputs":[{"name":"","type":"uint256","internalType":"uint256"}],"stateMutability":"view"},{"type":"function","name":"getFunder","inputs":[{"name":"_index","type":"uint256","internalType":"uint256"}],"outputs":[{"name":"","type":"address","internalType":"address"}],"stateMutability":"view"},{"type":"function","name":"getOwner","inputs":[],"outputs":[{"name":"","type":"address","internalType":"address"}],"stateMutability":"view"},{"type":"function","name":"getVersion","inputs":[],"outputs":[{"name":"","type":"uint256","internalType":"uint256"}],"stateMutability":"view"},{"type":"function","name":"withdraw","inputs":[],"outputs":[],"stateMutability":"nonpayable"},{"type":"error","name":"NotOwner","inputs":[]}],"bytecode":{"object":"0x608060405234801561001057600080fd5b506040516107b63803806107b683398101604081905261002f91610062565b60038054336001600160a01b031991821617909155600080549091166001600160a01b0392909216919091179055610092565b60006020828403121561007457600080fd5b81516001600160a01b038116811461008b57600080fd5b9392505050565b610715806100a16000396000f3fe6080604052600436106100745760003560e01c8063893d20e81161004e578063893d20e8146100e4578063b60d428814610083578063c0f8cffc14610116578063d7b4750c1461014c57610083565b80630d8e6e2c1461008b5780633ccfd60b146100b35780636b69a592146100c857610083565b366100835761008161016c565b005b61008161016c565b34801561009757600080fd5b506100a0610248565b6040519081526020015b60405180910390f35b3480156100bf57600080fd5b506100816102c5565b3480156100d457600080fd5b506100a0674563918244f4000081565b3480156100f057600080fd5b506003546001600160a01b03165b6040516001600160a01b0390911681526020016100aa565b34801561012257600080fd5b506100a0610131366004610554565b6001600160a01b031660009081526001602052604090205490565b34801561015857600080fd5b506100fe61016736600461057d565b6103ef565b600054674563918244f400009061018d9034906001600160a01b031661041f565b10156101e05760405162461bcd60e51b815260206004820152601b60248201527f596f75206e65656420746f207370656e64206d6f72652045544821000000000060448201526064015b60405180910390fd5b33600090815260016020526040812080543492906101ff9084906105ac565b9091555050600280546001810182556000919091527f405787fa12a823e0f2b7631cc41b3ba8828b3321ca811111fa75cd3aa3bb5ace0180546001600160a01b03191633179055565b60008060009054906101000a90046001600160a01b03166001600160a01b03166354fd4d506040518163ffffffff1660e01b8152600401602060405180830381865afa15801561029c573d6000803e3d6000fd5b505050506040513d601f19601f820116820180604052508101906102c091906105bf565b905090565b6003546001600160a01b031633146102f0576040516330cd747160e01b815260040160405180910390fd5b60005b60025481101561034757600060028281548110610312576103126105d8565b60009182526020808320909101546001600160a01b03168252600190526040812055508061033f816105ee565b9150506102f3565b506040805160008152602081019182905251610365916002916104da565b50604051600090339047908381818185875af1925050503d80600081146103a8576040519150601f19603f3d011682016040523d82523d6000602084013e6103ad565b606091505b50509050806103ec5760405162461bcd60e51b815260206004820152600b60248201526a10d85b1b0819985a5b195960aa1b60448201526064016101d7565b50565b600060028281548110610404576104046105d8565b6000918252602090912001546001600160a01b031692915050565b60008061042b83610457565b90506000670de0b6b3a76400006104428684610607565b61044c919061061e565b925050505b92915050565b600080826001600160a01b031663feaf968c6040518163ffffffff1660e01b815260040160a060405180830381865afa158015610498573d6000803e3d6000fd5b505050506040513d601f19601f820116820180604052508101906104bc919061065f565b505050915050806402540be4006104d391906106af565b9392505050565b82805482825590600052602060002090810192821561052f579160200282015b8281111561052f57825182546001600160a01b0319166001600160a01b039091161782556020909201916001909101906104fa565b5061053b92915061053f565b5090565b5b8082111561053b5760008155600101610540565b60006020828403121561056657600080fd5b81356001600160a01b03811681146104d357600080fd5b60006020828403121561058f57600080fd5b5035919050565b634e487b7160e01b600052601160045260246000fd5b8082018082111561045157610451610596565b6000602082840312156105d157600080fd5b5051919050565b634e487b7160e01b600052603260045260246000fd5b60006001820161060057610600610596565b5060010190565b808202811582820484141761045157610451610596565b60008261063b57634e487b7160e01b600052601260045260246000fd5b500490565b805169ffffffffffffffffffff8116811461065a57600080fd5b919050565b600080600080600060a0868803121561067757600080fd5b61068086610640565b94506020860151935060408601519250606086015191506106a360808701610640565b90509295509295909350565b80820260008212600160ff1b841416156106cb576106cb610596565b81810583148215176104515761045161059656fea26469706673582212200dbdcb3263b85c7962ab461c8512eeb309eec846addb0d8ab70243c2fcea380c64736f6c63430008130033","linkReferences":{}},"methodIdentifiers":{"MINIMUM_USD()":"6b69a592","fund()":"b60d4288","getAddressToAmount(address)":"c0f8cffc","getFunder(uint256)":"d7b4750c","getOwner()":"893d20e8","getVersion()":"0d8e6e2c","withdraw()":"3ccfd60b"},"id":22}