{"abi":[{"type":"constructor","inputs":[{"name":"_baseFee","type":"uint96","internalType":"uint96"},{"name":"_gasPrice","type":"uint96","internalType":"uint96"},{"name":"_weiPerUnitLink","type":"int256","internalType":"int256"}],"stateMutability":"nonpayable"},{"type":"function","name":"LINK","inputs":[],"outputs":[{"name":"","type":"address","internalType":"contract LinkTokenInterface"}],"stateMutability":"view"},{"type":"function","name":"LINK_NATIVE_FEED","inputs":[],"outputs":[{"name":"","type":"address","internalType":"contract AggregatorV3Interface"}],"stateMutability":"view"},{"type":"function","name":"MAX_CONSUMERS","inputs":[],"outputs":[{"name":"","type":"uint16","internalType":"uint16"}],"stateMutability":"view"},{"type":"function","name":"acceptOwnership","inputs":[],"outputs":[],"stateMutability":"nonpayable"},{"type":"function","name":"acceptSubscriptionOwnerTransfer","inputs":[{"name":"subId","type":"uint256","internalType":"uint256"}],"outputs":[],"stateMutability":"nonpayable"},{"type":"function","name":"addConsumer","inputs":[{"name":"subId","type":"uint256","internalType":"uint256"},{"name":"consumer","type":"address","internalType":"address"}],"outputs":[],"stateMutability":"nonpayable"},{"type":"function","name":"cancelSubscription","inputs":[{"name":"_subId","type":"uint256","internalType":"uint256"},{"name":"_to","type":"address","internalType":"address"}],"outputs":[],"stateMutability":"nonpayable"},{"type":"function","name":"consumerIsAdded","inputs":[{"name":"_subId","type":"uint256","internalType":"uint256"},{"name":"_consumer","type":"address","internalType":"address"}],"outputs":[{"name":"","type":"bool","internalType":"bool"}],"stateMutability":"view"},{"type":"function","name":"createSubscription","inputs":[],"outputs":[{"name":"subId","type":"uint256","internalType":"uint256"}],"stateMutability":"nonpayable"},{"type":"function","name":"fulfillRandomWords","inputs":[{"name":"_requestId","type":"uint256","internalType":"uint256"},{"name":"_consumer","type":"address","internalType":"address"}],"outputs":[],"stateMutability":"nonpayable"},{"type":"function","name":"fulfillRandomWordsWithOverride","inputs":[{"name":"_requestId","type":"uint256","internalType":"uint256"},{"name":"_consumer","type":"address","internalType":"address"},{"name":"_words","type":"uint256[]","internalType":"uint256[]"}],"outputs":[],"stateMutability":"nonpayable"},{"type":"function","name":"fundSubscription","inputs":[{"name":"_subId","type":"uint256","internalType":"uint256"},{"name":"_amount","type":"uint256","internalType":"uint256"}],"outputs":[],"stateMutability":"nonpayable"},{"type":"function","name":"fundSubscriptionWithNative","inputs":[{"name":"subId","type":"uint256","internalType":"uint256"}],"outputs":[],"stateMutability":"payable"},{"type":"function","name":"getActiveSubscriptionIds","inputs":[{"name":"startIndex","type":"uint256","internalType":"uint256"},{"name":"maxCount","type":"uint256","internalType":"uint256"}],"outputs":[{"name":"ids","type":"uint256[]","internalType":"uint256[]"}],"stateMutability":"view"},{"type":"function","name":"getSubscription","inputs":[{"name":"subId","type":"uint256","internalType":"uint256"}],"outputs":[{"name":"balance","type":"uint96","internalType":"uint96"},{"name":"nativeBalance","type":"uint96","internalType":"uint96"},{"name":"reqCount","type":"uint64","internalType":"uint64"},{"name":"subOwner","type":"address","internalType":"address"},{"name":"consumers","type":"address[]","internalType":"address[]"}],"stateMutability":"view"},{"type":"function","name":"i_base_fee","inputs":[],"outputs":[{"name":"","type":"uint96","internalType":"uint96"}],"stateMutability":"view"},{"type":"function","name":"i_gas_price","inputs":[],"outputs":[{"name":"","type":"uint96","internalType":"uint96"}],"stateMutability":"view"},{"type":"function","name":"i_wei_per_unit_link","inputs":[],"outputs":[{"name":"","type":"int256","internalType":"int256"}],"stateMutability":"view"},{"type":"function","name":"onTokenTransfer","inputs":[{"name":"","type":"address","internalType":"address"},{"name":"amount","type":"uint256","internalType":"uint256"},{"name":"data","type":"bytes","internalType":"bytes"}],"outputs":[],"stateMutability":"nonpayable"},{"type":"function","name":"owner","inputs":[],"outputs":[{"name":"","type":"address","internalType":"address"}],"stateMutability":"view"},{"type":"function","name":"ownerCancelSubscription","inputs":[{"name":"subId","type":"uint256","internalType":"uint256"}],"outputs":[],"stateMutability":"nonpayable"},{"type":"function","name":"pendingRequestExists","inputs":[{"name":"","type":"uint256","internalType":"uint256"}],"outputs":[{"name":"","type":"bool","internalType":"bool"}],"stateMutability":"pure"},{"type":"function","name":"recoverFunds","inputs":[{"name":"to","type":"address","internalType":"address"}],"outputs":[],"stateMutability":"nonpayable"},{"type":"function","name":"recoverNativeFunds","inputs":[{"name":"to","type":"address","internalType":"address payable"}],"outputs":[],"stateMutability":"nonpayable"},{"type":"function","name":"removeConsumer","inputs":[{"name":"_subId","type":"uint256","internalType":"uint256"},{"name":"_consumer","type":"address","internalType":"address"}],"outputs":[],"stateMutability":"nonpayable"},{"type":"function","name":"requestRandomWords","inputs":[{"name":"_req","type":"tuple","internalType":"struct VRFV2PlusClient.RandomWordsRequest","components":[{"name":"keyHash","type":"bytes32","internalType":"bytes32"},{"name":"subId","type":"uint256","internalType":"uint256"},{"name":"requestConfirmations","type":"uint16","internalType":"uint16"},{"name":"callbackGasLimit","type":"uint32","internalType":"uint32"},{"name":"numWords","type":"uint32","internalType":"uint32"},{"name":"extraArgs","type":"bytes","internalType":"bytes"}]}],"outputs":[{"name":"","type":"uint256","internalType":"uint256"}],"stateMutability":"nonpayable"},{"type":"function","name":"requestSubscriptionOwnerTransfer","inputs":[{"name":"subId","type":"uint256","internalType":"uint256"},{"name":"newOwner","type":"address","internalType":"address"}],"outputs":[],"stateMutability":"nonpayable"},{"type":"function","name":"s_config","inputs":[],"outputs":[{"name":"minimumRequestConfirmations","type":"uint16","internalType":"uint16"},{"name":"maxGasLimit","type":"uint32","internalType":"uint32"},{"name":"reentrancyLock","type":"bool","internalType":"bool"},{"name":"stalenessSeconds","type":"uint32","internalType":"uint32"},{"name":"gasAfterPaymentCalculation","type":"uint32","internalType":"uint32"},{"name":"fulfillmentFlatFeeNativePPM","type":"uint32","internalType":"uint32"},{"name":"fulfillmentFlatFeeLinkDiscountPPM","type":"uint32","internalType":"uint32"},{"name":"nativePremiumPercentage","type":"uint8","internalType":"uint8"},{"name":"linkPremiumPercentage","type":"uint8","internalType":"uint8"}],"stateMutability":"view"},{"type":"function","name":"s_currentSubNonce","inputs":[],"outputs":[{"name":"","type":"uint64","internalType":"uint64"}],"stateMutability":"view"},{"type":"function","name":"s_totalBalance","inputs":[],"outputs":[{"name":"","type":"uint96","internalType":"uint96"}],"stateMutability":"view"},{"type":"function","name":"s_totalNativeBalance","inputs":[],"outputs":[{"name":"","type":"uint96","internalType":"uint96"}],"stateMutability":"view"},{"type":"function","name":"setConfig","inputs":[],"outputs":[],"stateMutability":"nonpayable"},{"type":"function","name":"setLINKAndLINKNativeFeed","inputs":[{"name":"link","type":"address","internalType":"address"},{"name":"linkNativeFeed","type":"address","internalType":"address"}],"outputs":[],"stateMutability":"nonpayable"},{"type":"function","name":"transferOwnership","inputs":[{"name":"to","type":"address","internalType":"address"}],"outputs":[],"stateMutability":"nonpayable"},{"type":"function","name":"withdraw","inputs":[{"name":"recipient","type":"address","internalType":"address"}],"outputs":[],"stateMutability":"nonpayable"},{"type":"function","name":"withdrawNative","inputs":[{"name":"recipient","type":"address","internalType":"address payable"}],"outputs":[],"stateMutability":"nonpayable"},{"type":"event","name":"ConfigSet","inputs":[],"anonymous":false},{"type":"event","name":"FundsRecovered","inputs":[{"name":"to","type":"address","indexed":false,"internalType":"address"},{"name":"amount","type":"uint256","indexed":false,"internalType":"uint256"}],"anonymous":false},{"type":"event","name":"NativeFundsRecovered","inputs":[{"name":"to","type":"address","indexed":false,"internalType":"address"},{"name":"amount","type":"uint256","indexed":false,"internalType":"uint256"}],"anonymous":false},{"type":"event","name":"OwnershipTransferRequested","inputs":[{"name":"from","type":"address","indexed":true,"internalType":"address"},{"name":"to","type":"address","indexed":true,"internalType":"address"}],"anonymous":false},{"type":"event","name":"OwnershipTransferred","inputs":[{"name":"from","type":"address","indexed":true,"internalType":"address"},{"name":"to","type":"address","indexed":true,"internalType":"address"}],"anonymous":false},{"type":"event","name":"RandomWordsFulfilled","inputs":[{"name":"requestId","type":"uint256","indexed":true,"internalType":"uint256"},{"name":"outputSeed","type":"uint256","indexed":false,"internalType":"uint256"},{"name":"subId","type":"uint256","indexed":true,"internalType":"uint256"},{"name":"payment","type":"uint96","indexed":false,"internalType":"uint96"},{"name":"nativePayment","type":"bool","indexed":false,"internalType":"bool"},{"name":"success","type":"bool","indexed":false,"internalType":"bool"},{"name":"onlyPremium","type":"bool","indexed":false,"internalType":"bool"}],"anonymous":false},{"type":"event","name":"RandomWordsRequested","inputs":[{"name":"keyHash","type":"bytes32","indexed":true,"internalType":"bytes32"},{"name":"requestId","type":"uint256","indexed":false,"internalType":"uint256"},{"name":"preSeed","type":"uint256","indexed":false,"internalType":"uint256"},{"name":"subId","type":"uint256","indexed":true,"internalType":"uint256"},{"name":"minimumRequestConfirmations","type":"uint16","indexed":false,"internalType":"uint16"},{"name":"callbackGasLimit","type":"uint32","indexed":false,"internalType":"uint32"},{"name":"numWords","type":"uint32","indexed":false,"internalType":"uint32"},{"name":"extraArgs","type":"bytes","indexed":false,"internalType":"bytes"},{"name":"sender","type":"address","indexed":true,"internalType":"address"}],"anonymous":false},{"type":"event","name":"SubscriptionCanceled","inputs":[{"name":"subId","type":"uint256","indexed":true,"internalType":"uint256"},{"name":"to","type":"address","indexed":false,"internalType":"address"},{"name":"amountLink","type":"uint256","indexed":false,"internalType":"uint256"},{"name":"amountNative","type":"uint256","indexed":false,"internalType":"uint256"}],"anonymous":false},{"type":"event","name":"SubscriptionConsumerAdded","inputs":[{"name":"subId","type":"uint256","indexed":true,"internalType":"uint256"},{"name":"consumer","type":"address","indexed":false,"internalType":"address"}],"anonymous":false},{"type":"event","name":"SubscriptionConsumerRemoved","inputs":[{"name":"subId","type":"uint256","indexed":true,"internalType":"uint256"},{"name":"consumer","type":"address","indexed":false,"internalType":"address"}],"anonymous":false},{"type":"event","name":"SubscriptionCreated","inputs":[{"name":"subId","type":"uint256","indexed":true,"internalType":"uint256"},{"name":"owner","type":"address","indexed":false,"internalType":"address"}],"anonymous":false},{"type":"event","name":"SubscriptionFunded","inputs":[{"name":"subId","type":"uint256","indexed":true,"internalType":"uint256"},{"name":"oldBalance","type":"uint256","indexed":false,"internalType":"uint256"},{"name":"newBalance","type":"uint256","indexed":false,"internalType":"uint256"}],"anonymous":false},{"type":"event","name":"SubscriptionFundedWithNative","inputs":[{"name":"subId","type":"uint256","indexed":true,"internalType":"uint256"},{"name":"oldNativeBalance","type":"uint256","indexed":false,"internalType":"uint256"},{"name":"newNativeBalance","type":"uint256","indexed":false,"internalType":"uint256"}],"anonymous":false},{"type":"event","name":"SubscriptionOwnerTransferRequested","inputs":[{"name":"subId","type":"uint256","indexed":true,"internalType":"uint256"},{"name":"from","type":"address","indexed":false,"internalType":"address"},{"name":"to","type":"address","indexed":false,"internalType":"address"}],"anonymous":false},{"type":"event","name":"SubscriptionOwnerTransferred","inputs":[{"name":"subId","type":"uint256","indexed":true,"internalType":"uint256"},{"name":"from","type":"address","indexed":false,"internalType":"address"},{"name":"to","type":"address","indexed":false,"internalType":"address"}],"anonymous":false},{"type":"error","name":"BalanceInvariantViolated","inputs":[{"name":"internalBalance","type":"uint256","internalType":"uint256"},{"name":"externalBalance","type":"uint256","internalType":"uint256"}]},{"type":"error","name":"FailedToSendNative","inputs":[]},{"type":"error","name":"FailedToTransferLink","inputs":[]},{"type":"error","name":"IndexOutOfRange","inputs":[]},{"type":"error","name":"InsufficientBalance","inputs":[]},{"type":"error","name":"InvalidCalldata","inputs":[]},{"type":"error","name":"InvalidConsumer","inputs":[{"name":"subId","type":"uint256","internalType":"uint256"},{"name":"consumer","type":"address","internalType":"address"}]},{"type":"error","name":"InvalidExtraArgsTag","inputs":[]},{"type":"error","name":"InvalidRandomWords","inputs":[]},{"type":"error","name":"InvalidRequest","inputs":[]},{"type":"error","name":"InvalidSubscription","inputs":[]},{"type":"error","name":"LinkAlreadySet","inputs":[]},{"type":"error","name":"LinkNotSet","inputs":[]},{"type":"error","name":"MustBeRequestedOwner","inputs":[{"name":"proposedOwner","type":"address","internalType":"address"}]},{"type":"error","name":"MustBeSubOwner","inputs":[{"name":"owner","type":"address","internalType":"address"}]},{"type":"error","name":"NotImplemented","inputs":[]},{"type":"error","name":"OnlyCallableFromLink","inputs":[]},{"type":"error","name":"PendingRequestExists","inputs":[]},{"type":"error","name":"Reentrant","inputs":[]},{"type":"error","name":"TooManyConsumers","inputs":[]}],"bytecode":{"object":"0x60e06040526001600e556064600f553480156200001b57600080fd5b5060405162003a8f38038062003a8f8339810160408190526200003e91620002a7565b3380600081620000955760405162461bcd60e51b815260206004820152601860248201527f43616e6e6f7420736574206f776e657220746f207a65726f000000000000000060448201526064015b60405180910390fd5b600080546001600160a01b0319166001600160a01b0384811691909117909155811615620000c857620000c881620000f6565b5050506001600160601b03808416608052821660a05260c0819052620000ed620001a1565b505050620002e8565b336001600160a01b03821603620001505760405162461bcd60e51b815260206004820152601760248201527f43616e6e6f74207472616e7366657220746f2073656c6600000000000000000060448201526064016200008c565b600180546001600160a01b0319166001600160a01b0383811691821790925560008054604051929316917fed8889f560326eb138920d842192f0eb3dd22b4f139c87a2c57538e05bae12789190a350565b620001ab6200022c565b6040805161012081018252600080825260208201819052818301819052606082018190526080820181905260a0820181905260c0820181905260e08201819052610100909101819052600c80546001600160c81b031916905590517f4b2974a542484cba2783812ff8033f7fc682cac2fe0905c28c5e27869b3155be9190a1565b6000546001600160a01b03163314620002885760405162461bcd60e51b815260206004820152601660248201527f4f6e6c792063616c6c61626c65206279206f776e65720000000000000000000060448201526064016200008c565b565b80516001600160601b0381168114620002a257600080fd5b919050565b600080600060608486031215620002bd57600080fd5b620002c8846200028a565b9250620002d8602085016200028a565b9150604084015190509250925092565b60805160a05160c0516137626200032d6000396000818161035f0152610bce01526000818161078a0152610b550152600081816104180152610ba001526137626000f3fe60806040526004361061020f5760003560e01c80638b673e7a11610118578063aefb212f116100a0578063dac83d291161006f578063dac83d2914610727578063dc311dd314610747578063dcab3dcf14610778578063e72f6e30146107ac578063f2fde38b146107cc57600080fd5b8063aefb212f1461069a578063b2a7cac5146106c7578063bec4c08c146106e7578063cb6317971461070757600080fd5b80639b1c385e116100e75780639b1c385e146105ed5780639d40a6fd1461060d578063a21a23e414610645578063a4c0ed361461065a578063aa433aff1461067a57600080fd5b80638b673e7a146105875780638da5cb5b1461059c578063953e9c75146105ba57806395b55cfc146105da57600080fd5b806341af6c871161019b57806372e9d5651161016a57806372e9d565146104f257806379ba509714610512578063808974ff146105275780638402595e1461054757806386fe91c71461056757600080fd5b806341af6c871461045a57806351cff8d91461048a57806364d51a2a146104aa57806365982744146104d257600080fd5b806313478329116101e2578063134783291461034d57806318e3dd271461038f5780631b6b6d23146103ce5780631eebc117146104065780632f622e6b1461043a57600080fd5b8063088070f51461021457806308e3898e146102eb5780630ae095401461030d578063115e3c0d1461032d575b600080fd5b34801561022057600080fd5b50600c546102899061ffff81169063ffffffff62010000820481169160ff600160301b82048116926701000000000000008304811692600160581b8104821692600160781b8204831692600160981b83041691600160b81b8104821691600160c01b9091041689565b6040805161ffff909a168a5263ffffffff98891660208b01529615159689019690965293861660608801529185166080870152841660a08601529290921660c084015260ff91821660e084015216610100820152610120015b60405180910390f35b3480156102f757600080fd5b5061030b610306366004612f42565b6107ec565b005b34801561031957600080fd5b5061030b610328366004613005565b610cbb565b34801561033957600080fd5b5061030b610348366004613035565b610dbb565b34801561035957600080fd5b506103817f000000000000000000000000000000000000000000000000000000000000000081565b6040519081526020016102e2565b34801561039b57600080fd5b50600a546103b690600160601b90046001600160601b031681565b6040516001600160601b0390911681526020016102e2565b3480156103da57600080fd5b506002546103ee906001600160a01b031681565b6040516001600160a01b0390911681526020016102e2565b34801561041257600080fd5b506103b67f000000000000000000000000000000000000000000000000000000000000000081565b34801561044657600080fd5b5061030b610455366004613057565b610ecf565b34801561046657600080fd5b5061047a610475366004613074565b611023565b60405190151581526020016102e2565b34801561049657600080fd5b5061030b6104a5366004613057565b61103e565b3480156104b657600080fd5b506104bf606481565b60405161ffff90911681526020016102e2565b3480156104de57600080fd5b5061030b6104ed36600461308d565b6111c0565b3480156104fe57600080fd5b506003546103ee906001600160a01b031681565b34801561051e57600080fd5b5061030b611220565b34801561053357600080fd5b5061030b610542366004613005565b6112cf565b34801561055357600080fd5b5061030b610562366004613057565b6112f3565b34801561057357600080fd5b50600a546103b6906001600160601b031681565b34801561059357600080fd5b5061030b61140e565b3480156105a857600080fd5b506000546001600160a01b03166103ee565b3480156105c657600080fd5b5061047a6105d5366004613005565b611497565b61030b6105e8366004613074565b6114c5565b3480156105f957600080fd5b506103816106083660046130bb565b6115e9565b34801561061957600080fd5b5060075461062d906001600160401b031681565b6040516001600160401b0390911681526020016102e2565b34801561065157600080fd5b5061038161184d565b34801561066657600080fd5b5061030b6106753660046130f5565b611a23565b34801561068657600080fd5b5061030b610695366004613074565b611b94565b3480156106a657600080fd5b506106ba6106b5366004613035565b611bdc565b6040516102e291906131b8565b3480156106d357600080fd5b5061030b6106e2366004613074565b611cdd565b3480156106f357600080fd5b5061030b610702366004613005565b611de1565b34801561071357600080fd5b5061030b610722366004613005565b611ed4565b34801561073357600080fd5b5061030b610742366004613005565b612162565b34801561075357600080fd5b50610767610762366004613074565b6121fc565b6040516102e29594939291906131cb565b34801561078457600080fd5b506103b67f000000000000000000000000000000000000000000000000000000000000000081565b3480156107b857600080fd5b5061030b6107c7366004613057565b6122ea565b3480156107d857600080fd5b5061030b6107e7366004613057565b6124b4565b60005a9050610830604051806040016040528060078152602001662f2f2f2f2f2f2f60c81b81525060106000878152602001908152602001600020600001546124c8565b600084815260106020526040812054900361085e576040516341abc80160e01b815260040160405180910390fd5b6000848152601060209081526040808320815160808101835281548152600182015463ffffffff808216958301959095526401000000009004909316918301919091526002810180546060840191906108b690613251565b80601f01602080910402602001604051908101604052809291908181526020018280546108e290613251565b801561092f5780601f106109045761010080835404028352916020019161092f565b820191906000526020600020905b81548152906001019060200180831161091257829003601f168201915b50505050508152505090508251600003610a0857806040015163ffffffff166001600160401b0381111561096557610965612efc565b60405190808252806020026020018201604052801561098e578160200160208202803683370190505b50925060005b816040015163ffffffff16811015610a025760408051602081018890529081018290526060016040516020818303038152906040528051906020012060001c8482815181106109e5576109e561328b565b6020908102919091010152806109fa816132b7565b915050610994565b50610a33565b806040015163ffffffff16835114610a3357604051631f9efadb60e11b815260040160405180910390fd5b600080631fe543e360e01b8786604051602401610a519291906132d0565b60408051601f19818403018152918152602080830180516001600160e01b03166001600160e01b031990951694909417909352600c805466ff0000000000001916600160301b1790559185015191519092506000916001600160a01b0389169163ffffffff90911690610ac5908590613315565b60006040518083038160008787f1925050503d8060008114610b03576040519150601f19603f3d011682016040523d82523d6000602084013e610b08565b606091505b5050600c805466ff0000000000001916905560608501518051919250600091610b3390600190613331565b81518110610b4357610b4361328b565b60209101015160f81c600114905060007f00000000000000000000000000000000000000000000000000000000000000006001600160601b03165a610b889089613331565b610b929190613344565b610bc5906001600160601b037f00000000000000000000000000000000000000000000000000000000000000001661335b565b905081610c0c577f0000000000000000000000000000000000000000000000000000000000000000610bff82670de0b6b3a7640000613344565b610c09919061336e565b90505b85518190610c1d908290859061250d565b60008b815260106020526040812081815560018101805467ffffffffffffffff1916905590610c4f6002830182612e19565b50508651604080518d81526001600160601b03841660208201528515158183015286151560608201526000608082015290518d917faeb4b4786571e184246d39587f659abf0e26f41f6a3358692250382c0cdb47b7919081900360a00190a35050505050505050505050565b81610cc58161266a565b610ccd6126d4565b600080610cd985612701565b915091506000846001600160a01b0316826001600160601b031660405160006040518083038185875af1925050503d8060008114610d33576040519150601f19603f3d011682016040523d82523d6000602084013e610d38565b606091505b5050905080610d5a5760405163950b247960e01b815260040160405180910390fd5b604080516001600160a01b03871681526001600160601b03808616602083015284169181019190915286907f8c74ce8b8cf87f5eb001275c8be27eb34ea2b62bfab6814fcc62192bb63e81c4906060015b60405180910390a2505050505050565b6000828152600560205260409020546001600160a01b0316610df057604051630fb532db60e11b815260040160405180910390fd5b600082815260066020526040812080546001600160601b031691839190610e178385613390565b92506101000a8154816001600160601b0302191690836001600160601b0316021790555081600a60008282829054906101000a90046001600160601b0316610e5f9190613390565b92506101000a8154816001600160601b0302191690836001600160601b03160217905550827f1ced9348ff549fceab2ac57cd3a9de38edaaab274b725ee82c23e8fc8c4eec7a828484610eb2919061335b565b6040805192835260208301919091520160405180910390a2505050565b610ed76126d4565b610edf6128b3565b600b54600160601b90046001600160601b0316600003610f1257604051631e9acf1760e31b815260040160405180910390fd5b600b8054600160601b90046001600160601b0316908190600c610f3583806133b0565b92506101000a8154816001600160601b0302191690836001600160601b0316021790555080600a600c8282829054906101000a90046001600160601b0316610f7d91906133b0565b92506101000a8154816001600160601b0302191690836001600160601b031602179055506000826001600160a01b0316826001600160601b031660405160006040518083038185875af1925050503d8060008114610ff7576040519150601f19603f3d011682016040523d82523d6000602084013e610ffc565b606091505b505090508061101e5760405163950b247960e01b815260040160405180910390fd5b505050565b600060405163d623472560e01b815260040160405180910390fd5b6110466126d4565b61104e6128b3565b6002546001600160a01b03166110775760405163c1f0c0a160e01b815260040160405180910390fd5b600b546001600160601b03166000036110a357604051631e9acf1760e31b815260040160405180910390fd5b600b80546001600160601b031690819060006110bf83806133b0565b92506101000a8154816001600160601b0302191690836001600160601b0316021790555080600a60008282829054906101000a90046001600160601b031661110791906133b0565b82546101009290920a6001600160601b0381810219909316918316021790915560025460405163a9059cbb60e01b81526001600160a01b03868116600483015292851660248201529116915063a9059cbb906044016020604051808303816000875af115801561117b573d6000803e3d6000fd5b505050506040513d601f19601f8201168201806040525081019061119f91906133de565b6111bc57604051631e9acf1760e31b815260040160405180910390fd5b5050565b6111c86128b3565b6002546001600160a01b0316156111f257604051631688c53760e11b815260040160405180910390fd5b600280546001600160a01b039384166001600160a01b03199182161790915560038054929093169116179055565b6001546001600160a01b031633146112785760405162461bcd60e51b815260206004820152601660248201527526bab9ba10313290383937b837b9b2b21037bbb732b960511b60448201526064015b60405180910390fd5b60008054336001600160a01b0319808316821784556001805490911690556040516001600160a01b0390921692909183917f8be0079c531659141344cd1fd0a4f28419497f9722a3daafe3b4186f6b6457e091a350565b6112d76126d4565b6040805160008152602081019091526111bc90839083906107ec565b6112fb6128b3565b600a544790600160601b90046001600160601b03168181111561133b576040516354ced18160e11b8152600481018290526024810183905260440161126f565b8181101561101e57600061134f8284613331565b90506000846001600160a01b03168260405160006040518083038185875af1925050503d806000811461139e576040519150601f19603f3d011682016040523d82523d6000602084013e6113a3565b606091505b50509050806113c55760405163950b247960e01b815260040160405180910390fd5b604080516001600160a01b0387168152602081018490527f4aed7c8eed0496c8c19ea2681fcca25741c1602342e38b045d9f1e8e905d2e9c910160405180910390a15050505050565b6114166128b3565b6040805161012081018252600080825260208201819052818301819052606082018190526080820181905260a0820181905260c0820181905260e08201819052610100909101819052600c80546001600160c81b031916905590517f4b2974a542484cba2783812ff8033f7fc682cac2fe0905c28c5e27869b3155be9190a1565b6001600160a01b038116600090815260046020908152604080832085845290915290205460ff165b92915050565b6114cd6126d4565b6000818152600560205260409020546001600160a01b031661150257604051630fb532db60e11b815260040160405180910390fd5b60008181526006602052604090208054600160601b90046001600160601b0316903490600c6115318385613390565b92506101000a8154816001600160601b0302191690836001600160601b0316021790555034600a600c8282829054906101000a90046001600160601b03166115799190613390565b92506101000a8154816001600160601b0302191690836001600160601b03160217905550817f7603b205d03651ee812f803fccde89f1012e545a9c99f0abfea9cedd0fd8e9028234846115cc919061335b565b604080519283526020830191909152015b60405180910390a25050565b60006115f36126d4565b8160200135336116038282611497565b611632576040516379bfd40160e01b8152600481018390526001600160a01b038216602482015260440161126f565b602080850135600081815260059092526040909120546001600160a01b031661166e57604051630fb532db60e11b815260040160405180910390fd5b600e80546000918261167f836132b7565b90915550600f80549192506000919082611698836132b7565b90915550905060006116bd6116b86116b360a08b018b6133fb565b612906565b61298e565b90506040518060800160405280896020013581526020018960600160208101906116e79190613448565b63ffffffff16815260200161170260a08b0160808c01613448565b63ffffffff16815260200161171a60a08b018b6133fb565b8080601f01602080910402602001604051908101604052809392919081815260200183838082843760009201829052509390945250508581526010602090815260409182902084518155908401516001820180549386015163ffffffff9081166401000000000267ffffffffffffffff1990951692169190911792909217909155606083015190915060028201906117b290826134bc565b50905050336001600160a01b0316886020013589600001357feb0e3652e0f44f417695e6e90f2f42c99b65cd7169074c5a654b16b9748c3a4e86868d6040016020810190611800919061357b565b8e60600160208101906118139190613448565b8f60800160208101906118269190613448565b89604051611839969594939291906135cb565b60405180910390a450909695505050505050565b60006118576126d4565b6007546001600160401b03163361186f600143613331565b6040516bffffffffffffffffffffffff19606093841b81166020830152914060348201523090921b1660548201526001600160c01b031960c083901b16606882015260700160408051601f19818403018152919052805160209091012091506118d9816001613616565b6007805467ffffffffffffffff19166001600160401b03928316179055604080516000808252608082018352602080830182815283850183815260608086018581528a86526006855287862093518454935191516001600160601b039182166001600160c01b031990951694909417600160601b9190921602176001600160c01b0316600160c01b9290981691909102969096179055835194850184523385528481018281528585018481528884526005835294909220855181546001600160a01b03199081166001600160a01b0392831617835593516001830180549095169116179092559251805192949391926119d89260028501920190612e53565b506119e8915060089050846129ff565b5060405133815283907f1d3015d7ba850fa198dc7b1a3f5d42779313a681035f77c8c03764c61005518d9060200160405180910390a2505090565b611a2b6126d4565b6002546001600160a01b03163314611a56576040516344b0e3c360e01b815260040160405180910390fd5b60208114611a7757604051638129bbcd60e01b815260040160405180910390fd5b6000611a8582840184613074565b6000818152600560205260409020549091506001600160a01b0316611abd57604051630fb532db60e11b815260040160405180910390fd5b600081815260066020526040812080546001600160601b031691869190611ae48385613390565b92506101000a8154816001600160601b0302191690836001600160601b0316021790555084600a60008282829054906101000a90046001600160601b0316611b2c9190613390565b92506101000a8154816001600160601b0302191690836001600160601b03160217905550817f1ced9348ff549fceab2ac57cd3a9de38edaaab274b725ee82c23e8fc8c4eec7a828784611b7f919061335b565b60408051928352602083019190915201610dab565b611b9c6128b3565b6000818152600560205260409020546001600160a01b031680611bd257604051630fb532db60e11b815260040160405180910390fd5b6111bc8282612a0b565b60606000611bea6008612bb1565b9050808410611c0c57604051631390f2a160e01b815260040160405180910390fd5b6000611c18848661335b565b905081811180611c26575083155b611c305780611c32565b815b90506000611c408683613331565b9050806001600160401b03811115611c5a57611c5a612efc565b604051908082528060200260200182016040528015611c83578160200160208202803683370190505b50935060005b81811015611cd357611ca6611c9e888361335b565b600890612bbb565b858281518110611cb857611cb861328b565b6020908102919091010152611ccc816132b7565b9050611c89565b5050505092915050565b611ce56126d4565b6000818152600560205260409020546001600160a01b031680611d1b57604051630fb532db60e11b815260040160405180910390fd5b6000828152600560205260409020600101546001600160a01b03163314611d74576000828152600560205260409081902060010154905163d084e97560e01b81526001600160a01b03909116600482015260240161126f565b6000828152600560209081526040918290208054336001600160a01b03199182168117835560019092018054909116905582516001600160a01b03851681529182015283917fd4114ab6e9af9f597c52041f32d62dc57c5c4e4c0d4427006069635e216c938691016115dd565b81611deb8161266a565b611df36126d4565b6001600160a01b03821660009081526004602090815260408083208684529091529020805460ff1615611e265750505050565b6000848152600560205260409020600201805460631901611e5a576040516305a48e0f60e01b815260040160405180910390fd5b8154600160ff199091168117835581549081018255600082815260209081902090910180546001600160a01b0319166001600160a01b03871690811790915560405190815286917f1e980d04aa7648e205713e5e8ea3808672ac163d10936d36f91b2c88ac1575e191015b60405180910390a25050505050565b81611ede8161266a565b8282611eea8282611497565b611f19576040516379bfd40160e01b8152600481018390526001600160a01b038216602482015260440161126f565b611f216126d4565b6001600160a01b038416600090815260046020908152604080832088845290915290205460ff16611f77576040516379bfd40160e01b8152600481018690526001600160a01b038516602482015260440161126f565b600085815260056020908152604080832060020180548251818502810185019093528083529192909190830182828015611fda57602002820191906000526020600020905b81546001600160a01b03168152600190910190602001808311611fbc575b50505050509050600060018251611ff19190613331565b905060005b82518110156120fa57866001600160a01b031683828151811061201b5761201b61328b565b60200260200101516001600160a01b0316036120ea5760008383815181106120455761204561328b565b6020026020010151905080600560008b815260200190815260200160002060020183815481106120775761207761328b565b600091825260208083209190910180546001600160a01b0319166001600160a01b0394909416939093179092558a81526005909152604090206002018054806120c2576120c2613636565b600082815260209020810160001990810180546001600160a01b0319169055019055506120fa565b6120f3816132b7565b9050611ff6565b506001600160a01b03861660008181526004602090815260408083208b8452825291829020805460ff19169055905191825288917f32158c6058347c1601b2d12bc696ac6901d8a9a9aa3ba10c27ab0a983e8425a7910160405180910390a250505050505050565b8161216c8161266a565b6121746126d4565b600083815260056020526040902060018101546001600160a01b038481169116146121f6576001810180546001600160a01b0319166001600160a01b03851690811790915560408051338152602081019290925285917f21a4dad170a6bf476c31bbcf4a16628295b0e450672eec25d7c93308e05344a1910160405180910390a25b50505050565b600081815260056020526040812054819081906001600160a01b031660608161223857604051630fb532db60e11b815260040160405180910390fd5b600086815260066020908152604080832054600583529281902060020180548251818502810185019093528083526001600160601b0380861695600160601b810490911694600160c01b9091046001600160401b03169388939290918391908301828280156122d057602002820191906000526020600020905b81546001600160a01b031681526001909101906020018083116122b2575b505050505090509450945094509450945091939590929450565b6122f26128b3565b6002546001600160a01b031661231b5760405163c1f0c0a160e01b815260040160405180910390fd5b6002546040516370a0823160e01b81523060048201526000916001600160a01b0316906370a0823190602401602060405180830381865afa158015612364573d6000803e3d6000fd5b505050506040513d601f19601f82011682018060405250810190612388919061364c565b600a549091506001600160601b0316818111156123c2576040516354ced18160e11b8152600481018290526024810183905260440161126f565b8181101561101e5760006123d68284613331565b60025460405163a9059cbb60e01b81526001600160a01b0387811660048301526024820184905292935091169063a9059cbb906044016020604051808303816000875af115801561242b573d6000803e3d6000fd5b505050506040513d601f19601f8201168201806040525081019061244f91906133de565b61246c57604051631f01ff1360e21b815260040160405180910390fd5b604080516001600160a01b0386168152602081018390527f59bfc682b673f8cbf945f1e454df9334834abf7dfe7f92237ca29ecb9b436600910160405180910390a150505050565b6124bc6128b3565b6124c581612bc7565b50565b6111bc82826040516024016124de929190613665565b60408051601f198184030181529190526020810180516001600160e01b03166309710a9d60e41b179052612c70565b600081815260066020526040902082156125d15780546001600160601b03600160601b909104811690851681101561255857604051631e9acf1760e31b815260040160405180910390fd5b61256285826133b0565b82546bffffffffffffffffffffffff60601b1916600160601b6001600160601b039283168102919091178455600b805488939192600c926125a7928692900416613390565b92506101000a8154816001600160601b0302191690836001600160601b03160217905550506121f6565b80546001600160601b0390811690851681101561260157604051631e9acf1760e31b815260040160405180910390fd5b61260b85826133b0565b82546bffffffffffffffffffffffff19166001600160601b03918216178355600b8054879260009161263f91859116613390565b92506101000a8154816001600160601b0302191690836001600160601b031602179055505050505050565b6000818152600560205260409020546001600160a01b0316806126a057604051630fb532db60e11b815260040160405180910390fd5b336001600160a01b038216146111bc57604051636c51fda960e11b81526001600160a01b038216600482015260240161126f565b600c54600160301b900460ff16156126ff5760405163769dd35360e11b815260040160405180910390fd5b565b60008181526005602090815260408083206006909252822054600290910180546001600160601b0380841694600160601b90940416925b818110156127ad57600460008483815481106127565761275661328b565b60009182526020808320909101546001600160a01b0316835282810193909352604091820181208982529092529020805470ffffffffffffffffffffffffffffffffff191690556127a6816132b7565b9050612738565b50600085815260056020526040812080546001600160a01b031990811682556001820180549091169055906127e56002830182612eb8565b5050600085815260066020526040812055612801600886612c79565b506001600160601b0384161561285457600a805485919060009061282f9084906001600160601b03166133b0565b92506101000a8154816001600160601b0302191690836001600160601b031602179055505b6001600160601b038316156128ac5782600a600c8282829054906101000a90046001600160601b031661288791906133b0565b92506101000a8154816001600160601b0302191690836001600160601b031602179055505b5050915091565b6000546001600160a01b031633146126ff5760405162461bcd60e51b815260206004820152601660248201527527b7363c9031b0b63630b1363290313c9037bbb732b960511b604482015260640161126f565b604080516020810190915260008152600082900361293357506040805160208101909152600081526114bf565b63125fa26760e31b6129458385613687565b6001600160e01b0319161461296d57604051632923fee760e11b815260040160405180910390fd5b61297a82600481866136b7565b81019061298791906136e1565b9392505050565b60607f92fd13387c7fe7befbc38d303d6468778fb9731bc4583f17d92989c6fcfdeaaa826040516024016129c791511515815260200190565b60408051601f198184030181529190526020810180516001600160e01b03166001600160e01b03199093169290921790915292915050565b60006129878383612c85565b600080612a1784612701565b60025491935091506001600160a01b031615801590612a3e57506001600160601b03821615155b15612adf5760025460405163a9059cbb60e01b81526001600160a01b0385811660048301526001600160601b03851660248301529091169063a9059cbb906044016020604051808303816000875af1158015612a9e573d6000803e3d6000fd5b505050506040513d601f19601f82011682018060405250810190612ac291906133de565b612adf57604051631e9acf1760e31b815260040160405180910390fd5b6000836001600160a01b0316826001600160601b031660405160006040518083038185875af1925050503d8060008114612b35576040519150601f19603f3d011682016040523d82523d6000602084013e612b3a565b606091505b5050905080612b5c5760405163950b247960e01b815260040160405180910390fd5b604080516001600160a01b03861681526001600160601b03808616602083015284169181019190915285907f8c74ce8b8cf87f5eb001275c8be27eb34ea2b62bfab6814fcc62192bb63e81c490606001611ec5565b60006114bf825490565b60006129878383612cd4565b336001600160a01b03821603612c1f5760405162461bcd60e51b815260206004820152601760248201527f43616e6e6f74207472616e7366657220746f2073656c66000000000000000000604482015260640161126f565b600180546001600160a01b0319166001600160a01b0383811691821790925560008054604051929316917fed8889f560326eb138920d842192f0eb3dd22b4f139c87a2c57538e05bae12789190a350565b6124c581612cfe565b60006129878383612d1f565b6000818152600183016020526040812054612ccc575081546001818101845560008481526020808220909301849055845484825282860190935260409020919091556114bf565b5060006114bf565b6000826000018281548110612ceb57612ceb61328b565b9060005260206000200154905092915050565b80516a636f6e736f6c652e6c6f67602083016000808483855afa5050505050565b60008181526001830160205260408120548015612e08576000612d43600183613331565b8554909150600090612d5790600190613331565b9050818114612dbc576000866000018281548110612d7757612d7761328b565b9060005260206000200154905080876000018481548110612d9a57612d9a61328b565b6000918252602080832090910192909255918252600188019052604090208390555b8554869080612dcd57612dcd613636565b6001900381819060005260206000200160009055905585600101600086815260200190815260200160002060009055600193505050506114bf565b60009150506114bf565b5092915050565b508054612e2590613251565b6000825580601f10612e35575050565b601f0160209004906000526020600020908101906124c59190612ed2565b828054828255906000526020600020908101928215612ea8579160200282015b82811115612ea857825182546001600160a01b0319166001600160a01b03909116178255602090920191600190910190612e73565b50612eb4929150612ed2565b5090565b50805460008255906000526020600020908101906124c591905b5b80821115612eb45760008155600101612ed3565b6001600160a01b03811681146124c557600080fd5b634e487b7160e01b600052604160045260246000fd5b604051601f8201601f191681016001600160401b0381118282101715612f3a57612f3a612efc565b604052919050565b600080600060608486031215612f5757600080fd5b83359250602080850135612f6a81612ee7565b925060408501356001600160401b0380821115612f8657600080fd5b818701915087601f830112612f9a57600080fd5b813581811115612fac57612fac612efc565b8060051b9150612fbd848301612f12565b818152918301840191848101908a841115612fd757600080fd5b938501935b83851015612ff557843582529385019390850190612fdc565b8096505050505050509250925092565b6000806040838503121561301857600080fd5b82359150602083013561302a81612ee7565b809150509250929050565b6000806040838503121561304857600080fd5b50508035926020909101359150565b60006020828403121561306957600080fd5b813561298781612ee7565b60006020828403121561308657600080fd5b5035919050565b600080604083850312156130a057600080fd5b82356130ab81612ee7565b9150602083013561302a81612ee7565b6000602082840312156130cd57600080fd5b81356001600160401b038111156130e357600080fd5b820160c0818503121561298757600080fd5b6000806000806060858703121561310b57600080fd5b843561311681612ee7565b93506020850135925060408501356001600160401b038082111561313957600080fd5b818701915087601f83011261314d57600080fd5b81358181111561315c57600080fd5b88602082850101111561316e57600080fd5b95989497505060200194505050565b600081518084526020808501945080840160005b838110156131ad57815187529582019590820190600101613191565b509495945050505050565b602081526000612987602083018461317d565b6001600160601b03868116825285166020808301919091526001600160401b03851660408301526001600160a01b03848116606084015260a0608084018190528451908401819052600092858101929160c0860190855b81811015613240578551851683529483019491830191600101613222565b50909b9a5050505050505050505050565b600181811c9082168061326557607f821691505b60208210810361328557634e487b7160e01b600052602260045260246000fd5b50919050565b634e487b7160e01b600052603260045260246000fd5b634e487b7160e01b600052601160045260246000fd5b6000600182016132c9576132c96132a1565b5060010190565b8281526040602082015260006132e9604083018461317d565b949350505050565b60005b8381101561330c5781810151838201526020016132f4565b50506000910152565b600082516133278184602087016132f1565b9190910192915050565b818103818111156114bf576114bf6132a1565b80820281158282048414176114bf576114bf6132a1565b808201808211156114bf576114bf6132a1565b60008261338b57634e487b7160e01b600052601260045260246000fd5b500490565b6001600160601b03818116838216019080821115612e1257612e126132a1565b6001600160601b03828116828216039080821115612e1257612e126132a1565b80151581146124c557600080fd5b6000602082840312156133f057600080fd5b8151612987816133d0565b6000808335601e1984360301811261341257600080fd5b8301803591506001600160401b0382111561342c57600080fd5b60200191503681900382131561344157600080fd5b9250929050565b60006020828403121561345a57600080fd5b813563ffffffff8116811461298757600080fd5b601f82111561101e57600081815260208120601f850160051c810160208610156134955750805b601f850160051c820191505b818110156134b4578281556001016134a1565b505050505050565b81516001600160401b038111156134d5576134d5612efc565b6134e9816134e38454613251565b8461346e565b602080601f83116001811461351e57600084156135065750858301515b600019600386901b1c1916600185901b1785556134b4565b600085815260208120601f198616915b8281101561354d5788860151825594840194600190910190840161352e565b508582101561356b5787850151600019600388901b60f8161c191681555b5050505050600190811b01905550565b60006020828403121561358d57600080fd5b813561ffff8116811461298757600080fd5b600081518084526135b78160208601602086016132f1565b601f01601f19169290920160200192915050565b86815285602082015261ffff85166040820152600063ffffffff808616606084015280851660808401525060c060a083015261360a60c083018461359f565b98975050505050505050565b6001600160401b03818116838216019080821115612e1257612e126132a1565b634e487b7160e01b600052603160045260246000fd5b60006020828403121561365e57600080fd5b5051919050565b604081526000613678604083018561359f565b90508260208301529392505050565b6001600160e01b031981358181169160048510156136af5780818660040360031b1b83161692505b505092915050565b600080858511156136c757600080fd5b838611156136d457600080fd5b5050820193919092039150565b6000602082840312156136f357600080fd5b604051602081018181106001600160401b038211171561371557613715612efc565b6040528235613723816133d0565b8152939250505056fea26469706673582212202de61f076e2e4269ccb5980b19a1acd2cc2b37101e113247a81c17023d55e7f764736f6c63430008130033","linkReferences":{}},"methodIdentifiers":{"LINK()":"1b6b6d23","LINK_NATIVE_FEED()":"72e9d565","MAX_CONSUMERS()":"64d51a2a","acceptOwnership()":"79ba5097","acceptSubscriptionOwnerTransfer(uint256)":"b2a7cac5","addConsumer(uint256,address)":"bec4c08c","cancelSubscription(uint256,address)":"0ae09540","consumerIsAdded(uint256,address)":"953e9c75","createSubscription()":"a21a23e4","fulfillRandomWords(uint256,address)":"808974ff","fulfillRandomWordsWithOverride(uint256,address,uint256[])":"08e3898e","fundSubscription(uint256,uint256)":"115e3c0d","fundSubscriptionWithNative(uint256)":"95b55cfc","getActiveSubscriptionIds(uint256,uint256)":"aefb212f","getSubscription(uint256)":"dc311dd3","i_base_fee()":"1eebc117","i_gas_price()":"dcab3dcf","i_wei_per_unit_link()":"13478329","onTokenTransfer(address,uint256,bytes)":"a4c0ed36","owner()":"8da5cb5b","ownerCancelSubscription(uint256)":"aa433aff","pendingRequestExists(uint256)":"41af6c87","recoverFunds(address)":"e72f6e30","recoverNativeFunds(address)":"8402595e","removeConsumer(uint256,address)":"cb631797","requestRandomWords((bytes32,uint256,uint16,uint32,uint32,bytes))":"9b1c385e","requestSubscriptionOwnerTransfer(uint256,address)":"dac83d29","s_config()":"088070f5","s_currentSubNonce()":"9d40a6fd","s_totalBalance()":"86fe91c7","s_totalNativeBalance()":"18e3dd27","setConfig()":"8b673e7a","setLINKAndLINKNativeFeed(address,address)":"65982744","transferOwnership(address)":"f2fde38b","withdraw(address)":"51cff8d9","withdrawNative(address)":"2f622e6b"},"id":13}